{
  "_format": "hh-sol-artifact-1",
  "contractName": "PropertyTokenManager",
  "sourceName": "contracts/PropertyTokenManager.sol",
  "abi": [
    {
      "inputs": [
        {
          "internalType": "address",
          "name": "_sharesTokenAddress",
          "type": "address"
        },
        {
          "internalType": "address",
          "name": "_propertyTokenFactory",
          "type": "address"
        }
      ],
      "stateMutability": "nonpayable",
      "type": "constructor"
    },
    {
      "anonymous": false,
      "inputs": [
        {
          "indexed": true,
          "internalType": "address",
          "name": "previousOwner",
          "type": "address"
        },
        {
          "indexed": true,
          "internalType": "address",
          "name": "newOwner",
          "type": "address"
        }
      ],
      "name": "OwnershipTransferred",
      "type": "event"
    },
    {
      "inputs": [],
      "name": "owner",
      "outputs": [
        {
          "internalType": "address",
          "name": "",
          "type": "address"
        }
      ],
      "stateMutability": "view",
      "type": "function"
    },
    {
      "inputs": [
        {
          "internalType": "uint256",
          "name": "_requestId",
          "type": "uint256"
        }
      ],
      "name": "payForShares",
      "outputs": [],
      "stateMutability": "payable",
      "type": "function"
    },
    {
      "inputs": [],
      "name": "propertyTokenFactory",
      "outputs": [
        {
          "internalType": "contract PropertyTokenFactory",
          "name": "",
          "type": "address"
        }
      ],
      "stateMutability": "view",
      "type": "function"
    },
    {
      "inputs": [],
      "name": "renounceOwnership",
      "outputs": [],
      "stateMutability": "nonpayable",
      "type": "function"
    },
    {
      "inputs": [],
      "name": "sharesToken",
      "outputs": [
        {
          "internalType": "contract RealEstateShareToken",
          "name": "",
          "type": "address"
        }
      ],
      "stateMutability": "view",
      "type": "function"
    },
    {
      "inputs": [
        {
          "internalType": "address",
          "name": "newOwner",
          "type": "address"
        }
      ],
      "name": "transferOwnership",
      "outputs": [],
      "stateMutability": "nonpayable",
      "type": "function"
    }
  ],
  "bytecode": "0x60806040523480156200001157600080fd5b5060405162001462380380620014628339818101604052810190620000379190620001c4565b620000576200004b620000e160201b60201c565b620000e960201b60201c565b81600260006101000a81548173ffffffffffffffffffffffffffffffffffffffff021916908373ffffffffffffffffffffffffffffffffffffffff16021790555080600160006101000a81548173ffffffffffffffffffffffffffffffffffffffff021916908373ffffffffffffffffffffffffffffffffffffffff160217905550505062000253565b600033905090565b60008060009054906101000a900473ffffffffffffffffffffffffffffffffffffffff169050816000806101000a81548173ffffffffffffffffffffffffffffffffffffffff021916908373ffffffffffffffffffffffffffffffffffffffff1602179055508173ffffffffffffffffffffffffffffffffffffffff168173ffffffffffffffffffffffffffffffffffffffff167f8be0079c531659141344cd1fd0a4f28419497f9722a3daafe3b4186f6b6457e060405160405180910390a35050565b600081519050620001be8162000239565b92915050565b60008060408385031215620001d857600080fd5b6000620001e885828601620001ad565b9250506020620001fb85828601620001ad565b9150509250929050565b6000620002128262000219565b9050919050565b600073ffffffffffffffffffffffffffffffffffffffff82169050919050565b620002448162000205565b81146200025057600080fd5b50565b6111ff80620002636000396000f3fe6080604052600436106100555760003560e01c8063715018a61461005a578063740a03d9146100715780638009ba1f1461009c5780638da5cb5b146100c7578063b3374c0e146100f2578063f2fde38b1461010e575b600080fd5b34801561006657600080fd5b5061006f610137565b005b34801561007d57600080fd5b5061008661014b565b6040516100939190610cbe565b60405180910390f35b3480156100a857600080fd5b506100b1610171565b6040516100be9190610cd9565b60405180910390f35b3480156100d357600080fd5b506100dc610197565b6040516100e99190610ca3565b60405180910390f35b61010c60048036038101906101079190610a0f565b6101c0565b005b34801561011a57600080fd5b50610135600480360381019061013091906109a5565b6105cd565b005b61013f610651565b61014960006106cf565b565b600160009054906101000a900473ffffffffffffffffffffffffffffffffffffffff1681565b600260009054906101000a900473ffffffffffffffffffffffffffffffffffffffff1681565b60008060009054906101000a900473ffffffffffffffffffffffffffffffffffffffff16905090565b6000600160009054906101000a900473ffffffffffffffffffffffffffffffffffffffff1673ffffffffffffffffffffffffffffffffffffffff166385e04604836040518263ffffffff1660e01b815260040161021d9190610db6565b60006040518083038186803b15801561023557600080fd5b505afa158015610249573d6000803e3d6000fd5b505050506040513d6000823e3d601f19601f8201168201806040525081019061027291906109ce565b9050600160038111156102ae577f4e487b7100000000000000000000000000000000000000000000000000000000600052602160045260246000fd5b8160c0015160038111156102eb577f4e487b7100000000000000000000000000000000000000000000000000000000600052602160045260246000fd5b1461032b576040517f08c379a000000000000000000000000000000000000000000000000000000000815260040161032290610d74565b60405180910390fd5b8060800151341015610372576040517f08c379a000000000000000000000000000000000000000000000000000000000815260040161036990610d14565b60405180910390fd5b60028160c0019060038111156103b1577f4e487b7100000000000000000000000000000000000000000000000000000000600052602160045260246000fd5b908160038111156103eb577f4e487b7100000000000000000000000000000000000000000000000000000000600052602160045260246000fd5b8152505060006103f9610197565b73ffffffffffffffffffffffffffffffffffffffff163460405161041c90610c8e565b60006040518083038185875af1925050503d8060008114610459576040519150601f19603f3d011682016040523d82523d6000602084013e61045e565b606091505b50509050806104a2576040517f08c379a000000000000000000000000000000000000000000000000000000000815260040161049990610d34565b60405180910390fd5b600160009054906101000a900473ffffffffffffffffffffffffffffffffffffffff1673ffffffffffffffffffffffffffffffffffffffff166361348d0d836040518263ffffffff1660e01b81526004016104fd9190610d94565b600060405180830381600087803b15801561051757600080fd5b505af115801561052b573d6000803e3d6000fd5b50505050600260009054906101000a900473ffffffffffffffffffffffffffffffffffffffff1673ffffffffffffffffffffffffffffffffffffffff1663618ac8518360000151338560a001516040518463ffffffff1660e01b815260040161059693929190610dd1565b600060405180830381600087803b1580156105b057600080fd5b505af11580156105c4573d6000803e3d6000fd5b50505050505050565b6105d5610651565b600073ffffffffffffffffffffffffffffffffffffffff168173ffffffffffffffffffffffffffffffffffffffff161415610645576040517f08c379a000000000000000000000000000000000000000000000000000000000815260040161063c90610cf4565b60405180910390fd5b61064e816106cf565b50565b610659610793565b73ffffffffffffffffffffffffffffffffffffffff16610677610197565b73ffffffffffffffffffffffffffffffffffffffff16146106cd576040517f08c379a00000000000000000000000000000000000000000000000000000000081526004016106c490610d54565b60405180910390fd5b565b60008060009054906101000a900473ffffffffffffffffffffffffffffffffffffffff169050816000806101000a81548173ffffffffffffffffffffffffffffffffffffffff021916908373ffffffffffffffffffffffffffffffffffffffff1602179055508173ffffffffffffffffffffffffffffffffffffffff168173ffffffffffffffffffffffffffffffffffffffff167f8be0079c531659141344cd1fd0a4f28419497f9722a3daafe3b4186f6b6457e060405160405180910390a35050565b600033905090565b60006107ae6107a984610e2d565b610e08565b9050828152602081018484840111156107c657600080fd5b6107d1848285610f4b565b509392505050565b6000813590506107e881611174565b92915050565b6000815190506107fd81611174565b92915050565b6000815190506108128161118b565b92915050565b600081519050610827816111a2565b92915050565b600082601f83011261083e57600080fd5b815161084e84826020860161079b565b91505092915050565b6000610120828403121561086a57600080fd5b610875610120610e08565b9050600061088584828501610990565b600083015250602082015167ffffffffffffffff8111156108a557600080fd5b6108b18482850161082d565b602083015250604082015167ffffffffffffffff8111156108d157600080fd5b6108dd8482850161082d565b604083015250606082015167ffffffffffffffff8111156108fd57600080fd5b6109098482850161082d565b606083015250608061091d84828501610990565b60808301525060a061093184828501610990565b60a08301525060c061094584828501610818565b60c08301525060e061095984828501610803565b60e08301525061010061096e848285016107ee565b6101008301525092915050565b60008135905061098a816111b2565b92915050565b60008151905061099f816111b2565b92915050565b6000602082840312156109b757600080fd5b60006109c5848285016107d9565b91505092915050565b6000602082840312156109e057600080fd5b600082015167ffffffffffffffff8111156109fa57600080fd5b610a0684828501610857565b91505092915050565b600060208284031215610a2157600080fd5b6000610a2f8482850161097b565b91505092915050565b610a4181610e96565b82525050565b610a5081610e96565b82525050565b610a5f81610ea8565b82525050565b610a6e81610ef1565b82525050565b610a7d81610f15565b82525050565b610a8c81610f39565b82525050565b6000610a9d82610e5e565b610aa78185610e74565b9350610ab7818560208601610f4b565b610ac08161100d565b840191505092915050565b6000610ad8602683610e85565b9150610ae38261101e565b604082019050919050565b6000610afb602483610e85565b9150610b068261106d565b604082019050919050565b6000610b1e602b83610e85565b9150610b29826110bc565b604082019050919050565b6000610b41602083610e85565b9150610b4c8261110b565b602082019050919050565b6000610b64601883610e85565b9150610b6f82611134565b602082019050919050565b6000610b87600083610e69565b9150610b928261115d565b600082019050919050565b600061012083016000830151610bb66000860182610c70565b5060208301518482036020860152610bce8282610a92565b91505060408301518482036040860152610be88282610a92565b91505060608301518482036060860152610c028282610a92565b9150506080830151610c176080860182610c70565b5060a0830151610c2a60a0860182610c70565b5060c0830151610c3d60c0860182610a83565b5060e0830151610c5060e0860182610a56565b50610100830151610c65610100860182610a38565b508091505092915050565b610c7981610ee7565b82525050565b610c8881610ee7565b82525050565b6000610c9982610b7a565b9150819050919050565b6000602082019050610cb86000830184610a47565b92915050565b6000602082019050610cd36000830184610a65565b92915050565b6000602082019050610cee6000830184610a74565b92915050565b60006020820190508181036000830152610d0d81610acb565b9050919050565b60006020820190508181036000830152610d2d81610aee565b9050919050565b60006020820190508181036000830152610d4d81610b11565b9050919050565b60006020820190508181036000830152610d6d81610b34565b9050919050565b60006020820190508181036000830152610d8d81610b57565b9050919050565b60006020820190508181036000830152610dae8184610b9d565b905092915050565b6000602082019050610dcb6000830184610c7f565b92915050565b6000606082019050610de66000830186610c7f565b610df36020830185610a47565b610e006040830184610c7f565b949350505050565b6000610e12610e23565b9050610e1e8282610f7e565b919050565b6000604051905090565b600067ffffffffffffffff821115610e4857610e47610fde565b5b610e518261100d565b9050602081019050919050565b600081519050919050565b600081905092915050565b600082825260208201905092915050565b600082825260208201905092915050565b6000610ea182610ec7565b9050919050565b60008115159050919050565b6000819050610ec282611160565b919050565b600073ffffffffffffffffffffffffffffffffffffffff82169050919050565b6000819050919050565b6000610efc82610f03565b9050919050565b6000610f0e82610ec7565b9050919050565b6000610f2082610f27565b9050919050565b6000610f3282610ec7565b9050919050565b6000610f4482610eb4565b9050919050565b60005b83811015610f69578082015181840152602081019050610f4e565b83811115610f78576000848401525b50505050565b610f878261100d565b810181811067ffffffffffffffff82111715610fa657610fa5610fde565b5b80604052505050565b7f4e487b7100000000000000000000000000000000000000000000000000000000600052602160045260246000fd5b7f4e487b7100000000000000000000000000000000000000000000000000000000600052604160045260246000fd5b6000601f19601f8301169050919050565b7f4f776e61626c653a206e6577206f776e657220697320746865207a65726f206160008201527f6464726573730000000000000000000000000000000000000000000000000000602082015250565b7f496e73756666696369656e742066756e647320746f2070617920666f7220736860008201527f6172657300000000000000000000000000000000000000000000000000000000602082015250565b7f4661696c656420746f2073656e642045746865723a204e6f742063726561746960008201527f6e672050726f7065727479000000000000000000000000000000000000000000602082015250565b7f4f776e61626c653a2063616c6c6572206973206e6f7420746865206f776e6572600082015250565b7f52657175657374206d75737420626520617070726f7665640000000000000000600082015250565b50565b6004811061117157611170610faf565b5b50565b61117d81610e96565b811461118857600080fd5b50565b61119481610ea8565b811461119f57600080fd5b50565b600481106111af57600080fd5b50565b6111bb81610ee7565b81146111c657600080fd5b5056fea2646970667358221220cd17f31ee9a738d90bbf1a87e06243c0c73d83aa55d12d2aced1fa10aafa143264736f6c63430008030033",
  "linkReferences": {},
  "deployedLinkReferences": {}
}