{
  "_format": "hh-sol-artifact-1",
  "contractName": "RealEstateShareToken",
  "sourceName": "contracts/RealEstateShareToken.sol",
  "abi": [
    {
      "inputs": [
        {
          "internalType": "string",
          "name": "name",
          "type": "string"
        },
        {
          "internalType": "string",
          "name": "symbol",
          "type": "string"
        }
      ],
      "stateMutability": "nonpayable",
      "type": "constructor"
    },
    {
      "anonymous": false,
      "inputs": [
        {
          "indexed": true,
          "internalType": "address",
          "name": "owner",
          "type": "address"
        },
        {
          "indexed": true,
          "internalType": "address",
          "name": "spender",
          "type": "address"
        },
        {
          "indexed": false,
          "internalType": "uint256",
          "name": "value",
          "type": "uint256"
        }
      ],
      "name": "Approval",
      "type": "event"
    },
    {
      "anonymous": false,
      "inputs": [
        {
          "indexed": true,
          "internalType": "address",
          "name": "from",
          "type": "address"
        },
        {
          "indexed": true,
          "internalType": "address",
          "name": "to",
          "type": "address"
        },
        {
          "indexed": false,
          "internalType": "uint256",
          "name": "value",
          "type": "uint256"
        }
      ],
      "name": "Transfer",
      "type": "event"
    },
    {
      "inputs": [
        {
          "internalType": "address",
          "name": "owner",
          "type": "address"
        },
        {
          "internalType": "address",
          "name": "spender",
          "type": "address"
        }
      ],
      "name": "allowance",
      "outputs": [
        {
          "internalType": "uint256",
          "name": "",
          "type": "uint256"
        }
      ],
      "stateMutability": "view",
      "type": "function"
    },
    {
      "inputs": [
        {
          "internalType": "address",
          "name": "spender",
          "type": "address"
        },
        {
          "internalType": "uint256",
          "name": "amount",
          "type": "uint256"
        }
      ],
      "name": "approve",
      "outputs": [
        {
          "internalType": "bool",
          "name": "",
          "type": "bool"
        }
      ],
      "stateMutability": "nonpayable",
      "type": "function"
    },
    {
      "inputs": [
        {
          "internalType": "address",
          "name": "account",
          "type": "address"
        }
      ],
      "name": "balanceOf",
      "outputs": [
        {
          "internalType": "uint256",
          "name": "",
          "type": "uint256"
        }
      ],
      "stateMutability": "view",
      "type": "function"
    },
    {
      "inputs": [],
      "name": "decimals",
      "outputs": [
        {
          "internalType": "uint8",
          "name": "",
          "type": "uint8"
        }
      ],
      "stateMutability": "view",
      "type": "function"
    },
    {
      "inputs": [
        {
          "internalType": "address",
          "name": "spender",
          "type": "address"
        },
        {
          "internalType": "uint256",
          "name": "subtractedValue",
          "type": "uint256"
        }
      ],
      "name": "decreaseAllowance",
      "outputs": [
        {
          "internalType": "bool",
          "name": "",
          "type": "bool"
        }
      ],
      "stateMutability": "nonpayable",
      "type": "function"
    },
    {
      "inputs": [
        {
          "internalType": "address",
          "name": "shareholder",
          "type": "address"
        }
      ],
      "name": "getPropertiesForShareholder",
      "outputs": [
        {
          "internalType": "uint256[]",
          "name": "",
          "type": "uint256[]"
        }
      ],
      "stateMutability": "view",
      "type": "function"
    },
    {
      "inputs": [
        {
          "internalType": "uint256",
          "name": "propertyId",
          "type": "uint256"
        }
      ],
      "name": "getPropertyShareholders",
      "outputs": [
        {
          "components": [
            {
              "internalType": "address",
              "name": "shareholder",
              "type": "address"
            },
            {
              "internalType": "uint256",
              "name": "shareAmount",
              "type": "uint256"
            }
          ],
          "internalType": "struct RealEstateShareToken.Shareholder[]",
          "name": "",
          "type": "tuple[]"
        }
      ],
      "stateMutability": "view",
      "type": "function"
    },
    {
      "inputs": [
        {
          "internalType": "address",
          "name": "spender",
          "type": "address"
        },
        {
          "internalType": "uint256",
          "name": "addedValue",
          "type": "uint256"
        }
      ],
      "name": "increaseAllowance",
      "outputs": [
        {
          "internalType": "bool",
          "name": "",
          "type": "bool"
        }
      ],
      "stateMutability": "nonpayable",
      "type": "function"
    },
    {
      "inputs": [
        {
          "internalType": "uint256",
          "name": "propertyId",
          "type": "uint256"
        },
        {
          "internalType": "address",
          "name": "account",
          "type": "address"
        },
        {
          "internalType": "uint256",
          "name": "amount",
          "type": "uint256"
        }
      ],
      "name": "mintPropertyShares",
      "outputs": [],
      "stateMutability": "nonpayable",
      "type": "function"
    },
    {
      "inputs": [],
      "name": "name",
      "outputs": [
        {
          "internalType": "string",
          "name": "",
          "type": "string"
        }
      ],
      "stateMutability": "view",
      "type": "function"
    },
    {
      "inputs": [
        {
          "internalType": "uint256",
          "name": "propertyId",
          "type": "uint256"
        },
        {
          "internalType": "address",
          "name": "account",
          "type": "address"
        }
      ],
      "name": "propertyBalanceOf",
      "outputs": [
        {
          "internalType": "uint256",
          "name": "",
          "type": "uint256"
        }
      ],
      "stateMutability": "view",
      "type": "function"
    },
    {
      "inputs": [
        {
          "internalType": "uint256",
          "name": "propertyId",
          "type": "uint256"
        },
        {
          "internalType": "address",
          "name": "shareholder",
          "type": "address"
        }
      ],
      "name": "removeShareholder",
      "outputs": [],
      "stateMutability": "nonpayable",
      "type": "function"
    },
    {
      "inputs": [],
      "name": "symbol",
      "outputs": [
        {
          "internalType": "string",
          "name": "",
          "type": "string"
        }
      ],
      "stateMutability": "view",
      "type": "function"
    },
    {
      "inputs": [],
      "name": "totalSupply",
      "outputs": [
        {
          "internalType": "uint256",
          "name": "",
          "type": "uint256"
        }
      ],
      "stateMutability": "view",
      "type": "function"
    },
    {
      "inputs": [
        {
          "internalType": "address",
          "name": "to",
          "type": "address"
        },
        {
          "internalType": "uint256",
          "name": "amount",
          "type": "uint256"
        }
      ],
      "name": "transfer",
      "outputs": [
        {
          "internalType": "bool",
          "name": "",
          "type": "bool"
        }
      ],
      "stateMutability": "nonpayable",
      "type": "function"
    },
    {
      "inputs": [
        {
          "internalType": "address",
          "name": "from",
          "type": "address"
        },
        {
          "internalType": "address",
          "name": "to",
          "type": "address"
        },
        {
          "internalType": "uint256",
          "name": "amount",
          "type": "uint256"
        }
      ],
      "name": "transferFrom",
      "outputs": [
        {
          "internalType": "bool",
          "name": "",
          "type": "bool"
        }
      ],
      "stateMutability": "nonpayable",
      "type": "function"
    },
    {
      "inputs": [
        {
          "internalType": "uint256",
          "name": "propertyId",
          "type": "uint256"
        },
        {
          "internalType": "address",
          "name": "sender",
          "type": "address"
        },
        {
          "internalType": "address",
          "name": "recipient",
          "type": "address"
        },
        {
          "internalType": "uint256",
          "name": "amount",
          "type": "uint256"
        }
      ],
      "name": "transferPropertyShares",
      "outputs": [],
      "stateMutability": "nonpayable",
      "type": "function"
    }
  ],
  "bytecode": "0x60806040523480156200001157600080fd5b5060405162002aa538038062002aa5833981810160405281019062000037919062000197565b818181600390805190602001906200005192919062000075565b5080600490805190602001906200006a92919062000075565b50505050506200037a565b82805462000083906200029f565b90600052602060002090601f016020900481019282620000a75760008555620000f3565b82601f10620000c257805160ff1916838001178555620000f3565b82800160010185558215620000f3579182015b82811115620000f2578251825591602001919060010190620000d5565b5b50905062000102919062000106565b5090565b5b808211156200012157600081600090555060010162000107565b5090565b60006200013c620001368462000233565b6200020a565b9050828152602081018484840111156200015557600080fd5b6200016284828562000269565b509392505050565b600082601f8301126200017c57600080fd5b81516200018e84826020860162000125565b91505092915050565b60008060408385031215620001ab57600080fd5b600083015167ffffffffffffffff811115620001c657600080fd5b620001d4858286016200016a565b925050602083015167ffffffffffffffff811115620001f257600080fd5b62000200858286016200016a565b9150509250929050565b60006200021662000229565b9050620002248282620002d5565b919050565b6000604051905090565b600067ffffffffffffffff8211156200025157620002506200033a565b5b6200025c8262000369565b9050602081019050919050565b60005b83811015620002895780820151818401526020810190506200026c565b8381111562000299576000848401525b50505050565b60006002820490506001821680620002b857607f821691505b60208210811415620002cf57620002ce6200030b565b5b50919050565b620002e08262000369565b810181811067ffffffffffffffff821117156200030257620003016200033a565b5b80604052505050565b7f4e487b7100000000000000000000000000000000000000000000000000000000600052602260045260246000fd5b7f4e487b7100000000000000000000000000000000000000000000000000000000600052604160045260246000fd5b6000601f19601f8301169050919050565b61271b806200038a6000396000f3fe608060405234801561001057600080fd5b506004361061010b5760003560e01c8063706d871b116100a257806395d89b411161007157806395d89b41146102de578063a457c2d7146102fc578063a9059cbb1461032c578063a9378ff31461035c578063dd62ed3e1461038c5761010b565b8063706d871b1461024657806370a08231146102625780638b441aa2146102925780638ddfc9b4146102ae5761010b565b8063313ce567116100de578063313ce567146101ac57806339509351146101ca57806356a79e91146101fa578063618ac8511461022a5761010b565b806306fdde0314610110578063095ea7b31461012e57806318160ddd1461015e57806323b872dd1461017c575b600080fd5b6101186103bc565b6040516101259190611f5c565b60405180910390f35b61014860048036038101906101439190611a8a565b61044e565b6040516101559190611f41565b60405180910390f35b610166610471565b60405161017391906120de565b60405180910390f35b61019660048036038101906101919190611a3b565b61047b565b6040516101a39190611f41565b60405180910390f35b6101b46104aa565b6040516101c191906120f9565b60405180910390f35b6101e460048036038101906101df9190611a8a565b6104b3565b6040516101f19190611f41565b60405180910390f35b610214600480360381019061020f9190611ac6565b6104ea565b6040516102219190611efd565b60405180910390f35b610244600480360381019061023f9190611b8e565b610776565b005b610260600480360381019061025b9190611aef565b6107f6565b005b61027c600480360381019061027791906119d6565b610d3d565b60405161028991906120de565b60405180910390f35b6102ac60048036038101906102a79190611b2b565b610d85565b005b6102c860048036038101906102c391906119d6565b610ed2565b6040516102d59190611f1f565b60405180910390f35b6102e6610f69565b6040516102f39190611f5c565b60405180910390f35b61031660048036038101906103119190611a8a565b610ffb565b6040516103239190611f41565b60405180910390f35b61034660048036038101906103419190611a8a565b611072565b6040516103539190611f41565b60405180910390f35b61037660048036038101906103719190611aef565b611095565b60405161038391906120de565b60405180910390f35b6103a660048036038101906103a191906119ff565b6110f0565b6040516103b391906120de565b60405180910390f35b6060600380546103cb906122b4565b80601f01602080910402602001604051908101604052809291908181526020018280546103f7906122b4565b80156104445780601f1061041957610100808354040283529160200191610444565b820191906000526020600020905b81548152906001019060200180831161042757829003601f168201915b5050505050905090565b600080610459611177565b905061046681858561117f565b600191505092915050565b6000600254905090565b600080610486611177565b905061049385828561134a565b61049e8585856113d6565b60019150509392505050565b60006012905090565b6000806104be611177565b90506104df8185856104d085896110f0565b6104da91906121a2565b61117f565b600191505092915050565b606060006005600084815260200190815260200160002080548060200260200160405190810160405280929190818152602001828054801561058157602002820191906000526020600020905b8160009054906101000a900473ffffffffffffffffffffffffffffffffffffffff1673ffffffffffffffffffffffffffffffffffffffff1681526020019060010190808311610537575b505050505090506000815167ffffffffffffffff8111156105cb577f4e487b7100000000000000000000000000000000000000000000000000000000600052604160045260246000fd5b60405190808252806020026020018201604052801561060457816020015b6105f161197c565b8152602001906001900390816105e95790505b50905060005b825181101561076b5760006040518060400160405280858481518110610659577f4e487b7100000000000000000000000000000000000000000000000000000000600052603260045260246000fd5b602002602001015173ffffffffffffffffffffffffffffffffffffffff1681526020016006600089815260200190815260200160002060008786815181106106ca577f4e487b7100000000000000000000000000000000000000000000000000000000600052603260045260246000fd5b602002602001015173ffffffffffffffffffffffffffffffffffffffff1673ffffffffffffffffffffffffffffffffffffffff1681526020019081526020016000205481525090508083838151811061074c577f4e487b7100000000000000000000000000000000000000000000000000000000600052603260045260246000fd5b6020026020010181905250508080610763906122e6565b91505061060a565b508092505050919050565b610780828261164e565b806006600085815260200190815260200160002060008473ffffffffffffffffffffffffffffffffffffffff1673ffffffffffffffffffffffffffffffffffffffff16815260200190815260200160002060008282546107e091906121a2565b925050819055506107f183836117a5565b505050565b60006006600084815260200190815260200160002060008373ffffffffffffffffffffffffffffffffffffffff1673ffffffffffffffffffffffffffffffffffffffff1681526020019081526020016000205490506000811461088e576040517f08c379a000000000000000000000000000000000000000000000000000000000815260040161088590611f9e565b60405180910390fd5b600060056000858152602001908152602001600020905060008180549050905060005b828054905081101561096f578473ffffffffffffffffffffffffffffffffffffffff1683828154811061090d577f4e487b7100000000000000000000000000000000000000000000000000000000600052603260045260246000fd5b9060005260206000200160009054906101000a900473ffffffffffffffffffffffffffffffffffffffff1673ffffffffffffffffffffffffffffffffffffffff16141561095c5780915061096f565b8080610967906122e6565b9150506108b1565b50818054905081106109b6576040517f08c379a00000000000000000000000000000000000000000000000000000000081526004016109ad9061207e565b60405180910390fd5b600182805490506109c791906121f8565b8114610ac35781600183805490506109df91906121f8565b81548110610a16577f4e487b7100000000000000000000000000000000000000000000000000000000600052603260045260246000fd5b9060005260206000200160009054906101000a900473ffffffffffffffffffffffffffffffffffffffff16828281548110610a7a577f4e487b7100000000000000000000000000000000000000000000000000000000600052603260045260246000fd5b9060005260206000200160006101000a81548173ffffffffffffffffffffffffffffffffffffffff021916908373ffffffffffffffffffffffffffffffffffffffff1602179055505b81805480610afa577f4e487b7100000000000000000000000000000000000000000000000000000000600052603160045260246000fd5b6001900381819060005260206000200160006101000a81549073ffffffffffffffffffffffffffffffffffffffff021916905590556000600760008673ffffffffffffffffffffffffffffffffffffffff1673ffffffffffffffffffffffffffffffffffffffff16815260200190815260200160002090508080549050915060005b8180549050811015610bee5786828281548110610bc2577f4e487b7100000000000000000000000000000000000000000000000000000000600052603260045260246000fd5b90600052602060002001541415610bdb57809250610bee565b8080610be6906122e6565b915050610b7c565b5080805490508210610c35576040517f08c379a0000000000000000000000000000000000000000000000000000000008152600401610c2c90611fbe565b60405180910390fd5b60018180549050610c4691906121f8565b8214610ce8578060018280549050610c5e91906121f8565b81548110610c95577f4e487b7100000000000000000000000000000000000000000000000000000000600052603260045260246000fd5b9060005260206000200154818381548110610cd9577f4e487b7100000000000000000000000000000000000000000000000000000000600052603260045260246000fd5b90600052602060002001819055505b80805480610d1f577f4e487b7100000000000000000000000000000000000000000000000000000000600052603160045260246000fd5b60019003818190600052602060002001600090559055505050505050565b60008060008373ffffffffffffffffffffffffffffffffffffffff1673ffffffffffffffffffffffffffffffffffffffff168152602001908152602001600020549050919050565b610d908383836113d6565b806006600086815260200190815260200160002060008573ffffffffffffffffffffffffffffffffffffffff1673ffffffffffffffffffffffffffffffffffffffff1681526020019081526020016000206000828254610df091906121f8565b9250508190555060006006600086815260200190815260200160002060008573ffffffffffffffffffffffffffffffffffffffff1673ffffffffffffffffffffffffffffffffffffffff168152602001908152602001600020541415610e5b57610e5a84846107f6565b5b806006600086815260200190815260200160002060008473ffffffffffffffffffffffffffffffffffffffff1673ffffffffffffffffffffffffffffffffffffffff1681526020019081526020016000206000828254610ebb91906121a2565b92505081905550610ecc84836117a5565b50505050565b6060600760008373ffffffffffffffffffffffffffffffffffffffff1673ffffffffffffffffffffffffffffffffffffffff168152602001908152602001600020805480602002602001604051908101604052809291908181526020018280548015610f5d57602002820191906000526020600020905b815481526020019060010190808311610f49575b50505050509050919050565b606060048054610f78906122b4565b80601f0160208091040260200160405190810160405280929190818152602001828054610fa4906122b4565b8015610ff15780601f10610fc657610100808354040283529160200191610ff1565b820191906000526020600020905b815481529060010190602001808311610fd457829003601f168201915b5050505050905090565b600080611006611177565b9050600061101482866110f0565b905083811015611059576040517f08c379a00000000000000000000000000000000000000000000000000000000081526004016110509061209e565b60405180910390fd5b611066828686840361117f565b60019250505092915050565b60008061107d611177565b905061108a8185856113d6565b600191505092915050565b60006006600084815260200190815260200160002060008373ffffffffffffffffffffffffffffffffffffffff1673ffffffffffffffffffffffffffffffffffffffff16815260200190815260200160002054905092915050565b6000600160008473ffffffffffffffffffffffffffffffffffffffff1673ffffffffffffffffffffffffffffffffffffffff16815260200190815260200160002060008373ffffffffffffffffffffffffffffffffffffffff1673ffffffffffffffffffffffffffffffffffffffff16815260200190815260200160002054905092915050565b600033905090565b600073ffffffffffffffffffffffffffffffffffffffff168373ffffffffffffffffffffffffffffffffffffffff1614156111ef576040517f08c379a00000000000000000000000000000000000000000000000000000000081526004016111e69061205e565b60405180910390fd5b600073ffffffffffffffffffffffffffffffffffffffff168273ffffffffffffffffffffffffffffffffffffffff16141561125f576040517f08c379a000000000000000000000000000000000000000000000000000000000815260040161125690611fde565b60405180910390fd5b80600160008573ffffffffffffffffffffffffffffffffffffffff1673ffffffffffffffffffffffffffffffffffffffff16815260200190815260200160002060008473ffffffffffffffffffffffffffffffffffffffff1673ffffffffffffffffffffffffffffffffffffffff168152602001908152602001600020819055508173ffffffffffffffffffffffffffffffffffffffff168373ffffffffffffffffffffffffffffffffffffffff167f8c5be1e5ebec7d5bd14f71427d1e84f3dd0314c0f7b2291e5b200ac8c7c3b9258360405161133d91906120de565b60405180910390a3505050565b600061135684846110f0565b90507fffffffffffffffffffffffffffffffffffffffffffffffffffffffffffffffff81146113d057818110156113c2576040517f08c379a00000000000000000000000000000000000000000000000000000000081526004016113b990611ffe565b60405180910390fd5b6113cf848484840361117f565b5b50505050565b600073ffffffffffffffffffffffffffffffffffffffff168373ffffffffffffffffffffffffffffffffffffffff161415611446576040517f08c379a000000000000000000000000000000000000000000000000000000000815260040161143d9061203e565b60405180910390fd5b600073ffffffffffffffffffffffffffffffffffffffff168273ffffffffffffffffffffffffffffffffffffffff1614156114b6576040517f08c379a00000000000000000000000000000000000000000000000000000000081526004016114ad90611f7e565b60405180910390fd5b6114c1838383611972565b60008060008573ffffffffffffffffffffffffffffffffffffffff1673ffffffffffffffffffffffffffffffffffffffff16815260200190815260200160002054905081811015611547576040517f08c379a000000000000000000000000000000000000000000000000000000000815260040161153e9061201e565b60405180910390fd5b8181036000808673ffffffffffffffffffffffffffffffffffffffff1673ffffffffffffffffffffffffffffffffffffffff16815260200190815260200160002081905550816000808573ffffffffffffffffffffffffffffffffffffffff1673ffffffffffffffffffffffffffffffffffffffff168152602001908152602001600020600082825401925050819055508273ffffffffffffffffffffffffffffffffffffffff168473ffffffffffffffffffffffffffffffffffffffff167fddf252ad1be2c89b69c2b068fc378daa952ba7f163c4a11628f55a4df523b3ef8460405161163591906120de565b60405180910390a3611648848484611977565b50505050565b600073ffffffffffffffffffffffffffffffffffffffff168273ffffffffffffffffffffffffffffffffffffffff1614156116be576040517f08c379a00000000000000000000000000000000000000000000000000000000081526004016116b5906120be565b60405180910390fd5b6116ca60008383611972565b80600260008282546116dc91906121a2565b92505081905550806000808473ffffffffffffffffffffffffffffffffffffffff1673ffffffffffffffffffffffffffffffffffffffff168152602001908152602001600020600082825401925050819055508173ffffffffffffffffffffffffffffffffffffffff16600073ffffffffffffffffffffffffffffffffffffffff167fddf252ad1be2c89b69c2b068fc378daa952ba7f163c4a11628f55a4df523b3ef8360405161178d91906120de565b60405180910390a36117a160008383611977565b5050565b6000805b600560008581526020019081526020016000208054905081101561188c578273ffffffffffffffffffffffffffffffffffffffff16600560008681526020019081526020016000208281548110611829577f4e487b7100000000000000000000000000000000000000000000000000000000600052603260045260246000fd5b9060005260206000200160009054906101000a900473ffffffffffffffffffffffffffffffffffffffff1673ffffffffffffffffffffffffffffffffffffffff161415611879576001915061188c565b8080611884906122e6565b9150506117a9565b508061196d5760056000848152602001908152602001600020829080600181540180825580915050600190039060005260206000200160009091909190916101000a81548173ffffffffffffffffffffffffffffffffffffffff021916908373ffffffffffffffffffffffffffffffffffffffff160217905550600760008373ffffffffffffffffffffffffffffffffffffffff1673ffffffffffffffffffffffffffffffffffffffff1681526020019081526020016000208390806001815401808255809150506001900390600052602060002001600090919091909150555b505050565b505050565b505050565b6040518060400160405280600073ffffffffffffffffffffffffffffffffffffffff168152602001600081525090565b6000813590506119bb816126b7565b92915050565b6000813590506119d0816126ce565b92915050565b6000602082840312156119e857600080fd5b60006119f6848285016119ac565b91505092915050565b60008060408385031215611a1257600080fd5b6000611a20858286016119ac565b9250506020611a31858286016119ac565b9150509250929050565b600080600060608486031215611a5057600080fd5b6000611a5e868287016119ac565b9350506020611a6f868287016119ac565b9250506040611a80868287016119c1565b9150509250925092565b60008060408385031215611a9d57600080fd5b6000611aab858286016119ac565b9250506020611abc858286016119c1565b9150509250929050565b600060208284031215611ad857600080fd5b6000611ae6848285016119c1565b91505092915050565b60008060408385031215611b0257600080fd5b6000611b10858286016119c1565b9250506020611b21858286016119ac565b9150509250929050565b60008060008060808587031215611b4157600080fd5b6000611b4f878288016119c1565b9450506020611b60878288016119ac565b9350506040611b71878288016119ac565b9250506060611b82878288016119c1565b91505092959194509250565b600080600060608486031215611ba357600080fd5b6000611bb1868287016119c1565b9350506020611bc2868287016119ac565b9250506040611bd3868287016119c1565b9150509250925092565b6000611be98383611ea1565b60408301905092915050565b6000611c018383611ed0565b60208301905092915050565b611c168161222c565b82525050565b6000611c2782612134565b611c31818561216f565b9350611c3c83612114565b8060005b83811015611c6d578151611c548882611bdd565b9750611c5f83612155565b925050600181019050611c40565b5085935050505092915050565b6000611c858261213f565b611c8f8185612180565b9350611c9a83612124565b8060005b83811015611ccb578151611cb28882611bf5565b9750611cbd83612162565b925050600181019050611c9e565b5085935050505092915050565b611ce18161223e565b82525050565b6000611cf28261214a565b611cfc8185612191565b9350611d0c818560208601612281565b611d158161238d565b840191505092915050565b6000611d2d602383612191565b9150611d388261239e565b604082019050919050565b6000611d50603683612191565b9150611d5b826123ed565b604082019050919050565b6000611d73603b83612191565b9150611d7e8261243c565b604082019050919050565b6000611d96602283612191565b9150611da18261248b565b604082019050919050565b6000611db9601d83612191565b9150611dc4826124da565b602082019050919050565b6000611ddc602683612191565b9150611de782612503565b604082019050919050565b6000611dff602583612191565b9150611e0a82612552565b604082019050919050565b6000611e22602483612191565b9150611e2d826125a1565b604082019050919050565b6000611e45603783612191565b9150611e50826125f0565b604082019050919050565b6000611e68602583612191565b9150611e738261263f565b604082019050919050565b6000611e8b601f83612191565b9150611e968261268e565b602082019050919050565b604082016000820151611eb76000850182611c0d565b506020820151611eca6020850182611ed0565b50505050565b611ed98161226a565b82525050565b611ee88161226a565b82525050565b611ef781612274565b82525050565b60006020820190508181036000830152611f178184611c1c565b905092915050565b60006020820190508181036000830152611f398184611c7a565b905092915050565b6000602082019050611f566000830184611cd8565b92915050565b60006020820190508181036000830152611f768184611ce7565b905092915050565b60006020820190508181036000830152611f9781611d20565b9050919050565b60006020820190508181036000830152611fb781611d43565b9050919050565b60006020820190508181036000830152611fd781611d66565b9050919050565b60006020820190508181036000830152611ff781611d89565b9050919050565b6000602082019050818103600083015261201781611dac565b9050919050565b6000602082019050818103600083015261203781611dcf565b9050919050565b6000602082019050818103600083015261205781611df2565b9050919050565b6000602082019050818103600083015261207781611e15565b9050919050565b6000602082019050818103600083015261209781611e38565b9050919050565b600060208201905081810360008301526120b781611e5b565b9050919050565b600060208201905081810360008301526120d781611e7e565b9050919050565b60006020820190506120f36000830184611edf565b92915050565b600060208201905061210e6000830184611eee565b92915050565b6000819050602082019050919050565b6000819050602082019050919050565b600081519050919050565b600081519050919050565b600081519050919050565b6000602082019050919050565b6000602082019050919050565b600082825260208201905092915050565b600082825260208201905092915050565b600082825260208201905092915050565b60006121ad8261226a565b91506121b88361226a565b9250827fffffffffffffffffffffffffffffffffffffffffffffffffffffffffffffffff038211156121ed576121ec61232f565b5b828201905092915050565b60006122038261226a565b915061220e8361226a565b9250828210156122215761222061232f565b5b828203905092915050565b60006122378261224a565b9050919050565b60008115159050919050565b600073ffffffffffffffffffffffffffffffffffffffff82169050919050565b6000819050919050565b600060ff82169050919050565b60005b8381101561229f578082015181840152602081019050612284565b838111156122ae576000848401525b50505050565b600060028204905060018216806122cc57607f821691505b602082108114156122e0576122df61235e565b5b50919050565b60006122f18261226a565b91507fffffffffffffffffffffffffffffffffffffffffffffffffffffffffffffffff8214156123245761232361232f565b5b600182019050919050565b7f4e487b7100000000000000000000000000000000000000000000000000000000600052601160045260246000fd5b7f4e487b7100000000000000000000000000000000000000000000000000000000600052602260045260246000fd5b6000601f19601f8301169050919050565b7f45524332303a207472616e7366657220746f20746865207a65726f206164647260008201527f6573730000000000000000000000000000000000000000000000000000000000602082015250565b7f5368617265686f6c646572206d75737420686176652061207a65726f2062616c60008201527f616e636520666f7220746869732070726f706572747900000000000000000000602082015250565b7f50726f7065727479204944206e6f7420666f756e6420696e207468652073686160008201527f7265686f6c64657227732070726f7065727479204944206c6973740000000000602082015250565b7f45524332303a20617070726f766520746f20746865207a65726f20616464726560008201527f7373000000000000000000000000000000000000000000000000000000000000602082015250565b7f45524332303a20696e73756666696369656e7420616c6c6f77616e6365000000600082015250565b7f45524332303a207472616e7366657220616d6f756e742065786365656473206260008201527f616c616e63650000000000000000000000000000000000000000000000000000602082015250565b7f45524332303a207472616e736665722066726f6d20746865207a65726f20616460008201527f6472657373000000000000000000000000000000000000000000000000000000602082015250565b7f45524332303a20617070726f76652066726f6d20746865207a65726f2061646460008201527f7265737300000000000000000000000000000000000000000000000000000000602082015250565b7f5368617265686f6c646572206e6f7420666f756e6420696e207468652070726f60008201527f7065727479207368617265686f6c64657273206c697374000000000000000000602082015250565b7f45524332303a2064656372656173656420616c6c6f77616e63652062656c6f7760008201527f207a65726f000000000000000000000000000000000000000000000000000000602082015250565b7f45524332303a206d696e7420746f20746865207a65726f206164647265737300600082015250565b6126c08161222c565b81146126cb57600080fd5b50565b6126d78161226a565b81146126e257600080fd5b5056fea264697066735822122070263a29b3be6d0c352ebb748214cd6e4458a1f670ee10392ee5910cff19621c64736f6c63430008030033",
  "linkReferences": {},
  "deployedLinkReferences": {}
}