{
  "_format": "hh-sol-artifact-1",
  "contractName": "SharesTokenManager",
  "sourceName": "contracts/SharesTokenManager.sol",
  "abi": [
    {
      "inputs": [
        {
          "internalType": "address",
          "name": "_propertyTokenFactory",
          "type": "address"
        },
        {
          "internalType": "address",
          "name": "_sharesTokenAddress",
          "type": "address"
        }
      ],
      "stateMutability": "nonpayable",
      "type": "constructor"
    },
    {
      "anonymous": false,
      "inputs": [
        {
          "indexed": true,
          "internalType": "address",
          "name": "previousOwner",
          "type": "address"
        },
        {
          "indexed": true,
          "internalType": "address",
          "name": "newOwner",
          "type": "address"
        }
      ],
      "name": "OwnershipTransferred",
      "type": "event"
    },
    {
      "inputs": [
        {
          "internalType": "address payable",
          "name": "from",
          "type": "address"
        },
        {
          "internalType": "uint256",
          "name": "sharesAmount",
          "type": "uint256"
        },
        {
          "internalType": "uint256",
          "name": "propertyTokenId",
          "type": "uint256"
        }
      ],
      "name": "buyShares",
      "outputs": [],
      "stateMutability": "payable",
      "type": "function"
    },
    {
      "inputs": [
        {
          "internalType": "uint256",
          "name": "propertyTokenId",
          "type": "uint256"
        }
      ],
      "name": "getSharePrice",
      "outputs": [
        {
          "internalType": "uint256",
          "name": "",
          "type": "uint256"
        }
      ],
      "stateMutability": "view",
      "type": "function"
    },
    {
      "inputs": [],
      "name": "owner",
      "outputs": [
        {
          "internalType": "address",
          "name": "",
          "type": "address"
        }
      ],
      "stateMutability": "view",
      "type": "function"
    },
    {
      "inputs": [],
      "name": "propertyTokenFactory",
      "outputs": [
        {
          "internalType": "contract PropertyTokenFactory",
          "name": "",
          "type": "address"
        }
      ],
      "stateMutability": "view",
      "type": "function"
    },
    {
      "inputs": [],
      "name": "renounceOwnership",
      "outputs": [],
      "stateMutability": "nonpayable",
      "type": "function"
    },
    {
      "inputs": [],
      "name": "sharesToken",
      "outputs": [
        {
          "internalType": "contract RealEstateShareToken",
          "name": "",
          "type": "address"
        }
      ],
      "stateMutability": "view",
      "type": "function"
    },
    {
      "inputs": [
        {
          "internalType": "address",
          "name": "newOwner",
          "type": "address"
        }
      ],
      "name": "transferOwnership",
      "outputs": [],
      "stateMutability": "nonpayable",
      "type": "function"
    },
    {
      "inputs": [
        {
          "internalType": "uint256",
          "name": "propertyId",
          "type": "uint256"
        },
        {
          "internalType": "address",
          "name": "sender",
          "type": "address"
        },
        {
          "internalType": "address",
          "name": "recipient",
          "type": "address"
        },
        {
          "internalType": "uint256",
          "name": "amount",
          "type": "uint256"
        }
      ],
      "name": "transferShares",
      "outputs": [],
      "stateMutability": "nonpayable",
      "type": "function"
    }
  ],
  "bytecode": "0x60806040523480156200001157600080fd5b5060405162001247380380620012478339818101604052810190620000379190620001c4565b620000576200004b620000e160201b60201c565b620000e960201b60201c565b81600160006101000a81548173ffffffffffffffffffffffffffffffffffffffff021916908373ffffffffffffffffffffffffffffffffffffffff16021790555080600260006101000a81548173ffffffffffffffffffffffffffffffffffffffff021916908373ffffffffffffffffffffffffffffffffffffffff160217905550505062000253565b600033905090565b60008060009054906101000a900473ffffffffffffffffffffffffffffffffffffffff169050816000806101000a81548173ffffffffffffffffffffffffffffffffffffffff021916908373ffffffffffffffffffffffffffffffffffffffff1602179055508173ffffffffffffffffffffffffffffffffffffffff168173ffffffffffffffffffffffffffffffffffffffff167f8be0079c531659141344cd1fd0a4f28419497f9722a3daafe3b4186f6b6457e060405160405180910390a35050565b600081519050620001be8162000239565b92915050565b60008060408385031215620001d857600080fd5b6000620001e885828601620001ad565b9250506020620001fb85828601620001ad565b9150509250929050565b6000620002128262000219565b9050919050565b600073ffffffffffffffffffffffffffffffffffffffff82169050919050565b620002448162000205565b81146200025057600080fd5b50565b610fe480620002636000396000f3fe60806040526004361061007b5760003560e01c80638da5cb5b1161004e5780638da5cb5b14610109578063bca7d4e114610134578063bf7ffd8514610171578063f2fde38b1461019a5761007b565b806317f6922214610080578063715018a61461009c578063740a03d9146100b35780638009ba1f146100de575b600080fd5b61009a600480360381019061009591906108cd565b6101c3565b005b3480156100a857600080fd5b506100b161027d565b005b3480156100bf57600080fd5b506100c8610291565b6040516100d59190610acc565b60405180910390f35b3480156100ea57600080fd5b506100f36102b7565b6040516101009190610ae7565b60405180910390f35b34801561011557600080fd5b5061011e6102dd565b60405161012b9190610ab1565b60405180910390f35b34801561014057600080fd5b5061015b6004803603810190610156919061095d565b610306565b6040516101689190610b82565b60405180910390f35b34801561017d57600080fd5b5061019860048036038101906101939190610986565b61041e565b005b3480156101a657600080fd5b506101c160048036038101906101bc91906108a4565b6104b7565b005b60006101ce82610306565b9050600083826101de9190610c7a565b905080341015610223576040517f08c379a000000000000000000000000000000000000000000000000000000000815260040161021a90610b22565b60405180910390fd5b8473ffffffffffffffffffffffffffffffffffffffff166108fc829081150290604051600060405180830381858888f19350505050158015610269573d6000803e3d6000fd5b506102768386338761041e565b5050505050565b61028561053b565b61028f60006105b9565b565b600160009054906101000a900473ffffffffffffffffffffffffffffffffffffffff1681565b600260009054906101000a900473ffffffffffffffffffffffffffffffffffffffff1681565b60008060009054906101000a900473ffffffffffffffffffffffffffffffffffffffff16905090565b600080600160009054906101000a900473ffffffffffffffffffffffffffffffffffffffff1673ffffffffffffffffffffffffffffffffffffffff166332665ffb846040518263ffffffff1660e01b81526004016103649190610b82565b60006040518083038186803b15801561037c57600080fd5b505afa158015610390573d6000803e3d6000fd5b505050506040513d6000823e3d601f19601f820116820180604052508101906103b9919061091c565b905060008160a0015111610402576040517f08c379a00000000000000000000000000000000000000000000000000000000081526004016103f990610b62565b60405180910390fd5b8060a0015181608001516104169190610c49565b915050919050565b600260009054906101000a900473ffffffffffffffffffffffffffffffffffffffff1673ffffffffffffffffffffffffffffffffffffffff16638b441aa2858585856040518563ffffffff1660e01b815260040161047f9493929190610b9d565b600060405180830381600087803b15801561049957600080fd5b505af11580156104ad573d6000803e3d6000fd5b5050505050505050565b6104bf61053b565b600073ffffffffffffffffffffffffffffffffffffffff168173ffffffffffffffffffffffffffffffffffffffff16141561052f576040517f08c379a000000000000000000000000000000000000000000000000000000000815260040161052690610b02565b60405180910390fd5b610538816105b9565b50565b61054361067d565b73ffffffffffffffffffffffffffffffffffffffff166105616102dd565b73ffffffffffffffffffffffffffffffffffffffff16146105b7576040517f08c379a00000000000000000000000000000000000000000000000000000000081526004016105ae90610b42565b60405180910390fd5b565b60008060009054906101000a900473ffffffffffffffffffffffffffffffffffffffff169050816000806101000a81548173ffffffffffffffffffffffffffffffffffffffff021916908373ffffffffffffffffffffffffffffffffffffffff1602179055508173ffffffffffffffffffffffffffffffffffffffff168173ffffffffffffffffffffffffffffffffffffffff167f8be0079c531659141344cd1fd0a4f28419497f9722a3daafe3b4186f6b6457e060405160405180910390a35050565b600033905090565b600061069861069384610c07565b610be2565b9050828152602081018484840111156106b057600080fd5b6106bb848285610d76565b509392505050565b6000813590506106d281610f42565b92915050565b6000815190506106e781610f42565b92915050565b6000813590506106fc81610f59565b92915050565b60008151905061071181610f70565b92915050565b60008151905061072681610f87565b92915050565b600082601f83011261073d57600080fd5b815161074d848260208601610685565b91505092915050565b6000610120828403121561076957600080fd5b610774610120610be2565b905060006107848482850161088f565b600083015250602082015167ffffffffffffffff8111156107a457600080fd5b6107b08482850161072c565b602083015250604082015167ffffffffffffffff8111156107d057600080fd5b6107dc8482850161072c565b604083015250606082015167ffffffffffffffff8111156107fc57600080fd5b6108088482850161072c565b606083015250608061081c8482850161088f565b60808301525060a06108308482850161088f565b60a08301525060c061084484828501610717565b60c08301525060e061085884828501610702565b60e08301525061010061086d848285016106d8565b6101008301525092915050565b60008135905061088981610f97565b92915050565b60008151905061089e81610f97565b92915050565b6000602082840312156108b657600080fd5b60006108c4848285016106c3565b91505092915050565b6000806000606084860312156108e257600080fd5b60006108f0868287016106ed565b93505060206109018682870161087a565b92505060406109128682870161087a565b9150509250925092565b60006020828403121561092e57600080fd5b600082015167ffffffffffffffff81111561094857600080fd5b61095484828501610756565b91505092915050565b60006020828403121561096f57600080fd5b600061097d8482850161087a565b91505092915050565b6000806000806080858703121561099c57600080fd5b60006109aa8782880161087a565b94505060206109bb878288016106c3565b93505060406109cc878288016106c3565b92505060606109dd8782880161087a565b91505092959194509250565b6109f281610cd4565b82525050565b610a0181610d2e565b82525050565b610a1081610d52565b82525050565b6000610a23602683610c38565b9150610a2e82610e78565b604082019050919050565b6000610a46601483610c38565b9150610a5182610ec7565b602082019050919050565b6000610a69602083610c38565b9150610a7482610ef0565b602082019050919050565b6000610a8c601283610c38565b9150610a9782610f19565b602082019050919050565b610aab81610d24565b82525050565b6000602082019050610ac660008301846109e9565b92915050565b6000602082019050610ae160008301846109f8565b92915050565b6000602082019050610afc6000830184610a07565b92915050565b60006020820190508181036000830152610b1b81610a16565b9050919050565b60006020820190508181036000830152610b3b81610a39565b9050919050565b60006020820190508181036000830152610b5b81610a5c565b9050919050565b60006020820190508181036000830152610b7b81610a7f565b9050919050565b6000602082019050610b976000830184610aa2565b92915050565b6000608082019050610bb26000830187610aa2565b610bbf60208301866109e9565b610bcc60408301856109e9565b610bd96060830184610aa2565b95945050505050565b6000610bec610bfd565b9050610bf88282610da9565b919050565b6000604051905090565b600067ffffffffffffffff821115610c2257610c21610e38565b5b610c2b82610e67565b9050602081019050919050565b600082825260208201905092915050565b6000610c5482610d24565b9150610c5f83610d24565b925082610c6f57610c6e610e09565b5b828204905092915050565b6000610c8582610d24565b9150610c9083610d24565b9250817fffffffffffffffffffffffffffffffffffffffffffffffffffffffffffffffff0483118215151615610cc957610cc8610dda565b5b828202905092915050565b6000610cdf82610d04565b9050919050565b6000610cf182610d04565b9050919050565b60008115159050919050565b600073ffffffffffffffffffffffffffffffffffffffff82169050919050565b6000819050919050565b6000610d3982610d40565b9050919050565b6000610d4b82610d04565b9050919050565b6000610d5d82610d64565b9050919050565b6000610d6f82610d04565b9050919050565b60005b83811015610d94578082015181840152602081019050610d79565b83811115610da3576000848401525b50505050565b610db282610e67565b810181811067ffffffffffffffff82111715610dd157610dd0610e38565b5b80604052505050565b7f4e487b7100000000000000000000000000000000000000000000000000000000600052601160045260246000fd5b7f4e487b7100000000000000000000000000000000000000000000000000000000600052601260045260246000fd5b7f4e487b7100000000000000000000000000000000000000000000000000000000600052604160045260246000fd5b6000601f19601f8301169050919050565b7f4f776e61626c653a206e6577206f776e657220697320746865207a65726f206160008201527f6464726573730000000000000000000000000000000000000000000000000000602082015250565b7f496e73756666696369656e74207061796d656e74000000000000000000000000600082015250565b7f4f776e61626c653a2063616c6c6572206973206e6f7420746865206f776e6572600082015250565b7f50726f7065727479206e6f7420666f756e640000000000000000000000000000600082015250565b610f4b81610cd4565b8114610f5657600080fd5b50565b610f6281610ce6565b8114610f6d57600080fd5b50565b610f7981610cf8565b8114610f8457600080fd5b50565b60048110610f9457600080fd5b50565b610fa081610d24565b8114610fab57600080fd5b5056fea2646970667358221220bdbf535bc5641898a78eb553d6fc7131d7e561567e686bc6d99942f3aaa5703864736f6c63430008030033",
  "linkReferences": {},
  "deployedLinkReferences": {}
}