{
  "_format": "hh-sol-artifact-1",
  "contractName": "PropertyTokenFactory",
  "sourceName": "contracts/PropertyTokenFactory.sol",
  "abi": [
    {
      "inputs": [
        {
          "internalType": "string",
          "name": "name",
          "type": "string"
        },
        {
          "internalType": "string",
          "name": "symbol",
          "type": "string"
        },
        {
          "internalType": "address",
          "name": "_sharesTokenAddress",
          "type": "address"
        }
      ],
      "stateMutability": "nonpayable",
      "type": "constructor"
    },
    {
      "anonymous": false,
      "inputs": [
        {
          "indexed": true,
          "internalType": "address",
          "name": "owner",
          "type": "address"
        },
        {
          "indexed": true,
          "internalType": "address",
          "name": "approved",
          "type": "address"
        },
        {
          "indexed": true,
          "internalType": "uint256",
          "name": "tokenId",
          "type": "uint256"
        }
      ],
      "name": "Approval",
      "type": "event"
    },
    {
      "anonymous": false,
      "inputs": [
        {
          "indexed": true,
          "internalType": "address",
          "name": "owner",
          "type": "address"
        },
        {
          "indexed": true,
          "internalType": "address",
          "name": "operator",
          "type": "address"
        },
        {
          "indexed": false,
          "internalType": "bool",
          "name": "approved",
          "type": "bool"
        }
      ],
      "name": "ApprovalForAll",
      "type": "event"
    },
    {
      "anonymous": false,
      "inputs": [
        {
          "indexed": true,
          "internalType": "address",
          "name": "previousOwner",
          "type": "address"
        },
        {
          "indexed": true,
          "internalType": "address",
          "name": "newOwner",
          "type": "address"
        }
      ],
      "name": "OwnershipTransferred",
      "type": "event"
    },
    {
      "anonymous": false,
      "inputs": [
        {
          "indexed": false,
          "internalType": "uint256",
          "name": "propertyId",
          "type": "uint256"
        }
      ],
      "name": "PropertyTokenCreated",
      "type": "event"
    },
    {
      "anonymous": false,
      "inputs": [
        {
          "indexed": true,
          "internalType": "address",
          "name": "from",
          "type": "address"
        },
        {
          "indexed": true,
          "internalType": "address",
          "name": "to",
          "type": "address"
        },
        {
          "indexed": true,
          "internalType": "uint256",
          "name": "tokenId",
          "type": "uint256"
        }
      ],
      "name": "Transfer",
      "type": "event"
    },
    {
      "inputs": [
        {
          "internalType": "address",
          "name": "to",
          "type": "address"
        },
        {
          "internalType": "uint256",
          "name": "tokenId",
          "type": "uint256"
        }
      ],
      "name": "approve",
      "outputs": [],
      "stateMutability": "nonpayable",
      "type": "function"
    },
    {
      "inputs": [
        {
          "internalType": "uint256",
          "name": "_requestId",
          "type": "uint256"
        }
      ],
      "name": "approvePropertyRequest",
      "outputs": [],
      "stateMutability": "nonpayable",
      "type": "function"
    },
    {
      "inputs": [
        {
          "internalType": "uint256",
          "name": "_requestId",
          "type": "uint256"
        }
      ],
      "name": "approveRequest",
      "outputs": [],
      "stateMutability": "nonpayable",
      "type": "function"
    },
    {
      "inputs": [
        {
          "internalType": "address",
          "name": "owner",
          "type": "address"
        }
      ],
      "name": "balanceOf",
      "outputs": [
        {
          "internalType": "uint256",
          "name": "",
          "type": "uint256"
        }
      ],
      "stateMutability": "view",
      "type": "function"
    },
    {
      "inputs": [
        {
          "components": [
            {
              "internalType": "uint256",
              "name": "id",
              "type": "uint256"
            },
            {
              "internalType": "string",
              "name": "name",
              "type": "string"
            },
            {
              "internalType": "string",
              "name": "description",
              "type": "string"
            },
            {
              "internalType": "string",
              "name": "location",
              "type": "string"
            },
            {
              "internalType": "uint256",
              "name": "totalValue",
              "type": "uint256"
            },
            {
              "internalType": "uint256",
              "name": "shares",
              "type": "uint256"
            },
            {
              "internalType": "enum PropertyLib.RequestStatus",
              "name": "status",
              "type": "uint8"
            },
            {
              "internalType": "bool",
              "name": "isAvailableForTrade",
              "type": "bool"
            },
            {
              "internalType": "address",
              "name": "requestOwner",
              "type": "address"
            }
          ],
          "internalType": "struct PropertyLib.Property",
          "name": "request",
          "type": "tuple"
        }
      ],
      "name": "createPropertyToken",
      "outputs": [],
      "stateMutability": "nonpayable",
      "type": "function"
    },
    {
      "inputs": [],
      "name": "getAllRequestedProperties",
      "outputs": [
        {
          "components": [
            {
              "internalType": "uint256",
              "name": "id",
              "type": "uint256"
            },
            {
              "internalType": "string",
              "name": "name",
              "type": "string"
            },
            {
              "internalType": "string",
              "name": "description",
              "type": "string"
            },
            {
              "internalType": "string",
              "name": "location",
              "type": "string"
            },
            {
              "internalType": "uint256",
              "name": "totalValue",
              "type": "uint256"
            },
            {
              "internalType": "uint256",
              "name": "shares",
              "type": "uint256"
            },
            {
              "internalType": "enum PropertyLib.RequestStatus",
              "name": "status",
              "type": "uint8"
            },
            {
              "internalType": "bool",
              "name": "isAvailableForTrade",
              "type": "bool"
            },
            {
              "internalType": "address",
              "name": "requestOwner",
              "type": "address"
            }
          ],
          "internalType": "struct PropertyLib.Property[]",
          "name": "",
          "type": "tuple[]"
        }
      ],
      "stateMutability": "view",
      "type": "function"
    },
    {
      "inputs": [
        {
          "internalType": "uint256",
          "name": "tokenId",
          "type": "uint256"
        }
      ],
      "name": "getApproved",
      "outputs": [
        {
          "internalType": "address",
          "name": "",
          "type": "address"
        }
      ],
      "stateMutability": "view",
      "type": "function"
    },
    {
      "inputs": [
        {
          "internalType": "uint256",
          "name": "propertyId",
          "type": "uint256"
        }
      ],
      "name": "getProperty",
      "outputs": [
        {
          "components": [
            {
              "internalType": "uint256",
              "name": "id",
              "type": "uint256"
            },
            {
              "internalType": "string",
              "name": "name",
              "type": "string"
            },
            {
              "internalType": "string",
              "name": "description",
              "type": "string"
            },
            {
              "internalType": "string",
              "name": "location",
              "type": "string"
            },
            {
              "internalType": "uint256",
              "name": "totalValue",
              "type": "uint256"
            },
            {
              "internalType": "uint256",
              "name": "shares",
              "type": "uint256"
            },
            {
              "internalType": "enum PropertyLib.RequestStatus",
              "name": "status",
              "type": "uint8"
            },
            {
              "internalType": "bool",
              "name": "isAvailableForTrade",
              "type": "bool"
            },
            {
              "internalType": "address",
              "name": "requestOwner",
              "type": "address"
            }
          ],
          "internalType": "struct PropertyLib.Property",
          "name": "",
          "type": "tuple"
        }
      ],
      "stateMutability": "view",
      "type": "function"
    },
    {
      "inputs": [
        {
          "internalType": "uint256",
          "name": "_requestId",
          "type": "uint256"
        }
      ],
      "name": "getPropertyRequest",
      "outputs": [
        {
          "components": [
            {
              "internalType": "uint256",
              "name": "id",
              "type": "uint256"
            },
            {
              "internalType": "string",
              "name": "name",
              "type": "string"
            },
            {
              "internalType": "string",
              "name": "description",
              "type": "string"
            },
            {
              "internalType": "string",
              "name": "location",
              "type": "string"
            },
            {
              "internalType": "uint256",
              "name": "totalValue",
              "type": "uint256"
            },
            {
              "internalType": "uint256",
              "name": "shares",
              "type": "uint256"
            },
            {
              "internalType": "enum PropertyLib.RequestStatus",
              "name": "status",
              "type": "uint8"
            },
            {
              "internalType": "bool",
              "name": "isAvailableForTrade",
              "type": "bool"
            },
            {
              "internalType": "address",
              "name": "requestOwner",
              "type": "address"
            }
          ],
          "internalType": "struct PropertyLib.Property",
          "name": "",
          "type": "tuple"
        }
      ],
      "stateMutability": "view",
      "type": "function"
    },
    {
      "inputs": [
        {
          "internalType": "uint256",
          "name": "propertyId",
          "type": "uint256"
        },
        {
          "internalType": "address",
          "name": "account",
          "type": "address"
        }
      ],
      "name": "getPropertyShares",
      "outputs": [
        {
          "internalType": "uint256",
          "name": "",
          "type": "uint256"
        }
      ],
      "stateMutability": "view",
      "type": "function"
    },
    {
      "inputs": [
        {
          "internalType": "address",
          "name": "user",
          "type": "address"
        }
      ],
      "name": "getUserPropertys",
      "outputs": [
        {
          "components": [
            {
              "internalType": "uint256",
              "name": "id",
              "type": "uint256"
            },
            {
              "internalType": "string",
              "name": "name",
              "type": "string"
            },
            {
              "internalType": "string",
              "name": "description",
              "type": "string"
            },
            {
              "internalType": "string",
              "name": "location",
              "type": "string"
            },
            {
              "internalType": "uint256",
              "name": "totalValue",
              "type": "uint256"
            },
            {
              "internalType": "uint256",
              "name": "shares",
              "type": "uint256"
            },
            {
              "internalType": "enum PropertyLib.RequestStatus",
              "name": "status",
              "type": "uint8"
            },
            {
              "internalType": "bool",
              "name": "isAvailableForTrade",
              "type": "bool"
            },
            {
              "internalType": "address",
              "name": "requestOwner",
              "type": "address"
            }
          ],
          "internalType": "struct PropertyLib.Property[]",
          "name": "",
          "type": "tuple[]"
        }
      ],
      "stateMutability": "view",
      "type": "function"
    },
    {
      "inputs": [
        {
          "internalType": "address",
          "name": "owner",
          "type": "address"
        },
        {
          "internalType": "address",
          "name": "operator",
          "type": "address"
        }
      ],
      "name": "isApprovedForAll",
      "outputs": [
        {
          "internalType": "bool",
          "name": "",
          "type": "bool"
        }
      ],
      "stateMutability": "view",
      "type": "function"
    },
    {
      "inputs": [],
      "name": "name",
      "outputs": [
        {
          "internalType": "string",
          "name": "",
          "type": "string"
        }
      ],
      "stateMutability": "view",
      "type": "function"
    },
    {
      "inputs": [],
      "name": "owner",
      "outputs": [
        {
          "internalType": "address",
          "name": "",
          "type": "address"
        }
      ],
      "stateMutability": "view",
      "type": "function"
    },
    {
      "inputs": [
        {
          "internalType": "uint256",
          "name": "tokenId",
          "type": "uint256"
        }
      ],
      "name": "ownerOf",
      "outputs": [
        {
          "internalType": "address",
          "name": "",
          "type": "address"
        }
      ],
      "stateMutability": "view",
      "type": "function"
    },
    {
      "inputs": [
        {
          "internalType": "uint256",
          "name": "",
          "type": "uint256"
        }
      ],
      "name": "propertyMap",
      "outputs": [
        {
          "internalType": "uint256",
          "name": "id",
          "type": "uint256"
        },
        {
          "internalType": "string",
          "name": "name",
          "type": "string"
        },
        {
          "internalType": "string",
          "name": "description",
          "type": "string"
        },
        {
          "internalType": "string",
          "name": "location",
          "type": "string"
        },
        {
          "internalType": "uint256",
          "name": "totalValue",
          "type": "uint256"
        },
        {
          "internalType": "uint256",
          "name": "shares",
          "type": "uint256"
        },
        {
          "internalType": "enum PropertyLib.RequestStatus",
          "name": "status",
          "type": "uint8"
        },
        {
          "internalType": "bool",
          "name": "isAvailableForTrade",
          "type": "bool"
        },
        {
          "internalType": "address",
          "name": "requestOwner",
          "type": "address"
        }
      ],
      "stateMutability": "view",
      "type": "function"
    },
    {
      "inputs": [],
      "name": "propertyRequestCount",
      "outputs": [
        {
          "internalType": "uint256",
          "name": "",
          "type": "uint256"
        }
      ],
      "stateMutability": "view",
      "type": "function"
    },
    {
      "inputs": [
        {
          "internalType": "uint256",
          "name": "_requestId",
          "type": "uint256"
        }
      ],
      "name": "rejectPropertyRequest",
      "outputs": [],
      "stateMutability": "nonpayable",
      "type": "function"
    },
    {
      "inputs": [
        {
          "internalType": "uint256",
          "name": "_requestId",
          "type": "uint256"
        }
      ],
      "name": "rejectRequest",
      "outputs": [],
      "stateMutability": "nonpayable",
      "type": "function"
    },
    {
      "inputs": [],
      "name": "renounceOwnership",
      "outputs": [],
      "stateMutability": "nonpayable",
      "type": "function"
    },
    {
      "inputs": [
        {
          "internalType": "string",
          "name": "_name",
          "type": "string"
        },
        {
          "internalType": "string",
          "name": "_description",
          "type": "string"
        },
        {
          "internalType": "string",
          "name": "_location",
          "type": "string"
        },
        {
          "internalType": "uint256",
          "name": "_totalValue",
          "type": "uint256"
        },
        {
          "internalType": "uint256",
          "name": "_shares",
          "type": "uint256"
        }
      ],
      "name": "requestProperty",
      "outputs": [],
      "stateMutability": "nonpayable",
      "type": "function"
    },
    {
      "inputs": [
        {
          "internalType": "address",
          "name": "from",
          "type": "address"
        },
        {
          "internalType": "address",
          "name": "to",
          "type": "address"
        },
        {
          "internalType": "uint256",
          "name": "tokenId",
          "type": "uint256"
        }
      ],
      "name": "safeTransferFrom",
      "outputs": [],
      "stateMutability": "nonpayable",
      "type": "function"
    },
    {
      "inputs": [
        {
          "internalType": "address",
          "name": "from",
          "type": "address"
        },
        {
          "internalType": "address",
          "name": "to",
          "type": "address"
        },
        {
          "internalType": "uint256",
          "name": "tokenId",
          "type": "uint256"
        },
        {
          "internalType": "bytes",
          "name": "data",
          "type": "bytes"
        }
      ],
      "name": "safeTransferFrom",
      "outputs": [],
      "stateMutability": "nonpayable",
      "type": "function"
    },
    {
      "inputs": [
        {
          "internalType": "address",
          "name": "operator",
          "type": "address"
        },
        {
          "internalType": "bool",
          "name": "approved",
          "type": "bool"
        }
      ],
      "name": "setApprovalForAll",
      "outputs": [],
      "stateMutability": "nonpayable",
      "type": "function"
    },
    {
      "inputs": [],
      "name": "sharesToken",
      "outputs": [
        {
          "internalType": "contract RealEstateShareToken",
          "name": "",
          "type": "address"
        }
      ],
      "stateMutability": "view",
      "type": "function"
    },
    {
      "inputs": [
        {
          "internalType": "bytes4",
          "name": "interfaceId",
          "type": "bytes4"
        }
      ],
      "name": "supportsInterface",
      "outputs": [
        {
          "internalType": "bool",
          "name": "",
          "type": "bool"
        }
      ],
      "stateMutability": "view",
      "type": "function"
    },
    {
      "inputs": [],
      "name": "symbol",
      "outputs": [
        {
          "internalType": "string",
          "name": "",
          "type": "string"
        }
      ],
      "stateMutability": "view",
      "type": "function"
    },
    {
      "inputs": [
        {
          "internalType": "uint256",
          "name": "propertyId",
          "type": "uint256"
        },
        {
          "internalType": "bool",
          "name": "isAvailable",
          "type": "bool"
        }
      ],
      "name": "toggleAvailability",
      "outputs": [],
      "stateMutability": "nonpayable",
      "type": "function"
    },
    {
      "inputs": [
        {
          "internalType": "uint256",
          "name": "tokenId",
          "type": "uint256"
        }
      ],
      "name": "tokenURI",
      "outputs": [
        {
          "internalType": "string",
          "name": "",
          "type": "string"
        }
      ],
      "stateMutability": "view",
      "type": "function"
    },
    {
      "inputs": [
        {
          "internalType": "address",
          "name": "from",
          "type": "address"
        },
        {
          "internalType": "address",
          "name": "to",
          "type": "address"
        },
        {
          "internalType": "uint256",
          "name": "tokenId",
          "type": "uint256"
        }
      ],
      "name": "transferFrom",
      "outputs": [],
      "stateMutability": "nonpayable",
      "type": "function"
    },
    {
      "inputs": [
        {
          "internalType": "address",
          "name": "newOwner",
          "type": "address"
        }
      ],
      "name": "transferOwnership",
      "outputs": [],
      "stateMutability": "nonpayable",
      "type": "function"
    }
  ],
  "bytecode": "0x60806040523480156200001157600080fd5b5060405162005eb538038062005eb58339818101604052810190620000379190620002dc565b8282620000596200004d620000d760201b60201c565b620000df60201b60201c565b816005908051906020019062000071929190620001a3565b5080600690805190602001906200008a929190620001a3565b50505080600b60006101000a81548173ffffffffffffffffffffffffffffffffffffffff021916908373ffffffffffffffffffffffffffffffffffffffff16021790555050505062000522565b600033905090565b60008060009054906101000a900473ffffffffffffffffffffffffffffffffffffffff169050816000806101000a81548173ffffffffffffffffffffffffffffffffffffffff021916908373ffffffffffffffffffffffffffffffffffffffff1602179055508173ffffffffffffffffffffffffffffffffffffffff168173ffffffffffffffffffffffffffffffffffffffff167f8be0079c531659141344cd1fd0a4f28419497f9722a3daafe3b4186f6b6457e060405160405180910390a35050565b828054620001b1906200042d565b90600052602060002090601f016020900481019282620001d5576000855562000221565b82601f10620001f057805160ff191683800117855562000221565b8280016001018555821562000221579182015b828111156200022057825182559160200191906001019062000203565b5b50905062000230919062000234565b5090565b5b808211156200024f57600081600090555060010162000235565b5090565b60006200026a62000264846200038d565b62000364565b9050828152602081018484840111156200028357600080fd5b62000290848285620003f7565b509392505050565b600081519050620002a98162000508565b92915050565b600082601f830112620002c157600080fd5b8151620002d384826020860162000253565b91505092915050565b600080600060608486031215620002f257600080fd5b600084015167ffffffffffffffff8111156200030d57600080fd5b6200031b86828701620002af565b935050602084015167ffffffffffffffff8111156200033957600080fd5b6200034786828701620002af565b92505060406200035a8682870162000298565b9150509250925092565b60006200037062000383565b90506200037e828262000463565b919050565b6000604051905090565b600067ffffffffffffffff821115620003ab57620003aa620004c8565b5b620003b682620004f7565b9050602081019050919050565b6000620003d082620003d7565b9050919050565b600073ffffffffffffffffffffffffffffffffffffffff82169050919050565b60005b8381101562000417578082015181840152602081019050620003fa565b8381111562000427576000848401525b50505050565b600060028204905060018216806200044657607f821691505b602082108114156200045d576200045c62000499565b5b50919050565b6200046e82620004f7565b810181811067ffffffffffffffff8211171562000490576200048f620004c8565b5b80604052505050565b7f4e487b7100000000000000000000000000000000000000000000000000000000600052602260045260246000fd5b7f4e487b7100000000000000000000000000000000000000000000000000000000600052604160045260246000fd5b6000601f19601f8301169050919050565b6200051381620003c3565b81146200051f57600080fd5b50565b61598380620005326000396000f3fe608060405234801561001057600080fd5b50600436106101e55760003560e01c80638009ba1f1161010f578063c87b56dd116100a2578063f02b421b11610071578063f02b421b146105ba578063f2fde38b146105d6578063f5836c47146105f2578063f94f6ac21461060e576101e5565b8063c87b56dd14610520578063ca8f621d14610550578063d7d1bbdb1461056e578063e985e9c51461058a576101e5565b806392d0c0b7116100de57806392d0c0b7146104ae57806395d89b41146104ca578063a22cb465146104e8578063b88d4fde14610504576101e5565b80638009ba1f1461041257806385e04604146104305780638a5025a7146104605780638da5cb5b14610490576101e5565b80632d7788db1161018757806361348d0d1161015657806361348d0d1461038c5780636352211e146103a857806370a08231146103d8578063715018a614610408576101e5565b80632d7788db146102ec57806332665ffb1461030857806342842e0e146103385780635ddb1d6714610354576101e5565b8063095ea7b3116101c3578063095ea7b3146102685780631112fccc146102845780631aa84782146102a057806323b872dd146102d0576101e5565b806301ffc9a7146101ea57806306fdde031461021a578063081812fc14610238575b600080fd5b61020460048036038101906101ff91906143d2565b61062c565b6040516102119190614cc6565b60405180910390f35b61022261070e565b60405161022f9190614cfc565b60405180910390f35b610252600480360381019061024d9190614524565b6107a0565b60405161025f9190614c3d565b60405180910390f35b610282600480360381019061027d9190614396565b6107e6565b005b61029e600480360381019061029991906145b2565b6108fe565b005b6102ba60048036038101906102b5919061422b565b610938565b6040516102c79190614ca4565b60405180910390f35b6102ea60048036038101906102e59190614290565b610da4565b005b61030660048036038101906103019190614524565b610e04565b005b610322600480360381019061031d9190614524565b611065565b60405161032f9190614f7e565b60405180910390f35b610352600480360381019061034d9190614290565b61135f565b005b61036e60048036038101906103699190614524565b61137f565b60405161038399989796959493929190614fe4565b60405180910390f35b6103a660048036038101906103a191906144e3565b61159f565b005b6103c260048036038101906103bd9190614524565b611815565b6040516103cf9190614c3d565b60405180910390f35b6103f260048036038101906103ed919061422b565b61189c565b6040516103ff9190614fa0565b60405180910390f35b610410611954565b005b61041a611968565b6040516104279190614ce1565b60405180910390f35b61044a60048036038101906104459190614524565b61198e565b6040516104579190614f7e565b60405180910390f35b61047a60048036038101906104759190614576565b611c88565b6040516104879190614fa0565b60405180910390f35b610498611d3f565b6040516104a59190614c3d565b60405180910390f35b6104c860048036038101906104c39190614524565b611d68565b005b6104d2611d7c565b6040516104df9190614cfc565b60405180910390f35b61050260048036038101906104fd919061435a565b611e0e565b005b61051e600480360381019061051991906142df565b611e24565b005b61053a60048036038101906105359190614524565b611e86565b6040516105479190614cfc565b60405180910390f35b610558611eee565b6040516105659190614fa0565b60405180910390f35b61058860048036038101906105839190614524565b611ef4565b005b6105a4600480360381019061059f9190614254565b6123bb565b6040516105b19190614cc6565b60405180910390f35b6105d460048036038101906105cf9190614424565b61244f565b005b6105f060048036038101906105eb919061422b565b61281e565b005b61060c60048036038101906106079190614524565b6128a2565b005b6106166128b6565b6040516106239190614ca4565b60405180910390f35b60007f80ac58cd000000000000000000000000000000000000000000000000000000007bffffffffffffffffffffffffffffffffffffffffffffffffffffffff1916827bffffffffffffffffffffffffffffffffffffffffffffffffffffffff191614806106f757507f5b5e139f000000000000000000000000000000000000000000000000000000007bffffffffffffffffffffffffffffffffffffffffffffffffffffffff1916827bffffffffffffffffffffffffffffffffffffffffffffffffffffffff1916145b80610707575061070682612be2565b5b9050919050565b60606005805461071d906152cd565b80601f0160208091040260200160405190810160405280929190818152602001828054610749906152cd565b80156107965780601f1061076b57610100808354040283529160200191610796565b820191906000526020600020905b81548152906001019060200180831161077957829003601f168201915b5050505050905090565b60006107ab82612c4c565b6009600083815260200190815260200160002060009054906101000a900473ffffffffffffffffffffffffffffffffffffffff169050919050565b60006107f182611815565b90508073ffffffffffffffffffffffffffffffffffffffff168373ffffffffffffffffffffffffffffffffffffffff161415610862576040517f08c379a000000000000000000000000000000000000000000000000000000000815260040161085990614efe565b60405180910390fd5b8073ffffffffffffffffffffffffffffffffffffffff16610881612c97565b73ffffffffffffffffffffffffffffffffffffffff1614806108b057506108af816108aa612c97565b6123bb565b5b6108ef576040517f08c379a00000000000000000000000000000000000000000000000000000000081526004016108e690614f1e565b60405180910390fd5b6108f98383612c9f565b505050565b610906612d58565b806001600084815260200190815260200160002060060160016101000a81548160ff0219169083151502179055505050565b60606000600460008473ffffffffffffffffffffffffffffffffffffffff1673ffffffffffffffffffffffffffffffffffffffff16815260200190815260200160002090506000818054905067ffffffffffffffff8111156109c3577f4e487b7100000000000000000000000000000000000000000000000000000000600052604160045260246000fd5b6040519080825280602002602001820160405280156109fc57816020015b6109e9613d98565b8152602001906001900390816109e15790505b50905060005b8280549050811015610d99576000838281548110610a49577f4e487b7100000000000000000000000000000000000000000000000000000000600052603260045260246000fd5b90600052602060002001549050600160008281526020019081526020016000206040518061012001604052908160008201548152602001600182018054610a8f906152cd565b80601f0160208091040260200160405190810160405280929190818152602001828054610abb906152cd565b8015610b085780601f10610add57610100808354040283529160200191610b08565b820191906000526020600020905b815481529060010190602001808311610aeb57829003601f168201915b50505050508152602001600282018054610b21906152cd565b80601f0160208091040260200160405190810160405280929190818152602001828054610b4d906152cd565b8015610b9a5780601f10610b6f57610100808354040283529160200191610b9a565b820191906000526020600020905b815481529060010190602001808311610b7d57829003601f168201915b50505050508152602001600382018054610bb3906152cd565b80601f0160208091040260200160405190810160405280929190818152602001828054610bdf906152cd565b8015610c2c5780601f10610c0157610100808354040283529160200191610c2c565b820191906000526020600020905b815481529060010190602001808311610c0f57829003601f168201915b5050505050815260200160048201548152602001600582015481526020016006820160009054906101000a900460ff166003811115610c94577f4e487b7100000000000000000000000000000000000000000000000000000000600052602160045260246000fd5b6003811115610ccc577f4e487b7100000000000000000000000000000000000000000000000000000000600052602160045260246000fd5b81526020016006820160019054906101000a900460ff161515151581526020016006820160029054906101000a900473ffffffffffffffffffffffffffffffffffffffff1673ffffffffffffffffffffffffffffffffffffffff1673ffffffffffffffffffffffffffffffffffffffff1681525050838381518110610d7a577f4e487b7100000000000000000000000000000000000000000000000000000000600052603260045260246000fd5b6020026020010181905250508080610d9190615330565b915050610a02565b508092505050919050565b610db5610daf612c97565b82612dd6565b610df4576040517f08c379a0000000000000000000000000000000000000000000000000000000008152600401610deb90614d1e565b60405180910390fd5b610dff838383612e6b565b505050565b610e0c612d58565b60006003811115610e46577f4e487b7100000000000000000000000000000000000000000000000000000000600052602160045260246000fd5b6001600083815260200190815260200160002060060160009054906101000a900460ff166003811115610ea2577f4e487b7100000000000000000000000000000000000000000000000000000000600052602160045260246000fd5b14610ee2576040517f08c379a0000000000000000000000000000000000000000000000000000000008152600401610ed990614f5e565b60405180910390fd5b60036001600083815260200190815260200160002060060160006101000a81548160ff02191690836003811115610f42577f4e487b7100000000000000000000000000000000000000000000000000000000600052602160045260246000fd5b02179055506000805b600280549050811015610fc6578260028281548110610f93577f4e487b7100000000000000000000000000000000000000000000000000000000600052603260045260246000fd5b9060005260206000209060070201600001541415610fb357809150610fc6565b8080610fbe90615330565b915050610f4b565b50600360028281548110611003577f4e487b7100000000000000000000000000000000000000000000000000000000600052603260045260246000fd5b906000526020600020906007020160060160006101000a81548160ff0219169083600381111561105c577f4e487b7100000000000000000000000000000000000000000000000000000000600052602160045260246000fd5b02179055505050565b61106d613d98565b6001600083815260200190815260200160002060405180610120016040529081600082015481526020016001820180546110a6906152cd565b80601f01602080910402602001604051908101604052809291908181526020018280546110d2906152cd565b801561111f5780601f106110f45761010080835404028352916020019161111f565b820191906000526020600020905b81548152906001019060200180831161110257829003601f168201915b50505050508152602001600282018054611138906152cd565b80601f0160208091040260200160405190810160405280929190818152602001828054611164906152cd565b80156111b15780601f10611186576101008083540402835291602001916111b1565b820191906000526020600020905b81548152906001019060200180831161119457829003601f168201915b505050505081526020016003820180546111ca906152cd565b80601f01602080910402602001604051908101604052809291908181526020018280546111f6906152cd565b80156112435780601f1061121857610100808354040283529160200191611243565b820191906000526020600020905b81548152906001019060200180831161122657829003601f168201915b5050505050815260200160048201548152602001600582015481526020016006820160009054906101000a900460ff1660038111156112ab577f4e487b7100000000000000000000000000000000000000000000000000000000600052602160045260246000fd5b60038111156112e3577f4e487b7100000000000000000000000000000000000000000000000000000000600052602160045260246000fd5b81526020016006820160019054906101000a900460ff161515151581526020016006820160029054906101000a900473ffffffffffffffffffffffffffffffffffffffff1673ffffffffffffffffffffffffffffffffffffffff1673ffffffffffffffffffffffffffffffffffffffff16815250509050919050565b61137a83838360405180602001604052806000815250611e24565b505050565b60016020528060005260406000206000915090508060000154908060010180546113a8906152cd565b80601f01602080910402602001604051908101604052809291908181526020018280546113d4906152cd565b80156114215780601f106113f657610100808354040283529160200191611421565b820191906000526020600020905b81548152906001019060200180831161140457829003601f168201915b505050505090806002018054611436906152cd565b80601f0160208091040260200160405190810160405280929190818152602001828054611462906152cd565b80156114af5780601f10611484576101008083540402835291602001916114af565b820191906000526020600020905b81548152906001019060200180831161149257829003601f168201915b5050505050908060030180546114c4906152cd565b80601f01602080910402602001604051908101604052809291908181526020018280546114f0906152cd565b801561153d5780601f106115125761010080835404028352916020019161153d565b820191906000526020600020905b81548152906001019060200180831161152057829003601f168201915b5050505050908060040154908060050154908060060160009054906101000a900460ff16908060060160019054906101000a900460ff16908060060160029054906101000a900473ffffffffffffffffffffffffffffffffffffffff16905089565b6115c081602001518260400151836060015184608001518560a00151613165565b6115d56115cb611d3f565b82600001516132be565b600060405180610120016040528083600001518152602001836020015181526020018360400151815260200183606001518152602001836080015181526020018360a00151815260200160026003811115611659577f4e487b7100000000000000000000000000000000000000000000000000000000600052602160045260246000fd5b815260200160001515815260200183610100015173ffffffffffffffffffffffffffffffffffffffff1681525090508060016000846000015181526020019081526020016000206000820151816000015560208201518160010190805190602001906116c6929190613e34565b5060408201518160020190805190602001906116e3929190613e34565b506060820151816003019080519060200190611700929190613e34565b506080820151816004015560a0820151816005015560c08201518160060160006101000a81548160ff02191690836003811115611766577f4e487b7100000000000000000000000000000000000000000000000000000000600052602160045260246000fd5b021790555060e08201518160060160016101000a81548160ff0219169083151502179055506101008201518160060160026101000a81548173ffffffffffffffffffffffffffffffffffffffff021916908373ffffffffffffffffffffffffffffffffffffffff1602179055509050507f0a0bffff74ea4f2336f9bcec356ba68b067615ce2fd0a7fd75b64dd4d298dd7e82600001516040516118099190614fa0565b60405180910390a15050565b600080611821836132dc565b9050600073ffffffffffffffffffffffffffffffffffffffff168173ffffffffffffffffffffffffffffffffffffffff161415611893576040517f08c379a000000000000000000000000000000000000000000000000000000000815260040161188a90614ede565b60405180910390fd5b80915050919050565b60008073ffffffffffffffffffffffffffffffffffffffff168273ffffffffffffffffffffffffffffffffffffffff16141561190d576040517f08c379a000000000000000000000000000000000000000000000000000000000815260040161190490614e5e565b60405180910390fd5b600860008373ffffffffffffffffffffffffffffffffffffffff1673ffffffffffffffffffffffffffffffffffffffff168152602001908152602001600020549050919050565b61195c612d58565b6119666000613319565b565b600b60009054906101000a900473ffffffffffffffffffffffffffffffffffffffff1681565b611996613d98565b6001600083815260200190815260200160002060405180610120016040529081600082015481526020016001820180546119cf906152cd565b80601f01602080910402602001604051908101604052809291908181526020018280546119fb906152cd565b8015611a485780601f10611a1d57610100808354040283529160200191611a48565b820191906000526020600020905b815481529060010190602001808311611a2b57829003601f168201915b50505050508152602001600282018054611a61906152cd565b80601f0160208091040260200160405190810160405280929190818152602001828054611a8d906152cd565b8015611ada5780601f10611aaf57610100808354040283529160200191611ada565b820191906000526020600020905b815481529060010190602001808311611abd57829003601f168201915b50505050508152602001600382018054611af3906152cd565b80601f0160208091040260200160405190810160405280929190818152602001828054611b1f906152cd565b8015611b6c5780601f10611b4157610100808354040283529160200191611b6c565b820191906000526020600020905b815481529060010190602001808311611b4f57829003601f168201915b5050505050815260200160048201548152602001600582015481526020016006820160009054906101000a900460ff166003811115611bd4577f4e487b7100000000000000000000000000000000000000000000000000000000600052602160045260246000fd5b6003811115611c0c577f4e487b7100000000000000000000000000000000000000000000000000000000600052602160045260246000fd5b81526020016006820160019054906101000a900460ff161515151581526020016006820160029054906101000a900473ffffffffffffffffffffffffffffffffffffffff1673ffffffffffffffffffffffffffffffffffffffff1673ffffffffffffffffffffffffffffffffffffffff16815250509050919050565b6000600b60009054906101000a900473ffffffffffffffffffffffffffffffffffffffff1673ffffffffffffffffffffffffffffffffffffffff1663a9378ff384846040518363ffffffff1660e01b8152600401611ce7929190614fbb565b60206040518083038186803b158015611cff57600080fd5b505afa158015611d13573d6000803e3d6000fd5b505050506040513d601f19601f82011682018060405250810190611d37919061454d565b905092915050565b60008060009054906101000a900473ffffffffffffffffffffffffffffffffffffffff16905090565b611d70612d58565b611d7981610e04565b50565b606060068054611d8b906152cd565b80601f0160208091040260200160405190810160405280929190818152602001828054611db7906152cd565b8015611e045780601f10611dd957610100808354040283529160200191611e04565b820191906000526020600020905b815481529060010190602001808311611de757829003601f168201915b5050505050905090565b611e20611e19612c97565b83836133dd565b5050565b611e35611e2f612c97565b83612dd6565b611e74576040517f08c379a0000000000000000000000000000000000000000000000000000000008152600401611e6b90614d1e565b60405180910390fd5b611e808484848461354a565b50505050565b6060611e9182612c4c565b6000611e9b6135a6565b90506000815111611ebb5760405180602001604052806000815250611ee6565b80611ec5846135bd565b604051602001611ed6929190614c19565b6040516020818303038152906040525b915050919050565b60035481565b611efc612d58565b60006003811115611f36577f4e487b7100000000000000000000000000000000000000000000000000000000600052602160045260246000fd5b6001600083815260200190815260200160002060060160009054906101000a900460ff166003811115611f92577f4e487b7100000000000000000000000000000000000000000000000000000000600052602160045260246000fd5b14611fd2576040517f08c379a0000000000000000000000000000000000000000000000000000000008152600401611fc990614f5e565b60405180910390fd5b600180600083815260200190815260200160002060060160006101000a81548160ff02191690836003811115612031577f4e487b7100000000000000000000000000000000000000000000000000000000600052602160045260246000fd5b02179055506000805b6002805490508110156120b5578260028281548110612082577f4e487b7100000000000000000000000000000000000000000000000000000000600052603260045260246000fd5b90600052602060002090600702016000015414156120a2578091506120b5565b80806120ad90615330565b91505061203a565b50600260016002805490506120ca919061519a565b81548110612101577f4e487b7100000000000000000000000000000000000000000000000000000000600052603260045260246000fd5b906000526020600020906007020160028281548110612149577f4e487b7100000000000000000000000000000000000000000000000000000000600052603260045260246000fd5b9060005260206000209060070201600082015481600001556001820181600101908054612175906152cd565b612180929190613eba565b506002820181600201908054612195906152cd565b6121a0929190613eba565b5060038201816003019080546121b5906152cd565b6121c0929190613eba565b5060048201548160040155600582015481600501556006820160009054906101000a900460ff168160060160006101000a81548160ff02191690836003811115612233577f4e487b7100000000000000000000000000000000000000000000000000000000600052602160045260246000fd5b02179055506006820160019054906101000a900460ff168160060160016101000a81548160ff0219169083151502179055506006820160029054906101000a900473ffffffffffffffffffffffffffffffffffffffff168160060160026101000a81548173ffffffffffffffffffffffffffffffffffffffff021916908373ffffffffffffffffffffffffffffffffffffffff1602179055509050506002805480612307577f4e487b7100000000000000000000000000000000000000000000000000000000600052603160045260246000fd5b60019003818190600052602060002090600702016000808201600090556001820160006123349190613f47565b6002820160006123449190613f47565b6003820160006123549190613f47565b600482016000905560058201600090556006820160006101000a81549060ff02191690556006820160016101000a81549060ff02191690556006820160026101000a81549073ffffffffffffffffffffffffffffffffffffffff0219169055505090555050565b6000600a60008473ffffffffffffffffffffffffffffffffffffffff1673ffffffffffffffffffffffffffffffffffffffff16815260200190815260200160002060008373ffffffffffffffffffffffffffffffffffffffff1673ffffffffffffffffffffffffffffffffffffffff16815260200190815260200160002060009054906101000a900460ff16905092915050565b6003600081548092919061246290615330565b9190505550600060035490506000604051806101200160405280838152602001888152602001878152602001868152602001858152602001848152602001600060038111156124da577f4e487b7100000000000000000000000000000000000000000000000000000000600052602160045260246000fd5b81526020016000151581526020013373ffffffffffffffffffffffffffffffffffffffff168152509050806001600084815260200190815260200160002060008201518160000155602082015181600101908051906020019061253e929190613e34565b50604082015181600201908051906020019061255b929190613e34565b506060820151816003019080519060200190612578929190613e34565b506080820151816004015560a0820151816005015560c08201518160060160006101000a81548160ff021916908360038111156125de577f4e487b7100000000000000000000000000000000000000000000000000000000600052602160045260246000fd5b021790555060e08201518160060160016101000a81548160ff0219169083151502179055506101008201518160060160026101000a81548173ffffffffffffffffffffffffffffffffffffffff021916908373ffffffffffffffffffffffffffffffffffffffff160217905550905050600460003373ffffffffffffffffffffffffffffffffffffffff1673ffffffffffffffffffffffffffffffffffffffff1681526020019081526020016000208290806001815401808255809150506001900390600052602060002001600090919091909150556002819080600181540180825580915050600190039060005260206000209060070201600090919091909150600082015181600001556020820151816001019080519060200190612706929190613e34565b506040820151816002019080519060200190612723929190613e34565b506060820151816003019080519060200190612740929190613e34565b506080820151816004015560a0820151816005015560c08201518160060160006101000a81548160ff021916908360038111156127a6577f4e487b7100000000000000000000000000000000000000000000000000000000600052602160045260246000fd5b021790555060e08201518160060160016101000a81548160ff0219169083151502179055506101008201518160060160026101000a81548173ffffffffffffffffffffffffffffffffffffffff021916908373ffffffffffffffffffffffffffffffffffffffff160217905550505050505050505050565b612826612d58565b600073ffffffffffffffffffffffffffffffffffffffff168173ffffffffffffffffffffffffffffffffffffffff161415612896576040517f08c379a000000000000000000000000000000000000000000000000000000000815260040161288d90614d7e565b60405180910390fd5b61289f81613319565b50565b6128aa612d58565b6128b381611ef4565b50565b60606002805480602002602001604051908101604052809291908181526020016000905b82821015612bd957838290600052602060002090600702016040518061012001604052908160008201548152602001600182018054612918906152cd565b80601f0160208091040260200160405190810160405280929190818152602001828054612944906152cd565b80156129915780601f1061296657610100808354040283529160200191612991565b820191906000526020600020905b81548152906001019060200180831161297457829003601f168201915b505050505081526020016002820180546129aa906152cd565b80601f01602080910402602001604051908101604052809291908181526020018280546129d6906152cd565b8015612a235780601f106129f857610100808354040283529160200191612a23565b820191906000526020600020905b815481529060010190602001808311612a0657829003601f168201915b50505050508152602001600382018054612a3c906152cd565b80601f0160208091040260200160405190810160405280929190818152602001828054612a68906152cd565b8015612ab55780601f10612a8a57610100808354040283529160200191612ab5565b820191906000526020600020905b815481529060010190602001808311612a9857829003601f168201915b5050505050815260200160048201548152602001600582015481526020016006820160009054906101000a900460ff166003811115612b1d577f4e487b7100000000000000000000000000000000000000000000000000000000600052602160045260246000fd5b6003811115612b55577f4e487b7100000000000000000000000000000000000000000000000000000000600052602160045260246000fd5b81526020016006820160019054906101000a900460ff161515151581526020016006820160029054906101000a900473ffffffffffffffffffffffffffffffffffffffff1673ffffffffffffffffffffffffffffffffffffffff1673ffffffffffffffffffffffffffffffffffffffff1681525050815260200190600101906128da565b50505050905090565b60007f01ffc9a7000000000000000000000000000000000000000000000000000000007bffffffffffffffffffffffffffffffffffffffffffffffffffffffff1916827bffffffffffffffffffffffffffffffffffffffffffffffffffffffff1916149050919050565b612c55816136e1565b612c94576040517f08c379a0000000000000000000000000000000000000000000000000000000008152600401612c8b90614ede565b60405180910390fd5b50565b600033905090565b816009600083815260200190815260200160002060006101000a81548173ffffffffffffffffffffffffffffffffffffffff021916908373ffffffffffffffffffffffffffffffffffffffff160217905550808273ffffffffffffffffffffffffffffffffffffffff16612d1283611815565b73ffffffffffffffffffffffffffffffffffffffff167f8c5be1e5ebec7d5bd14f71427d1e84f3dd0314c0f7b2291e5b200ac8c7c3b92560405160405180910390a45050565b612d60612c97565b73ffffffffffffffffffffffffffffffffffffffff16612d7e611d3f565b73ffffffffffffffffffffffffffffffffffffffff1614612dd4576040517f08c379a0000000000000000000000000000000000000000000000000000000008152600401612dcb90614e9e565b60405180910390fd5b565b600080612de283611815565b90508073ffffffffffffffffffffffffffffffffffffffff168473ffffffffffffffffffffffffffffffffffffffff161480612e245750612e2381856123bb565b5b80612e6257508373ffffffffffffffffffffffffffffffffffffffff16612e4a846107a0565b73ffffffffffffffffffffffffffffffffffffffff16145b91505092915050565b8273ffffffffffffffffffffffffffffffffffffffff16612e8b82611815565b73ffffffffffffffffffffffffffffffffffffffff1614612ee1576040517f08c379a0000000000000000000000000000000000000000000000000000000008152600401612ed890614d9e565b60405180910390fd5b600073ffffffffffffffffffffffffffffffffffffffff168273ffffffffffffffffffffffffffffffffffffffff161415612f51576040517f08c379a0000000000000000000000000000000000000000000000000000000008152600401612f4890614dde565b60405180910390fd5b612f5e8383836001613722565b8273ffffffffffffffffffffffffffffffffffffffff16612f7e82611815565b73ffffffffffffffffffffffffffffffffffffffff1614612fd4576040517f08c379a0000000000000000000000000000000000000000000000000000000008152600401612fcb90614d9e565b60405180910390fd5b6009600082815260200190815260200160002060006101000a81549073ffffffffffffffffffffffffffffffffffffffff02191690556001600860008573ffffffffffffffffffffffffffffffffffffffff1673ffffffffffffffffffffffffffffffffffffffff168152602001908152602001600020600082825403925050819055506001600860008473ffffffffffffffffffffffffffffffffffffffff1673ffffffffffffffffffffffffffffffffffffffff16815260200190815260200160002060008282540192505081905550816007600083815260200190815260200160002060006101000a81548173ffffffffffffffffffffffffffffffffffffffff021916908373ffffffffffffffffffffffffffffffffffffffff160217905550808273ffffffffffffffffffffffffffffffffffffffff168473ffffffffffffffffffffffffffffffffffffffff167fddf252ad1be2c89b69c2b068fc378daa952ba7f163c4a11628f55a4df523b3ef60405160405180910390a46131608383836001613728565b505050565b60008551116131a9576040517f08c379a00000000000000000000000000000000000000000000000000000000081526004016131a090614d3e565b60405180910390fd5b60008451116131ed576040517f08c379a00000000000000000000000000000000000000000000000000000000081526004016131e490614e1e565b60405180910390fd5b6000835111613231576040517f08c379a000000000000000000000000000000000000000000000000000000000815260040161322890614f3e565b60405180910390fd5b60008111613274576040517f08c379a000000000000000000000000000000000000000000000000000000000815260040161326b90614e3e565b60405180910390fd5b600082116132b7576040517f08c379a00000000000000000000000000000000000000000000000000000000081526004016132ae90614ebe565b60405180910390fd5b5050505050565b6132d882826040518060200160405280600081525061372e565b5050565b60006007600083815260200190815260200160002060009054906101000a900473ffffffffffffffffffffffffffffffffffffffff169050919050565b60008060009054906101000a900473ffffffffffffffffffffffffffffffffffffffff169050816000806101000a81548173ffffffffffffffffffffffffffffffffffffffff021916908373ffffffffffffffffffffffffffffffffffffffff1602179055508173ffffffffffffffffffffffffffffffffffffffff168173ffffffffffffffffffffffffffffffffffffffff167f8be0079c531659141344cd1fd0a4f28419497f9722a3daafe3b4186f6b6457e060405160405180910390a35050565b8173ffffffffffffffffffffffffffffffffffffffff168373ffffffffffffffffffffffffffffffffffffffff16141561344c576040517f08c379a000000000000000000000000000000000000000000000000000000000815260040161344390614dfe565b60405180910390fd5b80600a60008573ffffffffffffffffffffffffffffffffffffffff1673ffffffffffffffffffffffffffffffffffffffff16815260200190815260200160002060008473ffffffffffffffffffffffffffffffffffffffff1673ffffffffffffffffffffffffffffffffffffffff16815260200190815260200160002060006101000a81548160ff0219169083151502179055508173ffffffffffffffffffffffffffffffffffffffff168373ffffffffffffffffffffffffffffffffffffffff167f17307eab39ab6107e8899845ad3d59bd9653f200f220920489ca2b5937696c318360405161353d9190614cc6565b60405180910390a3505050565b613555848484612e6b565b61356184848484613789565b6135a0576040517f08c379a000000000000000000000000000000000000000000000000000000000815260040161359790614d5e565b60405180910390fd5b50505050565b606060405180602001604052806000815250905090565b6060600060016135cc84613920565b01905060008167ffffffffffffffff811115613611577f4e487b7100000000000000000000000000000000000000000000000000000000600052604160045260246000fd5b6040519080825280601f01601f1916602001820160405280156136435781602001600182028036833780820191505090505b509050600082602001820190505b6001156136d6578080600190039150507f3031323334353637383961626364656600000000000000000000000000000000600a86061a8153600a85816136c0577f4e487b7100000000000000000000000000000000000000000000000000000000600052601260045260246000fd5b04945060008514156136d1576136d6565b613651565b819350505050919050565b60008073ffffffffffffffffffffffffffffffffffffffff16613703836132dc565b73ffffffffffffffffffffffffffffffffffffffff1614159050919050565b50505050565b50505050565b6137388383613b57565b6137456000848484613789565b613784576040517f08c379a000000000000000000000000000000000000000000000000000000000815260040161377b90614d5e565b60405180910390fd5b505050565b60006137aa8473ffffffffffffffffffffffffffffffffffffffff16613d75565b15613913578373ffffffffffffffffffffffffffffffffffffffff1663150b7a026137d3612c97565b8786866040518563ffffffff1660e01b81526004016137f59493929190614c58565b602060405180830381600087803b15801561380f57600080fd5b505af192505050801561384057506040513d601f19601f8201168201806040525081019061383d91906143fb565b60015b6138c3573d8060008114613870576040519150601f19603f3d011682016040523d82523d6000602084013e613875565b606091505b506000815114156138bb576040517f08c379a00000000000000000000000000000000000000000000000000000000081526004016138b290614d5e565b60405180910390fd5b805181602001fd5b63150b7a0260e01b7bffffffffffffffffffffffffffffffffffffffffffffffffffffffff1916817bffffffffffffffffffffffffffffffffffffffffffffffffffffffff191614915050613918565b600190505b949350505050565b600080600090507a184f03e93ff9f4daa797ed6e38ed64bf6a1f01000000000000000083106139a4577a184f03e93ff9f4daa797ed6e38ed64bf6a1f010000000000000000838161399a577f4e487b7100000000000000000000000000000000000000000000000000000000600052601260045260246000fd5b0492506040810190505b6d04ee2d6d415b85acef81000000008310613a07576d04ee2d6d415b85acef810000000083816139fd577f4e487b7100000000000000000000000000000000000000000000000000000000600052601260045260246000fd5b0492506020810190505b662386f26fc100008310613a5c57662386f26fc100008381613a52577f4e487b7100000000000000000000000000000000000000000000000000000000600052601260045260246000fd5b0492506010810190505b6305f5e1008310613aab576305f5e1008381613aa1577f4e487b7100000000000000000000000000000000000000000000000000000000600052601260045260246000fd5b0492506008810190505b6127108310613af6576127108381613aec577f4e487b7100000000000000000000000000000000000000000000000000000000600052601260045260246000fd5b0492506004810190505b60648310613b3f5760648381613b35577f4e487b7100000000000000000000000000000000000000000000000000000000600052601260045260246000fd5b0492506002810190505b600a8310613b4e576001810190505b80915050919050565b600073ffffffffffffffffffffffffffffffffffffffff168273ffffffffffffffffffffffffffffffffffffffff161415613bc7576040517f08c379a0000000000000000000000000000000000000000000000000000000008152600401613bbe90614e7e565b60405180910390fd5b613bd0816136e1565b15613c10576040517f08c379a0000000000000000000000000000000000000000000000000000000008152600401613c0790614dbe565b60405180910390fd5b613c1e600083836001613722565b613c27816136e1565b15613c67576040517f08c379a0000000000000000000000000000000000000000000000000000000008152600401613c5e90614dbe565b60405180910390fd5b6001600860008473ffffffffffffffffffffffffffffffffffffffff1673ffffffffffffffffffffffffffffffffffffffff16815260200190815260200160002060008282540192505081905550816007600083815260200190815260200160002060006101000a81548173ffffffffffffffffffffffffffffffffffffffff021916908373ffffffffffffffffffffffffffffffffffffffff160217905550808273ffffffffffffffffffffffffffffffffffffffff16600073ffffffffffffffffffffffffffffffffffffffff167fddf252ad1be2c89b69c2b068fc378daa952ba7f163c4a11628f55a4df523b3ef60405160405180910390a4613d71600083836001613728565b5050565b6000808273ffffffffffffffffffffffffffffffffffffffff163b119050919050565b60405180610120016040528060008152602001606081526020016060815260200160608152602001600081526020016000815260200160006003811115613e08577f4e487b7100000000000000000000000000000000000000000000000000000000600052602160045260246000fd5b8152602001600015158152602001600073ffffffffffffffffffffffffffffffffffffffff1681525090565b828054613e40906152cd565b90600052602060002090601f016020900481019282613e625760008555613ea9565b82601f10613e7b57805160ff1916838001178555613ea9565b82800160010185558215613ea9579182015b82811115613ea8578251825591602001919060010190613e8d565b5b509050613eb69190613f87565b5090565b828054613ec6906152cd565b90600052602060002090601f016020900481019282613ee85760008555613f36565b82601f10613ef95780548555613f36565b82800160010185558215613f3657600052602060002091601f016020900482015b82811115613f35578254825591600101919060010190613f1a565b5b509050613f439190613f87565b5090565b508054613f53906152cd565b6000825580601f10613f655750613f84565b601f016020900490600052602060002090810190613f839190613f87565b5b50565b5b80821115613fa0576000816000905550600101613f88565b5090565b6000613fb7613fb2846150ab565b615086565b905082815260208101848484011115613fcf57600080fd5b613fda84828561528b565b509392505050565b6000613ff5613ff0846150dc565b615086565b90508281526020810184848401111561400d57600080fd5b61401884828561528b565b509392505050565b60008135905061402f816158e1565b92915050565b600081359050614044816158f8565b92915050565b6000813590506140598161590f565b92915050565b60008151905061406e8161590f565b92915050565b600082601f83011261408557600080fd5b8135614095848260208601613fa4565b91505092915050565b6000813590506140ad81615926565b92915050565b600082601f8301126140c457600080fd5b81356140d4848260208601613fe2565b91505092915050565b600061012082840312156140f057600080fd5b6140fb610120615086565b9050600061410b84828501614201565b600083015250602082013567ffffffffffffffff81111561412b57600080fd5b614137848285016140b3565b602083015250604082013567ffffffffffffffff81111561415757600080fd5b614163848285016140b3565b604083015250606082013567ffffffffffffffff81111561418357600080fd5b61418f848285016140b3565b60608301525060806141a384828501614201565b60808301525060a06141b784828501614201565b60a08301525060c06141cb8482850161409e565b60c08301525060e06141df84828501614035565b60e0830152506101006141f484828501614020565b6101008301525092915050565b60008135905061421081615936565b92915050565b60008151905061422581615936565b92915050565b60006020828403121561423d57600080fd5b600061424b84828501614020565b91505092915050565b6000806040838503121561426757600080fd5b600061427585828601614020565b925050602061428685828601614020565b9150509250929050565b6000806000606084860312156142a557600080fd5b60006142b386828701614020565b93505060206142c486828701614020565b92505060406142d586828701614201565b9150509250925092565b600080600080608085870312156142f557600080fd5b600061430387828801614020565b945050602061431487828801614020565b935050604061432587828801614201565b925050606085013567ffffffffffffffff81111561434257600080fd5b61434e87828801614074565b91505092959194509250565b6000806040838503121561436d57600080fd5b600061437b85828601614020565b925050602061438c85828601614035565b9150509250929050565b600080604083850312156143a957600080fd5b60006143b785828601614020565b92505060206143c885828601614201565b9150509250929050565b6000602082840312156143e457600080fd5b60006143f28482850161404a565b91505092915050565b60006020828403121561440d57600080fd5b600061441b8482850161405f565b91505092915050565b600080600080600060a0868803121561443c57600080fd5b600086013567ffffffffffffffff81111561445657600080fd5b614462888289016140b3565b955050602086013567ffffffffffffffff81111561447f57600080fd5b61448b888289016140b3565b945050604086013567ffffffffffffffff8111156144a857600080fd5b6144b4888289016140b3565b93505060606144c588828901614201565b92505060806144d688828901614201565b9150509295509295909350565b6000602082840312156144f557600080fd5b600082013567ffffffffffffffff81111561450f57600080fd5b61451b848285016140dd565b91505092915050565b60006020828403121561453657600080fd5b600061454484828501614201565b91505092915050565b60006020828403121561455f57600080fd5b600061456d84828501614216565b91505092915050565b6000806040838503121561458957600080fd5b600061459785828601614201565b92505060206145a885828601614020565b9150509250929050565b600080604083850312156145c557600080fd5b60006145d385828601614201565b92505060206145e485828601614035565b9150509250929050565b60006145fa8383614a55565b905092915050565b61460b816151ce565b82525050565b61461a816151ce565b82525050565b600061462b8261511d565b614635818561514b565b9350836020820285016146478561510d565b8060005b85811015614683578484038952815161466485826145ee565b945061466f8361513e565b925060208a0199505060018101905061464b565b50829750879550505050505092915050565b61469e816151e0565b82525050565b6146ad816151e0565b82525050565b60006146be82615128565b6146c8818561515c565b93506146d881856020860161529a565b6146e181615435565b840191505092915050565b6146f581615255565b82525050565b61470481615279565b82525050565b61471381615279565b82525050565b600061472482615133565b61472e818561516d565b935061473e81856020860161529a565b61474781615435565b840191505092915050565b600061475d82615133565b614767818561517e565b935061477781856020860161529a565b61478081615435565b840191505092915050565b600061479682615133565b6147a0818561518f565b93506147b081856020860161529a565b80840191505092915050565b60006147c9602d8361517e565b91506147d482615446565b604082019050919050565b60006147ec60148361517e565b91506147f782615495565b602082019050919050565b600061480f60328361517e565b915061481a826154be565b604082019050919050565b600061483260268361517e565b915061483d8261550d565b604082019050919050565b600061485560258361517e565b91506148608261555c565b604082019050919050565b6000614878601c8361517e565b9150614883826155ab565b602082019050919050565b600061489b60248361517e565b91506148a6826155d4565b604082019050919050565b60006148be60198361517e565b91506148c982615623565b602082019050919050565b60006148e1601b8361517e565b91506148ec8261564c565b602082019050919050565b600061490460248361517e565b915061490f82615675565b604082019050919050565b600061492760298361517e565b9150614932826156c4565b604082019050919050565b600061494a60208361517e565b915061495582615713565b602082019050919050565b600061496d60208361517e565b91506149788261573c565b602082019050919050565b600061499060258361517e565b915061499b82615765565b604082019050919050565b60006149b360188361517e565b91506149be826157b4565b602082019050919050565b60006149d660218361517e565b91506149e1826157dd565b604082019050919050565b60006149f9603d8361517e565b9150614a048261582c565b604082019050919050565b6000614a1c60188361517e565b9150614a278261587b565b602082019050919050565b6000614a3f601f8361517e565b9150614a4a826158a4565b602082019050919050565b600061012083016000830151614a6e6000860182614bfb565b5060208301518482036020860152614a868282614719565b91505060408301518482036040860152614aa08282614719565b91505060608301518482036060860152614aba8282614719565b9150506080830151614acf6080860182614bfb565b5060a0830151614ae260a0860182614bfb565b5060c0830151614af560c08601826146fb565b5060e0830151614b0860e0860182614695565b50610100830151614b1d610100860182614602565b508091505092915050565b600061012083016000830151614b416000860182614bfb565b5060208301518482036020860152614b598282614719565b91505060408301518482036040860152614b738282614719565b91505060608301518482036060860152614b8d8282614719565b9150506080830151614ba26080860182614bfb565b5060a0830151614bb560a0860182614bfb565b5060c0830151614bc860c08601826146fb565b5060e0830151614bdb60e0860182614695565b50610100830151614bf0610100860182614602565b508091505092915050565b614c048161524b565b82525050565b614c138161524b565b82525050565b6000614c25828561478b565b9150614c31828461478b565b91508190509392505050565b6000602082019050614c526000830184614611565b92915050565b6000608082019050614c6d6000830187614611565b614c7a6020830186614611565b614c876040830185614c0a565b8181036060830152614c9981846146b3565b905095945050505050565b60006020820190508181036000830152614cbe8184614620565b905092915050565b6000602082019050614cdb60008301846146a4565b92915050565b6000602082019050614cf660008301846146ec565b92915050565b60006020820190508181036000830152614d168184614752565b905092915050565b60006020820190508181036000830152614d37816147bc565b9050919050565b60006020820190508181036000830152614d57816147df565b9050919050565b60006020820190508181036000830152614d7781614802565b9050919050565b60006020820190508181036000830152614d9781614825565b9050919050565b60006020820190508181036000830152614db781614848565b9050919050565b60006020820190508181036000830152614dd78161486b565b9050919050565b60006020820190508181036000830152614df78161488e565b9050919050565b60006020820190508181036000830152614e17816148b1565b9050919050565b60006020820190508181036000830152614e37816148d4565b9050919050565b60006020820190508181036000830152614e57816148f7565b9050919050565b60006020820190508181036000830152614e778161491a565b9050919050565b60006020820190508181036000830152614e978161493d565b9050919050565b60006020820190508181036000830152614eb781614960565b9050919050565b60006020820190508181036000830152614ed781614983565b9050919050565b60006020820190508181036000830152614ef7816149a6565b9050919050565b60006020820190508181036000830152614f17816149c9565b9050919050565b60006020820190508181036000830152614f37816149ec565b9050919050565b60006020820190508181036000830152614f5781614a0f565b9050919050565b60006020820190508181036000830152614f7781614a32565b9050919050565b60006020820190508181036000830152614f988184614b28565b905092915050565b6000602082019050614fb56000830184614c0a565b92915050565b6000604082019050614fd06000830185614c0a565b614fdd6020830184614611565b9392505050565b600061012082019050614ffa600083018c614c0a565b818103602083015261500c818b614752565b90508181036040830152615020818a614752565b905081810360608301526150348189614752565b90506150436080830188614c0a565b61505060a0830187614c0a565b61505d60c083018661470a565b61506a60e08301856146a4565b615078610100830184614611565b9a9950505050505050505050565b60006150906150a1565b905061509c82826152ff565b919050565b6000604051905090565b600067ffffffffffffffff8211156150c6576150c5615406565b5b6150cf82615435565b9050602081019050919050565b600067ffffffffffffffff8211156150f7576150f6615406565b5b61510082615435565b9050602081019050919050565b6000819050602082019050919050565b600081519050919050565b600081519050919050565b600081519050919050565b6000602082019050919050565b600082825260208201905092915050565b600082825260208201905092915050565b600082825260208201905092915050565b600082825260208201905092915050565b600081905092915050565b60006151a58261524b565b91506151b08361524b565b9250828210156151c3576151c2615379565b5b828203905092915050565b60006151d98261522b565b9050919050565b60008115159050919050565b60007fffffffff0000000000000000000000000000000000000000000000000000000082169050919050565b6000819050615226826158cd565b919050565b600073ffffffffffffffffffffffffffffffffffffffff82169050919050565b6000819050919050565b600061526082615267565b9050919050565b60006152728261522b565b9050919050565b600061528482615218565b9050919050565b82818337600083830152505050565b60005b838110156152b857808201518184015260208101905061529d565b838111156152c7576000848401525b50505050565b600060028204905060018216806152e557607f821691505b602082108114156152f9576152f86153d7565b5b50919050565b61530882615435565b810181811067ffffffffffffffff8211171561532757615326615406565b5b80604052505050565b600061533b8261524b565b91507fffffffffffffffffffffffffffffffffffffffffffffffffffffffffffffffff82141561536e5761536d615379565b5b600182019050919050565b7f4e487b7100000000000000000000000000000000000000000000000000000000600052601160045260246000fd5b7f4e487b7100000000000000000000000000000000000000000000000000000000600052602160045260246000fd5b7f4e487b7100000000000000000000000000000000000000000000000000000000600052602260045260246000fd5b7f4e487b7100000000000000000000000000000000000000000000000000000000600052604160045260246000fd5b6000601f19601f8301169050919050565b7f4552433732313a2063616c6c6572206973206e6f7420746f6b656e206f776e6560008201527f72206f7220617070726f76656400000000000000000000000000000000000000602082015250565b7f4e616d652063616e6e6f7420626520656d707479000000000000000000000000600082015250565b7f4552433732313a207472616e7366657220746f206e6f6e20455243373231526560008201527f63656976657220696d706c656d656e7465720000000000000000000000000000602082015250565b7f4f776e61626c653a206e6577206f776e657220697320746865207a65726f206160008201527f6464726573730000000000000000000000000000000000000000000000000000602082015250565b7f4552433732313a207472616e736665722066726f6d20696e636f72726563742060008201527f6f776e6572000000000000000000000000000000000000000000000000000000602082015250565b7f4552433732313a20746f6b656e20616c7265616479206d696e74656400000000600082015250565b7f4552433732313a207472616e7366657220746f20746865207a65726f2061646460008201527f7265737300000000000000000000000000000000000000000000000000000000602082015250565b7f4552433732313a20617070726f766520746f2063616c6c657200000000000000600082015250565b7f4465736372697074696f6e2063616e6e6f7420626520656d7074790000000000600082015250565b7f53686172657320616d6f756e74206d757374206265206772656174657220746860008201527f616e203000000000000000000000000000000000000000000000000000000000602082015250565b7f4552433732313a2061646472657373207a65726f206973206e6f74206120766160008201527f6c6964206f776e65720000000000000000000000000000000000000000000000602082015250565b7f4552433732313a206d696e7420746f20746865207a65726f2061646472657373600082015250565b7f4f776e61626c653a2063616c6c6572206973206e6f7420746865206f776e6572600082015250565b7f50726f70657274792056616c7565206d7573742062652067726561746572207460008201527f68616e2030000000000000000000000000000000000000000000000000000000602082015250565b7f4552433732313a20696e76616c696420746f6b656e2049440000000000000000600082015250565b7f4552433732313a20617070726f76616c20746f2063757272656e74206f776e6560008201527f7200000000000000000000000000000000000000000000000000000000000000602082015250565b7f4552433732313a20617070726f76652063616c6c6572206973206e6f7420746f60008201527f6b656e206f776e6572206f7220617070726f76656420666f7220616c6c000000602082015250565b7f4c6f636174696f6e2063616e6e6f7420626520656d7074790000000000000000600082015250565b7f52657175657374206973206e6f742070656e64696e6720617070726f76616c00600082015250565b600481106158de576158dd6153a8565b5b50565b6158ea816151ce565b81146158f557600080fd5b50565b615901816151e0565b811461590c57600080fd5b50565b615918816151ec565b811461592357600080fd5b50565b6004811061593357600080fd5b50565b61593f8161524b565b811461594a57600080fd5b5056fea264697066735822122051cd0bd3680a1faeff1850abb1321880d86d0dc771e2cd2e347727a27606061764736f6c63430008030033",
  "linkReferences": {},
  "deployedLinkReferences": {}
}