{
  "_format": "hh-sol-artifact-1",
  "contractName": "PropertyTokenManager",
  "sourceName": "contracts/PropertyTokenManager.sol",
  "abi": [
    {
      "inputs": [
        {
          "internalType": "address",
          "name": "_sharesTokenAddress",
          "type": "address"
        },
        {
          "internalType": "address",
          "name": "_propertyTokenFactory",
          "type": "address"
        }
      ],
      "stateMutability": "nonpayable",
      "type": "constructor"
    },
    {
      "anonymous": false,
      "inputs": [
        {
          "indexed": true,
          "internalType": "address",
          "name": "previousOwner",
          "type": "address"
        },
        {
          "indexed": true,
          "internalType": "address",
          "name": "newOwner",
          "type": "address"
        }
      ],
      "name": "OwnershipTransferred",
      "type": "event"
    },
    {
      "inputs": [],
      "name": "owner",
      "outputs": [
        {
          "internalType": "address",
          "name": "",
          "type": "address"
        }
      ],
      "stateMutability": "view",
      "type": "function"
    },
    {
      "inputs": [
        {
          "internalType": "uint256",
          "name": "_requestId",
          "type": "uint256"
        }
      ],
      "name": "payForShares",
      "outputs": [],
      "stateMutability": "payable",
      "type": "function"
    },
    {
      "inputs": [],
      "name": "propertyTokenFactory",
      "outputs": [
        {
          "internalType": "contract PropertyTokenFactory",
          "name": "",
          "type": "address"
        }
      ],
      "stateMutability": "view",
      "type": "function"
    },
    {
      "inputs": [],
      "name": "renounceOwnership",
      "outputs": [],
      "stateMutability": "nonpayable",
      "type": "function"
    },
    {
      "inputs": [],
      "name": "sharesToken",
      "outputs": [
        {
          "internalType": "contract RealEstateShareToken",
          "name": "",
          "type": "address"
        }
      ],
      "stateMutability": "view",
      "type": "function"
    },
    {
      "inputs": [
        {
          "internalType": "address",
          "name": "newOwner",
          "type": "address"
        }
      ],
      "name": "transferOwnership",
      "outputs": [],
      "stateMutability": "nonpayable",
      "type": "function"
    }
  ],
  "bytecode": "0x60806040523480156200001157600080fd5b50604051620012d6380380620012d68339818101604052810190620000379190620001c4565b620000576200004b620000e160201b60201c565b620000e960201b60201c565b81600260006101000a81548173ffffffffffffffffffffffffffffffffffffffff021916908373ffffffffffffffffffffffffffffffffffffffff16021790555080600160006101000a81548173ffffffffffffffffffffffffffffffffffffffff021916908373ffffffffffffffffffffffffffffffffffffffff160217905550505062000253565b600033905090565b60008060009054906101000a900473ffffffffffffffffffffffffffffffffffffffff169050816000806101000a81548173ffffffffffffffffffffffffffffffffffffffff021916908373ffffffffffffffffffffffffffffffffffffffff1602179055508173ffffffffffffffffffffffffffffffffffffffff168173ffffffffffffffffffffffffffffffffffffffff167f8be0079c531659141344cd1fd0a4f28419497f9722a3daafe3b4186f6b6457e060405160405180910390a35050565b600081519050620001be8162000239565b92915050565b60008060408385031215620001d857600080fd5b6000620001e885828601620001ad565b9250506020620001fb85828601620001ad565b9150509250929050565b6000620002128262000219565b9050919050565b600073ffffffffffffffffffffffffffffffffffffffff82169050919050565b620002448162000205565b81146200025057600080fd5b50565b61107380620002636000396000f3fe6080604052600436106100555760003560e01c8063715018a61461005a578063740a03d9146100715780638009ba1f1461009c5780638da5cb5b146100c7578063b3374c0e146100f2578063f2fde38b1461010e575b600080fd5b34801561006657600080fd5b5061006f610137565b005b34801561007d57600080fd5b5061008661014b565b6040516100939190610baf565b60405180910390f35b3480156100a857600080fd5b506100b1610171565b6040516100be9190610bca565b60405180910390f35b3480156100d357600080fd5b506100dc610197565b6040516100e99190610b94565b60405180910390f35b61010c6004803603810190610107919061095b565b6101c0565b005b34801561011a57600080fd5b50610135600480360381019061013091906108f1565b610519565b005b61013f61059d565b610149600061061b565b565b600160009054906101000a900473ffffffffffffffffffffffffffffffffffffffff1681565b600260009054906101000a900473ffffffffffffffffffffffffffffffffffffffff1681565b60008060009054906101000a900473ffffffffffffffffffffffffffffffffffffffff16905090565b6000600160009054906101000a900473ffffffffffffffffffffffffffffffffffffffff1673ffffffffffffffffffffffffffffffffffffffff166385e04604836040518263ffffffff1660e01b815260040161021d9190610c87565b60006040518083038186803b15801561023557600080fd5b505afa158015610249573d6000803e3d6000fd5b505050506040513d6000823e3d601f19601f82011682018060405250810190610272919061091a565b9050600160038111156102ae577f4e487b7100000000000000000000000000000000000000000000000000000000600052602160045260246000fd5b8160c0015160038111156102eb577f4e487b7100000000000000000000000000000000000000000000000000000000600052602160045260246000fd5b1461032b576040517f08c379a000000000000000000000000000000000000000000000000000000000815260040161032290610c45565b60405180910390fd5b8060800151341015610372576040517f08c379a000000000000000000000000000000000000000000000000000000000815260040161036990610c05565b60405180910390fd5b60028160c0019060038111156103b1577f4e487b7100000000000000000000000000000000000000000000000000000000600052602160045260246000fd5b908160038111156103eb577f4e487b7100000000000000000000000000000000000000000000000000000000600052602160045260246000fd5b81525050600160009054906101000a900473ffffffffffffffffffffffffffffffffffffffff1673ffffffffffffffffffffffffffffffffffffffff166361348d0d826040518263ffffffff1660e01b815260040161044a9190610c65565b600060405180830381600087803b15801561046457600080fd5b505af1158015610478573d6000803e3d6000fd5b50505050600260009054906101000a900473ffffffffffffffffffffffffffffffffffffffff1673ffffffffffffffffffffffffffffffffffffffff1663618ac8518260000151338460a001516040518463ffffffff1660e01b81526004016104e393929190610ca2565b600060405180830381600087803b1580156104fd57600080fd5b505af1158015610511573d6000803e3d6000fd5b505050505050565b61052161059d565b600073ffffffffffffffffffffffffffffffffffffffff168173ffffffffffffffffffffffffffffffffffffffff161415610591576040517f08c379a000000000000000000000000000000000000000000000000000000000815260040161058890610be5565b60405180910390fd5b61059a8161061b565b50565b6105a56106df565b73ffffffffffffffffffffffffffffffffffffffff166105c3610197565b73ffffffffffffffffffffffffffffffffffffffff1614610619576040517f08c379a000000000000000000000000000000000000000000000000000000000815260040161061090610c25565b60405180910390fd5b565b60008060009054906101000a900473ffffffffffffffffffffffffffffffffffffffff169050816000806101000a81548173ffffffffffffffffffffffffffffffffffffffff021916908373ffffffffffffffffffffffffffffffffffffffff1602179055508173ffffffffffffffffffffffffffffffffffffffff168173ffffffffffffffffffffffffffffffffffffffff167f8be0079c531659141344cd1fd0a4f28419497f9722a3daafe3b4186f6b6457e060405160405180910390a35050565b600033905090565b60006106fa6106f584610cfe565b610cd9565b90508281526020810184848401111561071257600080fd5b61071d848285610e11565b509392505050565b60008135905061073481610fe8565b92915050565b60008151905061074981610fe8565b92915050565b60008151905061075e81610fff565b92915050565b60008151905061077381611016565b92915050565b600082601f83011261078a57600080fd5b815161079a8482602086016106e7565b91505092915050565b600061012082840312156107b657600080fd5b6107c1610120610cd9565b905060006107d1848285016108dc565b600083015250602082015167ffffffffffffffff8111156107f157600080fd5b6107fd84828501610779565b602083015250604082015167ffffffffffffffff81111561081d57600080fd5b61082984828501610779565b604083015250606082015167ffffffffffffffff81111561084957600080fd5b61085584828501610779565b6060830152506080610869848285016108dc565b60808301525060a061087d848285016108dc565b60a08301525060c061089184828501610764565b60c08301525060e06108a58482850161074f565b60e0830152506101006108ba8482850161073a565b6101008301525092915050565b6000813590506108d681611026565b92915050565b6000815190506108eb81611026565b92915050565b60006020828403121561090357600080fd5b600061091184828501610725565b91505092915050565b60006020828403121561092c57600080fd5b600082015167ffffffffffffffff81111561094657600080fd5b610952848285016107a3565b91505092915050565b60006020828403121561096d57600080fd5b600061097b848285016108c7565b91505092915050565b61098d81610d5c565b82525050565b61099c81610d5c565b82525050565b6109ab81610d6e565b82525050565b6109ba81610db7565b82525050565b6109c981610ddb565b82525050565b6109d881610dff565b82525050565b60006109e982610d2f565b6109f38185610d3a565b9350610a03818560208601610e11565b610a0c81610ed3565b840191505092915050565b6000610a24602683610d4b565b9150610a2f82610ee4565b604082019050919050565b6000610a47602483610d4b565b9150610a5282610f33565b604082019050919050565b6000610a6a602083610d4b565b9150610a7582610f82565b602082019050919050565b6000610a8d601883610d4b565b9150610a9882610fab565b602082019050919050565b600061012083016000830151610abc6000860182610b76565b5060208301518482036020860152610ad482826109de565b91505060408301518482036040860152610aee82826109de565b91505060608301518482036060860152610b0882826109de565b9150506080830151610b1d6080860182610b76565b5060a0830151610b3060a0860182610b76565b5060c0830151610b4360c08601826109cf565b5060e0830151610b5660e08601826109a2565b50610100830151610b6b610100860182610984565b508091505092915050565b610b7f81610dad565b82525050565b610b8e81610dad565b82525050565b6000602082019050610ba96000830184610993565b92915050565b6000602082019050610bc460008301846109b1565b92915050565b6000602082019050610bdf60008301846109c0565b92915050565b60006020820190508181036000830152610bfe81610a17565b9050919050565b60006020820190508181036000830152610c1e81610a3a565b9050919050565b60006020820190508181036000830152610c3e81610a5d565b9050919050565b60006020820190508181036000830152610c5e81610a80565b9050919050565b60006020820190508181036000830152610c7f8184610aa3565b905092915050565b6000602082019050610c9c6000830184610b85565b92915050565b6000606082019050610cb76000830186610b85565b610cc46020830185610993565b610cd16040830184610b85565b949350505050565b6000610ce3610cf4565b9050610cef8282610e44565b919050565b6000604051905090565b600067ffffffffffffffff821115610d1957610d18610ea4565b5b610d2282610ed3565b9050602081019050919050565b600081519050919050565b600082825260208201905092915050565b600082825260208201905092915050565b6000610d6782610d8d565b9050919050565b60008115159050919050565b6000819050610d8882610fd4565b919050565b600073ffffffffffffffffffffffffffffffffffffffff82169050919050565b6000819050919050565b6000610dc282610dc9565b9050919050565b6000610dd482610d8d565b9050919050565b6000610de682610ded565b9050919050565b6000610df882610d8d565b9050919050565b6000610e0a82610d7a565b9050919050565b60005b83811015610e2f578082015181840152602081019050610e14565b83811115610e3e576000848401525b50505050565b610e4d82610ed3565b810181811067ffffffffffffffff82111715610e6c57610e6b610ea4565b5b80604052505050565b7f4e487b7100000000000000000000000000000000000000000000000000000000600052602160045260246000fd5b7f4e487b7100000000000000000000000000000000000000000000000000000000600052604160045260246000fd5b6000601f19601f8301169050919050565b7f4f776e61626c653a206e6577206f776e657220697320746865207a65726f206160008201527f6464726573730000000000000000000000000000000000000000000000000000602082015250565b7f496e73756666696369656e742066756e647320746f2070617920666f7220736860008201527f6172657300000000000000000000000000000000000000000000000000000000602082015250565b7f4f776e61626c653a2063616c6c6572206973206e6f7420746865206f776e6572600082015250565b7f52657175657374206d75737420626520617070726f7665640000000000000000600082015250565b60048110610fe557610fe4610e75565b5b50565b610ff181610d5c565b8114610ffc57600080fd5b50565b61100881610d6e565b811461101357600080fd5b50565b6004811061102357600080fd5b50565b61102f81610dad565b811461103a57600080fd5b5056fea2646970667358221220756a722b8e0d823f591dc1523bbcb65cf512a59c94115132ca3cc4a616ccb8cc64736f6c63430008030033",
  "linkReferences": {},
  "deployedLinkReferences": {}
}