{
  "_format": "hh-sol-artifact-1",
  "contractName": "PropertyTokenFactory",
  "sourceName": "contracts/PropertyTokenFactory.sol",
  "abi": [
    {
      "inputs": [
        {
          "internalType": "string",
          "name": "name",
          "type": "string"
        },
        {
          "internalType": "string",
          "name": "symbol",
          "type": "string"
        },
        {
          "internalType": "address",
          "name": "_sharesTokenAddress",
          "type": "address"
        }
      ],
      "stateMutability": "nonpayable",
      "type": "constructor"
    },
    {
      "anonymous": false,
      "inputs": [
        {
          "indexed": true,
          "internalType": "address",
          "name": "owner",
          "type": "address"
        },
        {
          "indexed": true,
          "internalType": "address",
          "name": "approved",
          "type": "address"
        },
        {
          "indexed": true,
          "internalType": "uint256",
          "name": "tokenId",
          "type": "uint256"
        }
      ],
      "name": "Approval",
      "type": "event"
    },
    {
      "anonymous": false,
      "inputs": [
        {
          "indexed": true,
          "internalType": "address",
          "name": "owner",
          "type": "address"
        },
        {
          "indexed": true,
          "internalType": "address",
          "name": "operator",
          "type": "address"
        },
        {
          "indexed": false,
          "internalType": "bool",
          "name": "approved",
          "type": "bool"
        }
      ],
      "name": "ApprovalForAll",
      "type": "event"
    },
    {
      "anonymous": false,
      "inputs": [
        {
          "indexed": true,
          "internalType": "address",
          "name": "previousOwner",
          "type": "address"
        },
        {
          "indexed": true,
          "internalType": "address",
          "name": "newOwner",
          "type": "address"
        }
      ],
      "name": "OwnershipTransferred",
      "type": "event"
    },
    {
      "anonymous": false,
      "inputs": [
        {
          "indexed": false,
          "internalType": "uint256",
          "name": "propertyId",
          "type": "uint256"
        }
      ],
      "name": "PropertyTokenCreated",
      "type": "event"
    },
    {
      "anonymous": false,
      "inputs": [
        {
          "indexed": true,
          "internalType": "address",
          "name": "from",
          "type": "address"
        },
        {
          "indexed": true,
          "internalType": "address",
          "name": "to",
          "type": "address"
        },
        {
          "indexed": true,
          "internalType": "uint256",
          "name": "tokenId",
          "type": "uint256"
        }
      ],
      "name": "Transfer",
      "type": "event"
    },
    {
      "inputs": [
        {
          "internalType": "address",
          "name": "to",
          "type": "address"
        },
        {
          "internalType": "uint256",
          "name": "tokenId",
          "type": "uint256"
        }
      ],
      "name": "approve",
      "outputs": [],
      "stateMutability": "nonpayable",
      "type": "function"
    },
    {
      "inputs": [
        {
          "internalType": "uint256",
          "name": "_requestId",
          "type": "uint256"
        }
      ],
      "name": "approvePropertyRequest",
      "outputs": [],
      "stateMutability": "nonpayable",
      "type": "function"
    },
    {
      "inputs": [
        {
          "internalType": "uint256",
          "name": "_requestId",
          "type": "uint256"
        }
      ],
      "name": "approveRequest",
      "outputs": [],
      "stateMutability": "nonpayable",
      "type": "function"
    },
    {
      "inputs": [
        {
          "internalType": "address",
          "name": "owner",
          "type": "address"
        }
      ],
      "name": "balanceOf",
      "outputs": [
        {
          "internalType": "uint256",
          "name": "",
          "type": "uint256"
        }
      ],
      "stateMutability": "view",
      "type": "function"
    },
    {
      "inputs": [
        {
          "components": [
            {
              "internalType": "uint256",
              "name": "id",
              "type": "uint256"
            },
            {
              "internalType": "string",
              "name": "name",
              "type": "string"
            },
            {
              "internalType": "string",
              "name": "description",
              "type": "string"
            },
            {
              "internalType": "string",
              "name": "location",
              "type": "string"
            },
            {
              "internalType": "uint256",
              "name": "totalValue",
              "type": "uint256"
            },
            {
              "internalType": "uint256",
              "name": "shares",
              "type": "uint256"
            },
            {
              "internalType": "enum PropertyLib.RequestStatus",
              "name": "status",
              "type": "uint8"
            },
            {
              "internalType": "bool",
              "name": "isAvailableForTrade",
              "type": "bool"
            },
            {
              "internalType": "address",
              "name": "requestOwner",
              "type": "address"
            }
          ],
          "internalType": "struct PropertyLib.Property",
          "name": "request",
          "type": "tuple"
        }
      ],
      "name": "createPropertyToken",
      "outputs": [],
      "stateMutability": "nonpayable",
      "type": "function"
    },
    {
      "inputs": [
        {
          "internalType": "uint256",
          "name": "tokenId",
          "type": "uint256"
        }
      ],
      "name": "getApproved",
      "outputs": [
        {
          "internalType": "address",
          "name": "",
          "type": "address"
        }
      ],
      "stateMutability": "view",
      "type": "function"
    },
    {
      "inputs": [
        {
          "internalType": "uint256",
          "name": "propertyId",
          "type": "uint256"
        }
      ],
      "name": "getProperty",
      "outputs": [
        {
          "components": [
            {
              "internalType": "uint256",
              "name": "id",
              "type": "uint256"
            },
            {
              "internalType": "string",
              "name": "name",
              "type": "string"
            },
            {
              "internalType": "string",
              "name": "description",
              "type": "string"
            },
            {
              "internalType": "string",
              "name": "location",
              "type": "string"
            },
            {
              "internalType": "uint256",
              "name": "totalValue",
              "type": "uint256"
            },
            {
              "internalType": "uint256",
              "name": "shares",
              "type": "uint256"
            },
            {
              "internalType": "enum PropertyLib.RequestStatus",
              "name": "status",
              "type": "uint8"
            },
            {
              "internalType": "bool",
              "name": "isAvailableForTrade",
              "type": "bool"
            },
            {
              "internalType": "address",
              "name": "requestOwner",
              "type": "address"
            }
          ],
          "internalType": "struct PropertyLib.Property",
          "name": "",
          "type": "tuple"
        }
      ],
      "stateMutability": "view",
      "type": "function"
    },
    {
      "inputs": [
        {
          "internalType": "uint256",
          "name": "_requestId",
          "type": "uint256"
        }
      ],
      "name": "getPropertyRequest",
      "outputs": [
        {
          "components": [
            {
              "internalType": "uint256",
              "name": "id",
              "type": "uint256"
            },
            {
              "internalType": "string",
              "name": "name",
              "type": "string"
            },
            {
              "internalType": "string",
              "name": "description",
              "type": "string"
            },
            {
              "internalType": "string",
              "name": "location",
              "type": "string"
            },
            {
              "internalType": "uint256",
              "name": "totalValue",
              "type": "uint256"
            },
            {
              "internalType": "uint256",
              "name": "shares",
              "type": "uint256"
            },
            {
              "internalType": "enum PropertyLib.RequestStatus",
              "name": "status",
              "type": "uint8"
            },
            {
              "internalType": "bool",
              "name": "isAvailableForTrade",
              "type": "bool"
            },
            {
              "internalType": "address",
              "name": "requestOwner",
              "type": "address"
            }
          ],
          "internalType": "struct PropertyLib.Property",
          "name": "",
          "type": "tuple"
        }
      ],
      "stateMutability": "view",
      "type": "function"
    },
    {
      "inputs": [
        {
          "internalType": "uint256",
          "name": "propertyId",
          "type": "uint256"
        },
        {
          "internalType": "address",
          "name": "account",
          "type": "address"
        }
      ],
      "name": "getPropertyShares",
      "outputs": [
        {
          "internalType": "uint256",
          "name": "",
          "type": "uint256"
        }
      ],
      "stateMutability": "view",
      "type": "function"
    },
    {
      "inputs": [
        {
          "internalType": "address",
          "name": "user",
          "type": "address"
        }
      ],
      "name": "getUserPropertys",
      "outputs": [
        {
          "components": [
            {
              "internalType": "uint256",
              "name": "id",
              "type": "uint256"
            },
            {
              "internalType": "string",
              "name": "name",
              "type": "string"
            },
            {
              "internalType": "string",
              "name": "description",
              "type": "string"
            },
            {
              "internalType": "string",
              "name": "location",
              "type": "string"
            },
            {
              "internalType": "uint256",
              "name": "totalValue",
              "type": "uint256"
            },
            {
              "internalType": "uint256",
              "name": "shares",
              "type": "uint256"
            },
            {
              "internalType": "enum PropertyLib.RequestStatus",
              "name": "status",
              "type": "uint8"
            },
            {
              "internalType": "bool",
              "name": "isAvailableForTrade",
              "type": "bool"
            },
            {
              "internalType": "address",
              "name": "requestOwner",
              "type": "address"
            }
          ],
          "internalType": "struct PropertyLib.Property[]",
          "name": "",
          "type": "tuple[]"
        }
      ],
      "stateMutability": "view",
      "type": "function"
    },
    {
      "inputs": [
        {
          "internalType": "address",
          "name": "owner",
          "type": "address"
        },
        {
          "internalType": "address",
          "name": "operator",
          "type": "address"
        }
      ],
      "name": "isApprovedForAll",
      "outputs": [
        {
          "internalType": "bool",
          "name": "",
          "type": "bool"
        }
      ],
      "stateMutability": "view",
      "type": "function"
    },
    {
      "inputs": [],
      "name": "name",
      "outputs": [
        {
          "internalType": "string",
          "name": "",
          "type": "string"
        }
      ],
      "stateMutability": "view",
      "type": "function"
    },
    {
      "inputs": [],
      "name": "owner",
      "outputs": [
        {
          "internalType": "address",
          "name": "",
          "type": "address"
        }
      ],
      "stateMutability": "view",
      "type": "function"
    },
    {
      "inputs": [
        {
          "internalType": "uint256",
          "name": "tokenId",
          "type": "uint256"
        }
      ],
      "name": "ownerOf",
      "outputs": [
        {
          "internalType": "address",
          "name": "",
          "type": "address"
        }
      ],
      "stateMutability": "view",
      "type": "function"
    },
    {
      "inputs": [],
      "name": "propertyRequestCount",
      "outputs": [
        {
          "internalType": "uint256",
          "name": "",
          "type": "uint256"
        }
      ],
      "stateMutability": "view",
      "type": "function"
    },
    {
      "inputs": [
        {
          "internalType": "uint256",
          "name": "",
          "type": "uint256"
        }
      ],
      "name": "propertyRequests",
      "outputs": [
        {
          "internalType": "uint256",
          "name": "id",
          "type": "uint256"
        },
        {
          "internalType": "string",
          "name": "name",
          "type": "string"
        },
        {
          "internalType": "string",
          "name": "description",
          "type": "string"
        },
        {
          "internalType": "string",
          "name": "location",
          "type": "string"
        },
        {
          "internalType": "uint256",
          "name": "totalValue",
          "type": "uint256"
        },
        {
          "internalType": "uint256",
          "name": "shares",
          "type": "uint256"
        },
        {
          "internalType": "enum PropertyLib.RequestStatus",
          "name": "status",
          "type": "uint8"
        },
        {
          "internalType": "bool",
          "name": "isAvailableForTrade",
          "type": "bool"
        },
        {
          "internalType": "address",
          "name": "requestOwner",
          "type": "address"
        }
      ],
      "stateMutability": "view",
      "type": "function"
    },
    {
      "inputs": [],
      "name": "renounceOwnership",
      "outputs": [],
      "stateMutability": "nonpayable",
      "type": "function"
    },
    {
      "inputs": [
        {
          "internalType": "string",
          "name": "_name",
          "type": "string"
        },
        {
          "internalType": "string",
          "name": "_description",
          "type": "string"
        },
        {
          "internalType": "string",
          "name": "_location",
          "type": "string"
        },
        {
          "internalType": "uint256",
          "name": "_totalValue",
          "type": "uint256"
        },
        {
          "internalType": "uint256",
          "name": "_shares",
          "type": "uint256"
        }
      ],
      "name": "requestProperty",
      "outputs": [],
      "stateMutability": "nonpayable",
      "type": "function"
    },
    {
      "inputs": [
        {
          "internalType": "address",
          "name": "from",
          "type": "address"
        },
        {
          "internalType": "address",
          "name": "to",
          "type": "address"
        },
        {
          "internalType": "uint256",
          "name": "tokenId",
          "type": "uint256"
        }
      ],
      "name": "safeTransferFrom",
      "outputs": [],
      "stateMutability": "nonpayable",
      "type": "function"
    },
    {
      "inputs": [
        {
          "internalType": "address",
          "name": "from",
          "type": "address"
        },
        {
          "internalType": "address",
          "name": "to",
          "type": "address"
        },
        {
          "internalType": "uint256",
          "name": "tokenId",
          "type": "uint256"
        },
        {
          "internalType": "bytes",
          "name": "data",
          "type": "bytes"
        }
      ],
      "name": "safeTransferFrom",
      "outputs": [],
      "stateMutability": "nonpayable",
      "type": "function"
    },
    {
      "inputs": [
        {
          "internalType": "address",
          "name": "operator",
          "type": "address"
        },
        {
          "internalType": "bool",
          "name": "approved",
          "type": "bool"
        }
      ],
      "name": "setApprovalForAll",
      "outputs": [],
      "stateMutability": "nonpayable",
      "type": "function"
    },
    {
      "inputs": [],
      "name": "sharesToken",
      "outputs": [
        {
          "internalType": "contract RealEstateShareToken",
          "name": "",
          "type": "address"
        }
      ],
      "stateMutability": "view",
      "type": "function"
    },
    {
      "inputs": [
        {
          "internalType": "bytes4",
          "name": "interfaceId",
          "type": "bytes4"
        }
      ],
      "name": "supportsInterface",
      "outputs": [
        {
          "internalType": "bool",
          "name": "",
          "type": "bool"
        }
      ],
      "stateMutability": "view",
      "type": "function"
    },
    {
      "inputs": [],
      "name": "symbol",
      "outputs": [
        {
          "internalType": "string",
          "name": "",
          "type": "string"
        }
      ],
      "stateMutability": "view",
      "type": "function"
    },
    {
      "inputs": [
        {
          "internalType": "uint256",
          "name": "propertyId",
          "type": "uint256"
        },
        {
          "internalType": "bool",
          "name": "isAvailable",
          "type": "bool"
        }
      ],
      "name": "toggleAvailability",
      "outputs": [],
      "stateMutability": "nonpayable",
      "type": "function"
    },
    {
      "inputs": [
        {
          "internalType": "uint256",
          "name": "tokenId",
          "type": "uint256"
        }
      ],
      "name": "tokenURI",
      "outputs": [
        {
          "internalType": "string",
          "name": "",
          "type": "string"
        }
      ],
      "stateMutability": "view",
      "type": "function"
    },
    {
      "inputs": [
        {
          "internalType": "address",
          "name": "from",
          "type": "address"
        },
        {
          "internalType": "address",
          "name": "to",
          "type": "address"
        },
        {
          "internalType": "uint256",
          "name": "tokenId",
          "type": "uint256"
        }
      ],
      "name": "transferFrom",
      "outputs": [],
      "stateMutability": "nonpayable",
      "type": "function"
    },
    {
      "inputs": [
        {
          "internalType": "address",
          "name": "newOwner",
          "type": "address"
        }
      ],
      "name": "transferOwnership",
      "outputs": [],
      "stateMutability": "nonpayable",
      "type": "function"
    }
  ],
  "bytecode": "0x60806040523480156200001157600080fd5b50604051620052b9380380620052b98339818101604052810190620000379190620002dc565b8282620000596200004d620000d760201b60201c565b620000df60201b60201c565b816004908051906020019062000071929190620001a3565b5080600590805190602001906200008a929190620001a3565b50505080600a60006101000a81548173ffffffffffffffffffffffffffffffffffffffff021916908373ffffffffffffffffffffffffffffffffffffffff16021790555050505062000522565b600033905090565b60008060009054906101000a900473ffffffffffffffffffffffffffffffffffffffff169050816000806101000a81548173ffffffffffffffffffffffffffffffffffffffff021916908373ffffffffffffffffffffffffffffffffffffffff1602179055508173ffffffffffffffffffffffffffffffffffffffff168173ffffffffffffffffffffffffffffffffffffffff167f8be0079c531659141344cd1fd0a4f28419497f9722a3daafe3b4186f6b6457e060405160405180910390a35050565b828054620001b1906200042d565b90600052602060002090601f016020900481019282620001d5576000855562000221565b82601f10620001f057805160ff191683800117855562000221565b8280016001018555821562000221579182015b828111156200022057825182559160200191906001019062000203565b5b50905062000230919062000234565b5090565b5b808211156200024f57600081600090555060010162000235565b5090565b60006200026a62000264846200038d565b62000364565b9050828152602081018484840111156200028357600080fd5b62000290848285620003f7565b509392505050565b600081519050620002a98162000508565b92915050565b600082601f830112620002c157600080fd5b8151620002d384826020860162000253565b91505092915050565b600080600060608486031215620002f257600080fd5b600084015167ffffffffffffffff8111156200030d57600080fd5b6200031b86828701620002af565b935050602084015167ffffffffffffffff8111156200033957600080fd5b6200034786828701620002af565b92505060406200035a8682870162000298565b9150509250925092565b60006200037062000383565b90506200037e828262000463565b919050565b6000604051905090565b600067ffffffffffffffff821115620003ab57620003aa620004c8565b5b620003b682620004f7565b9050602081019050919050565b6000620003d082620003d7565b9050919050565b600073ffffffffffffffffffffffffffffffffffffffff82169050919050565b60005b8381101562000417578082015181840152602081019050620003fa565b8381111562000427576000848401525b50505050565b600060028204905060018216806200044657607f821691505b602082108114156200045d576200045c62000499565b5b50919050565b6200046e82620004f7565b810181811067ffffffffffffffff8211171562000490576200048f620004c8565b5b80604052505050565b7f4e487b7100000000000000000000000000000000000000000000000000000000600052602260045260246000fd5b7f4e487b7100000000000000000000000000000000000000000000000000000000600052604160045260246000fd5b6000601f19601f8301169050919050565b6200051381620003c3565b81146200051f57600080fd5b50565b614d8780620005326000396000f3fe608060405234801561001057600080fd5b50600436106101c45760003560e01c80638009ba1f116100f9578063c87b56dd11610097578063e985e9c511610071578063e985e9c514610531578063f02b421b14610561578063f2fde38b1461057d578063f5836c4714610599576101c4565b8063c87b56dd146104c7578063ca8f621d146104f7578063d7d1bbdb14610515576101c4565b80638da5cb5b116100d35780638da5cb5b1461045357806395d89b4114610471578063a22cb4651461048f578063b88d4fde146104ab576101c4565b80638009ba1f146103d557806385e04604146103f35780638a5025a714610423576101c4565b806323b872dd1161016657806361348d0d1161014057806361348d0d1461034f5780636352211e1461036b57806370a082311461039b578063715018a6146103cb576101c4565b806323b872dd146102e757806332665ffb1461030357806342842e0e14610333576101c4565b8063081812fc116101a2578063081812fc1461024f578063095ea7b31461027f5780631112fccc1461029b5780631aa84782146102b7576101c4565b806301ffc9a7146101c95780630412d6d4146101f957806306fdde0314610231575b600080fd5b6101e360048036038101906101de919061380a565b6105b5565b6040516101f091906140fe565b60405180910390f35b610213600480360381019061020e919061395c565b610697565b6040516102289998979695949392919061441c565b60405180910390f35b6102396108b7565b6040516102469190614134565b60405180910390f35b6102696004803603810190610264919061395c565b610949565b6040516102769190614075565b60405180910390f35b610299600480360381019061029491906137ce565b61098f565b005b6102b560048036038101906102b091906139ea565b610aa7565b005b6102d160048036038101906102cc9190613663565b610ae1565b6040516102de91906140dc565b60405180910390f35b61030160048036038101906102fc91906136c8565b610f4d565b005b61031d6004803603810190610318919061395c565b610fad565b60405161032a91906143b6565b60405180910390f35b61034d600480360381019061034891906136c8565b6112a7565b005b6103696004803603810190610364919061391b565b6112c7565b005b6103856004803603810190610380919061395c565b61153d565b6040516103929190614075565b60405180910390f35b6103b560048036038101906103b09190613663565b6115c4565b6040516103c291906143d8565b60405180910390f35b6103d361167c565b005b6103dd611690565b6040516103ea9190614119565b60405180910390f35b61040d6004803603810190610408919061395c565b6116b6565b60405161041a91906143b6565b60405180910390f35b61043d600480360381019061043891906139ae565b6119b0565b60405161044a91906143d8565b60405180910390f35b61045b611a67565b6040516104689190614075565b60405180910390f35b610479611a90565b6040516104869190614134565b60405180910390f35b6104a960048036038101906104a49190613792565b611b22565b005b6104c560048036038101906104c09190613717565b611b38565b005b6104e160048036038101906104dc919061395c565b611b9a565b6040516104ee9190614134565b60405180910390f35b6104ff611c02565b60405161050c91906143d8565b60405180910390f35b61052f600480360381019061052a919061395c565b611c08565b005b61054b6004803603810190610546919061368c565b611d4d565b60405161055891906140fe565b60405180910390f35b61057b6004803603810190610576919061385c565b611de1565b005b61059760048036038101906105929190613663565b61204f565b005b6105b360048036038101906105ae919061395c565b6120d3565b005b60007f80ac58cd000000000000000000000000000000000000000000000000000000007bffffffffffffffffffffffffffffffffffffffffffffffffffffffff1916827bffffffffffffffffffffffffffffffffffffffffffffffffffffffff1916148061068057507f5b5e139f000000000000000000000000000000000000000000000000000000007bffffffffffffffffffffffffffffffffffffffffffffffffffffffff1916827bffffffffffffffffffffffffffffffffffffffffffffffffffffffff1916145b80610690575061068f826120e7565b5b9050919050565b60016020528060005260406000206000915090508060000154908060010180546106c0906146d1565b80601f01602080910402602001604051908101604052809291908181526020018280546106ec906146d1565b80156107395780601f1061070e57610100808354040283529160200191610739565b820191906000526020600020905b81548152906001019060200180831161071c57829003601f168201915b50505050509080600201805461074e906146d1565b80601f016020809104026020016040519081016040528092919081815260200182805461077a906146d1565b80156107c75780601f1061079c576101008083540402835291602001916107c7565b820191906000526020600020905b8154815290600101906020018083116107aa57829003601f168201915b5050505050908060030180546107dc906146d1565b80601f0160208091040260200160405190810160405280929190818152602001828054610808906146d1565b80156108555780601f1061082a57610100808354040283529160200191610855565b820191906000526020600020905b81548152906001019060200180831161083857829003601f168201915b5050505050908060040154908060050154908060060160009054906101000a900460ff16908060060160019054906101000a900460ff16908060060160029054906101000a900473ffffffffffffffffffffffffffffffffffffffff16905089565b6060600480546108c6906146d1565b80601f01602080910402602001604051908101604052809291908181526020018280546108f2906146d1565b801561093f5780601f106109145761010080835404028352916020019161093f565b820191906000526020600020905b81548152906001019060200180831161092257829003601f168201915b5050505050905090565b600061095482612151565b6008600083815260200190815260200160002060009054906101000a900473ffffffffffffffffffffffffffffffffffffffff169050919050565b600061099a8261153d565b90508073ffffffffffffffffffffffffffffffffffffffff168373ffffffffffffffffffffffffffffffffffffffff161415610a0b576040517f08c379a0000000000000000000000000000000000000000000000000000000008152600401610a0290614336565b60405180910390fd5b8073ffffffffffffffffffffffffffffffffffffffff16610a2a61219c565b73ffffffffffffffffffffffffffffffffffffffff161480610a595750610a5881610a5361219c565b611d4d565b5b610a98576040517f08c379a0000000000000000000000000000000000000000000000000000000008152600401610a8f90614356565b60405180910390fd5b610aa283836121a4565b505050565b610aaf61225d565b80600b600084815260200190815260200160002060060160016101000a81548160ff0219169083151502179055505050565b60606000600360008473ffffffffffffffffffffffffffffffffffffffff1673ffffffffffffffffffffffffffffffffffffffff16815260200190815260200160002090506000818054905067ffffffffffffffff811115610b6c577f4e487b7100000000000000000000000000000000000000000000000000000000600052604160045260246000fd5b604051908082528060200260200182016040528015610ba557816020015b610b9261329d565b815260200190600190039081610b8a5790505b50905060005b8280549050811015610f42576000838281548110610bf2577f4e487b7100000000000000000000000000000000000000000000000000000000600052603260045260246000fd5b90600052602060002001549050600160008281526020019081526020016000206040518061012001604052908160008201548152602001600182018054610c38906146d1565b80601f0160208091040260200160405190810160405280929190818152602001828054610c64906146d1565b8015610cb15780601f10610c8657610100808354040283529160200191610cb1565b820191906000526020600020905b815481529060010190602001808311610c9457829003601f168201915b50505050508152602001600282018054610cca906146d1565b80601f0160208091040260200160405190810160405280929190818152602001828054610cf6906146d1565b8015610d435780601f10610d1857610100808354040283529160200191610d43565b820191906000526020600020905b815481529060010190602001808311610d2657829003601f168201915b50505050508152602001600382018054610d5c906146d1565b80601f0160208091040260200160405190810160405280929190818152602001828054610d88906146d1565b8015610dd55780601f10610daa57610100808354040283529160200191610dd5565b820191906000526020600020905b815481529060010190602001808311610db857829003601f168201915b5050505050815260200160048201548152602001600582015481526020016006820160009054906101000a900460ff166003811115610e3d577f4e487b7100000000000000000000000000000000000000000000000000000000600052602160045260246000fd5b6003811115610e75577f4e487b7100000000000000000000000000000000000000000000000000000000600052602160045260246000fd5b81526020016006820160019054906101000a900460ff161515151581526020016006820160029054906101000a900473ffffffffffffffffffffffffffffffffffffffff1673ffffffffffffffffffffffffffffffffffffffff1673ffffffffffffffffffffffffffffffffffffffff1681525050838381518110610f23577f4e487b7100000000000000000000000000000000000000000000000000000000600052603260045260246000fd5b6020026020010181905250508080610f3a90614734565b915050610bab565b508092505050919050565b610f5e610f5861219c565b826122db565b610f9d576040517f08c379a0000000000000000000000000000000000000000000000000000000008152600401610f9490614156565b60405180910390fd5b610fa8838383612370565b505050565b610fb561329d565b600b60008381526020019081526020016000206040518061012001604052908160008201548152602001600182018054610fee906146d1565b80601f016020809104026020016040519081016040528092919081815260200182805461101a906146d1565b80156110675780601f1061103c57610100808354040283529160200191611067565b820191906000526020600020905b81548152906001019060200180831161104a57829003601f168201915b50505050508152602001600282018054611080906146d1565b80601f01602080910402602001604051908101604052809291908181526020018280546110ac906146d1565b80156110f95780601f106110ce576101008083540402835291602001916110f9565b820191906000526020600020905b8154815290600101906020018083116110dc57829003601f168201915b50505050508152602001600382018054611112906146d1565b80601f016020809104026020016040519081016040528092919081815260200182805461113e906146d1565b801561118b5780601f106111605761010080835404028352916020019161118b565b820191906000526020600020905b81548152906001019060200180831161116e57829003601f168201915b5050505050815260200160048201548152602001600582015481526020016006820160009054906101000a900460ff1660038111156111f3577f4e487b7100000000000000000000000000000000000000000000000000000000600052602160045260246000fd5b600381111561122b577f4e487b7100000000000000000000000000000000000000000000000000000000600052602160045260246000fd5b81526020016006820160019054906101000a900460ff161515151581526020016006820160029054906101000a900473ffffffffffffffffffffffffffffffffffffffff1673ffffffffffffffffffffffffffffffffffffffff1673ffffffffffffffffffffffffffffffffffffffff16815250509050919050565b6112c283838360405180602001604052806000815250611b38565b505050565b6112e881602001518260400151836060015184608001518560a0015161266a565b6112fd6112f3611a67565b82600001516127c3565b600060405180610120016040528083600001518152602001836020015181526020018360400151815260200183606001518152602001836080015181526020018360a00151815260200160026003811115611381577f4e487b7100000000000000000000000000000000000000000000000000000000600052602160045260246000fd5b815260200160001515815260200183610100015173ffffffffffffffffffffffffffffffffffffffff16815250905080600b6000846000015181526020019081526020016000206000820151816000015560208201518160010190805190602001906113ee929190613339565b50604082015181600201908051906020019061140b929190613339565b506060820151816003019080519060200190611428929190613339565b506080820151816004015560a0820151816005015560c08201518160060160006101000a81548160ff0219169083600381111561148e577f4e487b7100000000000000000000000000000000000000000000000000000000600052602160045260246000fd5b021790555060e08201518160060160016101000a81548160ff0219169083151502179055506101008201518160060160026101000a81548173ffffffffffffffffffffffffffffffffffffffff021916908373ffffffffffffffffffffffffffffffffffffffff1602179055509050507f0a0bffff74ea4f2336f9bcec356ba68b067615ce2fd0a7fd75b64dd4d298dd7e826000015160405161153191906143d8565b60405180910390a15050565b600080611549836127e1565b9050600073ffffffffffffffffffffffffffffffffffffffff168173ffffffffffffffffffffffffffffffffffffffff1614156115bb576040517f08c379a00000000000000000000000000000000000000000000000000000000081526004016115b290614316565b60405180910390fd5b80915050919050565b60008073ffffffffffffffffffffffffffffffffffffffff168273ffffffffffffffffffffffffffffffffffffffff161415611635576040517f08c379a000000000000000000000000000000000000000000000000000000000815260040161162c90614296565b60405180910390fd5b600760008373ffffffffffffffffffffffffffffffffffffffff1673ffffffffffffffffffffffffffffffffffffffff168152602001908152602001600020549050919050565b61168461225d565b61168e600061281e565b565b600a60009054906101000a900473ffffffffffffffffffffffffffffffffffffffff1681565b6116be61329d565b6001600083815260200190815260200160002060405180610120016040529081600082015481526020016001820180546116f7906146d1565b80601f0160208091040260200160405190810160405280929190818152602001828054611723906146d1565b80156117705780601f1061174557610100808354040283529160200191611770565b820191906000526020600020905b81548152906001019060200180831161175357829003601f168201915b50505050508152602001600282018054611789906146d1565b80601f01602080910402602001604051908101604052809291908181526020018280546117b5906146d1565b80156118025780601f106117d757610100808354040283529160200191611802565b820191906000526020600020905b8154815290600101906020018083116117e557829003601f168201915b5050505050815260200160038201805461181b906146d1565b80601f0160208091040260200160405190810160405280929190818152602001828054611847906146d1565b80156118945780601f1061186957610100808354040283529160200191611894565b820191906000526020600020905b81548152906001019060200180831161187757829003601f168201915b5050505050815260200160048201548152602001600582015481526020016006820160009054906101000a900460ff1660038111156118fc577f4e487b7100000000000000000000000000000000000000000000000000000000600052602160045260246000fd5b6003811115611934577f4e487b7100000000000000000000000000000000000000000000000000000000600052602160045260246000fd5b81526020016006820160019054906101000a900460ff161515151581526020016006820160029054906101000a900473ffffffffffffffffffffffffffffffffffffffff1673ffffffffffffffffffffffffffffffffffffffff1673ffffffffffffffffffffffffffffffffffffffff16815250509050919050565b6000600a60009054906101000a900473ffffffffffffffffffffffffffffffffffffffff1673ffffffffffffffffffffffffffffffffffffffff1663a9378ff384846040518363ffffffff1660e01b8152600401611a0f9291906143f3565b60206040518083038186803b158015611a2757600080fd5b505afa158015611a3b573d6000803e3d6000fd5b505050506040513d601f19601f82011682018060405250810190611a5f9190613985565b905092915050565b60008060009054906101000a900473ffffffffffffffffffffffffffffffffffffffff16905090565b606060058054611a9f906146d1565b80601f0160208091040260200160405190810160405280929190818152602001828054611acb906146d1565b8015611b185780601f10611aed57610100808354040283529160200191611b18565b820191906000526020600020905b815481529060010190602001808311611afb57829003601f168201915b5050505050905090565b611b34611b2d61219c565b83836128e2565b5050565b611b49611b4361219c565b836122db565b611b88576040517f08c379a0000000000000000000000000000000000000000000000000000000008152600401611b7f90614156565b60405180910390fd5b611b9484848484612a4f565b50505050565b6060611ba582612151565b6000611baf612aab565b90506000815111611bcf5760405180602001604052806000815250611bfa565b80611bd984612ac2565b604051602001611bea929190614051565b6040516020818303038152906040525b915050919050565b60025481565b611c1061225d565b60006003811115611c4a577f4e487b7100000000000000000000000000000000000000000000000000000000600052602160045260246000fd5b6001600083815260200190815260200160002060060160009054906101000a900460ff166003811115611ca6577f4e487b7100000000000000000000000000000000000000000000000000000000600052602160045260246000fd5b14611ce6576040517f08c379a0000000000000000000000000000000000000000000000000000000008152600401611cdd90614396565b60405180910390fd5b600180600083815260200190815260200160002060060160006101000a81548160ff02191690836003811115611d45577f4e487b7100000000000000000000000000000000000000000000000000000000600052602160045260246000fd5b021790555050565b6000600960008473ffffffffffffffffffffffffffffffffffffffff1673ffffffffffffffffffffffffffffffffffffffff16815260200190815260200160002060008373ffffffffffffffffffffffffffffffffffffffff1673ffffffffffffffffffffffffffffffffffffffff16815260200190815260200160002060009054906101000a900460ff16905092915050565b60026000815480929190611df490614734565b919050555060006002549050600060405180610120016040528083815260200188815260200187815260200186815260200185815260200184815260200160006003811115611e6c577f4e487b7100000000000000000000000000000000000000000000000000000000600052602160045260246000fd5b81526020016000151581526020013373ffffffffffffffffffffffffffffffffffffffff1681525090508060016000848152602001908152602001600020600082015181600001556020820151816001019080519060200190611ed0929190613339565b506040820151816002019080519060200190611eed929190613339565b506060820151816003019080519060200190611f0a929190613339565b506080820151816004015560a0820151816005015560c08201518160060160006101000a81548160ff02191690836003811115611f70577f4e487b7100000000000000000000000000000000000000000000000000000000600052602160045260246000fd5b021790555060e08201518160060160016101000a81548160ff0219169083151502179055506101008201518160060160026101000a81548173ffffffffffffffffffffffffffffffffffffffff021916908373ffffffffffffffffffffffffffffffffffffffff160217905550905050600360003373ffffffffffffffffffffffffffffffffffffffff1673ffffffffffffffffffffffffffffffffffffffff16815260200190815260200160002082908060018154018082558091505060019003906000526020600020016000909190919091505550505050505050565b61205761225d565b600073ffffffffffffffffffffffffffffffffffffffff168173ffffffffffffffffffffffffffffffffffffffff1614156120c7576040517f08c379a00000000000000000000000000000000000000000000000000000000081526004016120be906141b6565b60405180910390fd5b6120d08161281e565b50565b6120db61225d565b6120e481611c08565b50565b60007f01ffc9a7000000000000000000000000000000000000000000000000000000007bffffffffffffffffffffffffffffffffffffffffffffffffffffffff1916827bffffffffffffffffffffffffffffffffffffffffffffffffffffffff1916149050919050565b61215a81612be6565b612199576040517f08c379a000000000000000000000000000000000000000000000000000000000815260040161219090614316565b60405180910390fd5b50565b600033905090565b816008600083815260200190815260200160002060006101000a81548173ffffffffffffffffffffffffffffffffffffffff021916908373ffffffffffffffffffffffffffffffffffffffff160217905550808273ffffffffffffffffffffffffffffffffffffffff166122178361153d565b73ffffffffffffffffffffffffffffffffffffffff167f8c5be1e5ebec7d5bd14f71427d1e84f3dd0314c0f7b2291e5b200ac8c7c3b92560405160405180910390a45050565b61226561219c565b73ffffffffffffffffffffffffffffffffffffffff16612283611a67565b73ffffffffffffffffffffffffffffffffffffffff16146122d9576040517f08c379a00000000000000000000000000000000000000000000000000000000081526004016122d0906142d6565b60405180910390fd5b565b6000806122e78361153d565b90508073ffffffffffffffffffffffffffffffffffffffff168473ffffffffffffffffffffffffffffffffffffffff16148061232957506123288185611d4d565b5b8061236757508373ffffffffffffffffffffffffffffffffffffffff1661234f84610949565b73ffffffffffffffffffffffffffffffffffffffff16145b91505092915050565b8273ffffffffffffffffffffffffffffffffffffffff166123908261153d565b73ffffffffffffffffffffffffffffffffffffffff16146123e6576040517f08c379a00000000000000000000000000000000000000000000000000000000081526004016123dd906141d6565b60405180910390fd5b600073ffffffffffffffffffffffffffffffffffffffff168273ffffffffffffffffffffffffffffffffffffffff161415612456576040517f08c379a000000000000000000000000000000000000000000000000000000000815260040161244d90614216565b60405180910390fd5b6124638383836001612c27565b8273ffffffffffffffffffffffffffffffffffffffff166124838261153d565b73ffffffffffffffffffffffffffffffffffffffff16146124d9576040517f08c379a00000000000000000000000000000000000000000000000000000000081526004016124d0906141d6565b60405180910390fd5b6008600082815260200190815260200160002060006101000a81549073ffffffffffffffffffffffffffffffffffffffff02191690556001600760008573ffffffffffffffffffffffffffffffffffffffff1673ffffffffffffffffffffffffffffffffffffffff168152602001908152602001600020600082825403925050819055506001600760008473ffffffffffffffffffffffffffffffffffffffff1673ffffffffffffffffffffffffffffffffffffffff16815260200190815260200160002060008282540192505081905550816006600083815260200190815260200160002060006101000a81548173ffffffffffffffffffffffffffffffffffffffff021916908373ffffffffffffffffffffffffffffffffffffffff160217905550808273ffffffffffffffffffffffffffffffffffffffff168473ffffffffffffffffffffffffffffffffffffffff167fddf252ad1be2c89b69c2b068fc378daa952ba7f163c4a11628f55a4df523b3ef60405160405180910390a46126658383836001612c2d565b505050565b60008551116126ae576040517f08c379a00000000000000000000000000000000000000000000000000000000081526004016126a590614176565b60405180910390fd5b60008451116126f2576040517f08c379a00000000000000000000000000000000000000000000000000000000081526004016126e990614256565b60405180910390fd5b6000835111612736576040517f08c379a000000000000000000000000000000000000000000000000000000000815260040161272d90614376565b60405180910390fd5b60008111612779576040517f08c379a000000000000000000000000000000000000000000000000000000000815260040161277090614276565b60405180910390fd5b600082116127bc576040517f08c379a00000000000000000000000000000000000000000000000000000000081526004016127b3906142f6565b60405180910390fd5b5050505050565b6127dd828260405180602001604052806000815250612c33565b5050565b60006006600083815260200190815260200160002060009054906101000a900473ffffffffffffffffffffffffffffffffffffffff169050919050565b60008060009054906101000a900473ffffffffffffffffffffffffffffffffffffffff169050816000806101000a81548173ffffffffffffffffffffffffffffffffffffffff021916908373ffffffffffffffffffffffffffffffffffffffff1602179055508173ffffffffffffffffffffffffffffffffffffffff168173ffffffffffffffffffffffffffffffffffffffff167f8be0079c531659141344cd1fd0a4f28419497f9722a3daafe3b4186f6b6457e060405160405180910390a35050565b8173ffffffffffffffffffffffffffffffffffffffff168373ffffffffffffffffffffffffffffffffffffffff161415612951576040517f08c379a000000000000000000000000000000000000000000000000000000000815260040161294890614236565b60405180910390fd5b80600960008573ffffffffffffffffffffffffffffffffffffffff1673ffffffffffffffffffffffffffffffffffffffff16815260200190815260200160002060008473ffffffffffffffffffffffffffffffffffffffff1673ffffffffffffffffffffffffffffffffffffffff16815260200190815260200160002060006101000a81548160ff0219169083151502179055508173ffffffffffffffffffffffffffffffffffffffff168373ffffffffffffffffffffffffffffffffffffffff167f17307eab39ab6107e8899845ad3d59bd9653f200f220920489ca2b5937696c3183604051612a4291906140fe565b60405180910390a3505050565b612a5a848484612370565b612a6684848484612c8e565b612aa5576040517f08c379a0000000000000000000000000000000000000000000000000000000008152600401612a9c90614196565b60405180910390fd5b50505050565b606060405180602001604052806000815250905090565b606060006001612ad184612e25565b01905060008167ffffffffffffffff811115612b16577f4e487b7100000000000000000000000000000000000000000000000000000000600052604160045260246000fd5b6040519080825280601f01601f191660200182016040528015612b485781602001600182028036833780820191505090505b509050600082602001820190505b600115612bdb578080600190039150507f3031323334353637383961626364656600000000000000000000000000000000600a86061a8153600a8581612bc5577f4e487b7100000000000000000000000000000000000000000000000000000000600052601260045260246000fd5b0494506000851415612bd657612bdb565b612b56565b819350505050919050565b60008073ffffffffffffffffffffffffffffffffffffffff16612c08836127e1565b73ffffffffffffffffffffffffffffffffffffffff1614159050919050565b50505050565b50505050565b612c3d838361305c565b612c4a6000848484612c8e565b612c89576040517f08c379a0000000000000000000000000000000000000000000000000000000008152600401612c8090614196565b60405180910390fd5b505050565b6000612caf8473ffffffffffffffffffffffffffffffffffffffff1661327a565b15612e18578373ffffffffffffffffffffffffffffffffffffffff1663150b7a02612cd861219c565b8786866040518563ffffffff1660e01b8152600401612cfa9493929190614090565b602060405180830381600087803b158015612d1457600080fd5b505af1925050508015612d4557506040513d601f19601f82011682018060405250810190612d429190613833565b60015b612dc8573d8060008114612d75576040519150601f19603f3d011682016040523d82523d6000602084013e612d7a565b606091505b50600081511415612dc0576040517f08c379a0000000000000000000000000000000000000000000000000000000008152600401612db790614196565b60405180910390fd5b805181602001fd5b63150b7a0260e01b7bffffffffffffffffffffffffffffffffffffffffffffffffffffffff1916817bffffffffffffffffffffffffffffffffffffffffffffffffffffffff191614915050612e1d565b600190505b949350505050565b600080600090507a184f03e93ff9f4daa797ed6e38ed64bf6a1f0100000000000000008310612ea9577a184f03e93ff9f4daa797ed6e38ed64bf6a1f0100000000000000008381612e9f577f4e487b7100000000000000000000000000000000000000000000000000000000600052601260045260246000fd5b0492506040810190505b6d04ee2d6d415b85acef81000000008310612f0c576d04ee2d6d415b85acef81000000008381612f02577f4e487b7100000000000000000000000000000000000000000000000000000000600052601260045260246000fd5b0492506020810190505b662386f26fc100008310612f6157662386f26fc100008381612f57577f4e487b7100000000000000000000000000000000000000000000000000000000600052601260045260246000fd5b0492506010810190505b6305f5e1008310612fb0576305f5e1008381612fa6577f4e487b7100000000000000000000000000000000000000000000000000000000600052601260045260246000fd5b0492506008810190505b6127108310612ffb576127108381612ff1577f4e487b7100000000000000000000000000000000000000000000000000000000600052601260045260246000fd5b0492506004810190505b60648310613044576064838161303a577f4e487b7100000000000000000000000000000000000000000000000000000000600052601260045260246000fd5b0492506002810190505b600a8310613053576001810190505b80915050919050565b600073ffffffffffffffffffffffffffffffffffffffff168273ffffffffffffffffffffffffffffffffffffffff1614156130cc576040517f08c379a00000000000000000000000000000000000000000000000000000000081526004016130c3906142b6565b60405180910390fd5b6130d581612be6565b15613115576040517f08c379a000000000000000000000000000000000000000000000000000000000815260040161310c906141f6565b60405180910390fd5b613123600083836001612c27565b61312c81612be6565b1561316c576040517f08c379a0000000000000000000000000000000000000000000000000000000008152600401613163906141f6565b60405180910390fd5b6001600760008473ffffffffffffffffffffffffffffffffffffffff1673ffffffffffffffffffffffffffffffffffffffff16815260200190815260200160002060008282540192505081905550816006600083815260200190815260200160002060006101000a81548173ffffffffffffffffffffffffffffffffffffffff021916908373ffffffffffffffffffffffffffffffffffffffff160217905550808273ffffffffffffffffffffffffffffffffffffffff16600073ffffffffffffffffffffffffffffffffffffffff167fddf252ad1be2c89b69c2b068fc378daa952ba7f163c4a11628f55a4df523b3ef60405160405180910390a4613276600083836001612c2d565b5050565b6000808273ffffffffffffffffffffffffffffffffffffffff163b119050919050565b6040518061012001604052806000815260200160608152602001606081526020016060815260200160008152602001600081526020016000600381111561330d577f4e487b7100000000000000000000000000000000000000000000000000000000600052602160045260246000fd5b8152602001600015158152602001600073ffffffffffffffffffffffffffffffffffffffff1681525090565b828054613345906146d1565b90600052602060002090601f01602090048101928261336757600085556133ae565b82601f1061338057805160ff19168380011785556133ae565b828001600101855582156133ae579182015b828111156133ad578251825591602001919060010190613392565b5b5090506133bb91906133bf565b5090565b5b808211156133d85760008160009055506001016133c0565b5090565b60006133ef6133ea846144e3565b6144be565b90508281526020810184848401111561340757600080fd5b61341284828561468f565b509392505050565b600061342d61342884614514565b6144be565b90508281526020810184848401111561344557600080fd5b61345084828561468f565b509392505050565b60008135905061346781614ce5565b92915050565b60008135905061347c81614cfc565b92915050565b60008135905061349181614d13565b92915050565b6000815190506134a681614d13565b92915050565b600082601f8301126134bd57600080fd5b81356134cd8482602086016133dc565b91505092915050565b6000813590506134e581614d2a565b92915050565b600082601f8301126134fc57600080fd5b813561350c84826020860161341a565b91505092915050565b6000610120828403121561352857600080fd5b6135336101206144be565b9050600061354384828501613639565b600083015250602082013567ffffffffffffffff81111561356357600080fd5b61356f848285016134eb565b602083015250604082013567ffffffffffffffff81111561358f57600080fd5b61359b848285016134eb565b604083015250606082013567ffffffffffffffff8111156135bb57600080fd5b6135c7848285016134eb565b60608301525060806135db84828501613639565b60808301525060a06135ef84828501613639565b60a08301525060c0613603848285016134d6565b60c08301525060e06136178482850161346d565b60e08301525061010061362c84828501613458565b6101008301525092915050565b60008135905061364881614d3a565b92915050565b60008151905061365d81614d3a565b92915050565b60006020828403121561367557600080fd5b600061368384828501613458565b91505092915050565b6000806040838503121561369f57600080fd5b60006136ad85828601613458565b92505060206136be85828601613458565b9150509250929050565b6000806000606084860312156136dd57600080fd5b60006136eb86828701613458565b93505060206136fc86828701613458565b925050604061370d86828701613639565b9150509250925092565b6000806000806080858703121561372d57600080fd5b600061373b87828801613458565b945050602061374c87828801613458565b935050604061375d87828801613639565b925050606085013567ffffffffffffffff81111561377a57600080fd5b613786878288016134ac565b91505092959194509250565b600080604083850312156137a557600080fd5b60006137b385828601613458565b92505060206137c48582860161346d565b9150509250929050565b600080604083850312156137e157600080fd5b60006137ef85828601613458565b925050602061380085828601613639565b9150509250929050565b60006020828403121561381c57600080fd5b600061382a84828501613482565b91505092915050565b60006020828403121561384557600080fd5b600061385384828501613497565b91505092915050565b600080600080600060a0868803121561387457600080fd5b600086013567ffffffffffffffff81111561388e57600080fd5b61389a888289016134eb565b955050602086013567ffffffffffffffff8111156138b757600080fd5b6138c3888289016134eb565b945050604086013567ffffffffffffffff8111156138e057600080fd5b6138ec888289016134eb565b93505060606138fd88828901613639565b925050608061390e88828901613639565b9150509295509295909350565b60006020828403121561392d57600080fd5b600082013567ffffffffffffffff81111561394757600080fd5b61395384828501613515565b91505092915050565b60006020828403121561396e57600080fd5b600061397c84828501613639565b91505092915050565b60006020828403121561399757600080fd5b60006139a58482850161364e565b91505092915050565b600080604083850312156139c157600080fd5b60006139cf85828601613639565b92505060206139e085828601613458565b9150509250929050565b600080604083850312156139fd57600080fd5b6000613a0b85828601613639565b9250506020613a1c8582860161346d565b9150509250929050565b6000613a328383613e8d565b905092915050565b613a43816145d2565b82525050565b613a52816145d2565b82525050565b6000613a6382614555565b613a6d8185614583565b935083602082028501613a7f85614545565b8060005b85811015613abb5784840389528151613a9c8582613a26565b9450613aa783614576565b925060208a01995050600181019050613a83565b50829750879550505050505092915050565b613ad6816145e4565b82525050565b613ae5816145e4565b82525050565b6000613af682614560565b613b008185614594565b9350613b1081856020860161469e565b613b1981614839565b840191505092915050565b613b2d81614659565b82525050565b613b3c8161467d565b82525050565b613b4b8161467d565b82525050565b6000613b5c8261456b565b613b6681856145a5565b9350613b7681856020860161469e565b613b7f81614839565b840191505092915050565b6000613b958261456b565b613b9f81856145b6565b9350613baf81856020860161469e565b613bb881614839565b840191505092915050565b6000613bce8261456b565b613bd881856145c7565b9350613be881856020860161469e565b80840191505092915050565b6000613c01602d836145b6565b9150613c0c8261484a565b604082019050919050565b6000613c246014836145b6565b9150613c2f82614899565b602082019050919050565b6000613c476032836145b6565b9150613c52826148c2565b604082019050919050565b6000613c6a6026836145b6565b9150613c7582614911565b604082019050919050565b6000613c8d6025836145b6565b9150613c9882614960565b604082019050919050565b6000613cb0601c836145b6565b9150613cbb826149af565b602082019050919050565b6000613cd36024836145b6565b9150613cde826149d8565b604082019050919050565b6000613cf66019836145b6565b9150613d0182614a27565b602082019050919050565b6000613d19601b836145b6565b9150613d2482614a50565b602082019050919050565b6000613d3c6024836145b6565b9150613d4782614a79565b604082019050919050565b6000613d5f6029836145b6565b9150613d6a82614ac8565b604082019050919050565b6000613d826020836145b6565b9150613d8d82614b17565b602082019050919050565b6000613da56020836145b6565b9150613db082614b40565b602082019050919050565b6000613dc86025836145b6565b9150613dd382614b69565b604082019050919050565b6000613deb6018836145b6565b9150613df682614bb8565b602082019050919050565b6000613e0e6021836145b6565b9150613e1982614be1565b604082019050919050565b6000613e31603d836145b6565b9150613e3c82614c30565b604082019050919050565b6000613e546018836145b6565b9150613e5f82614c7f565b602082019050919050565b6000613e77601f836145b6565b9150613e8282614ca8565b602082019050919050565b600061012083016000830151613ea66000860182614033565b5060208301518482036020860152613ebe8282613b51565b91505060408301518482036040860152613ed88282613b51565b91505060608301518482036060860152613ef28282613b51565b9150506080830151613f076080860182614033565b5060a0830151613f1a60a0860182614033565b5060c0830151613f2d60c0860182613b33565b5060e0830151613f4060e0860182613acd565b50610100830151613f55610100860182613a3a565b508091505092915050565b600061012083016000830151613f796000860182614033565b5060208301518482036020860152613f918282613b51565b91505060408301518482036040860152613fab8282613b51565b91505060608301518482036060860152613fc58282613b51565b9150506080830151613fda6080860182614033565b5060a0830151613fed60a0860182614033565b5060c083015161400060c0860182613b33565b5060e083015161401360e0860182613acd565b50610100830151614028610100860182613a3a565b508091505092915050565b61403c8161464f565b82525050565b61404b8161464f565b82525050565b600061405d8285613bc3565b91506140698284613bc3565b91508190509392505050565b600060208201905061408a6000830184613a49565b92915050565b60006080820190506140a56000830187613a49565b6140b26020830186613a49565b6140bf6040830185614042565b81810360608301526140d18184613aeb565b905095945050505050565b600060208201905081810360008301526140f68184613a58565b905092915050565b60006020820190506141136000830184613adc565b92915050565b600060208201905061412e6000830184613b24565b92915050565b6000602082019050818103600083015261414e8184613b8a565b905092915050565b6000602082019050818103600083015261416f81613bf4565b9050919050565b6000602082019050818103600083015261418f81613c17565b9050919050565b600060208201905081810360008301526141af81613c3a565b9050919050565b600060208201905081810360008301526141cf81613c5d565b9050919050565b600060208201905081810360008301526141ef81613c80565b9050919050565b6000602082019050818103600083015261420f81613ca3565b9050919050565b6000602082019050818103600083015261422f81613cc6565b9050919050565b6000602082019050818103600083015261424f81613ce9565b9050919050565b6000602082019050818103600083015261426f81613d0c565b9050919050565b6000602082019050818103600083015261428f81613d2f565b9050919050565b600060208201905081810360008301526142af81613d52565b9050919050565b600060208201905081810360008301526142cf81613d75565b9050919050565b600060208201905081810360008301526142ef81613d98565b9050919050565b6000602082019050818103600083015261430f81613dbb565b9050919050565b6000602082019050818103600083015261432f81613dde565b9050919050565b6000602082019050818103600083015261434f81613e01565b9050919050565b6000602082019050818103600083015261436f81613e24565b9050919050565b6000602082019050818103600083015261438f81613e47565b9050919050565b600060208201905081810360008301526143af81613e6a565b9050919050565b600060208201905081810360008301526143d08184613f60565b905092915050565b60006020820190506143ed6000830184614042565b92915050565b60006040820190506144086000830185614042565b6144156020830184613a49565b9392505050565b600061012082019050614432600083018c614042565b8181036020830152614444818b613b8a565b90508181036040830152614458818a613b8a565b9050818103606083015261446c8189613b8a565b905061447b6080830188614042565b61448860a0830187614042565b61449560c0830186613b42565b6144a260e0830185613adc565b6144b0610100830184613a49565b9a9950505050505050505050565b60006144c86144d9565b90506144d48282614703565b919050565b6000604051905090565b600067ffffffffffffffff8211156144fe576144fd61480a565b5b61450782614839565b9050602081019050919050565b600067ffffffffffffffff82111561452f5761452e61480a565b5b61453882614839565b9050602081019050919050565b6000819050602082019050919050565b600081519050919050565b600081519050919050565b600081519050919050565b6000602082019050919050565b600082825260208201905092915050565b600082825260208201905092915050565b600082825260208201905092915050565b600082825260208201905092915050565b600081905092915050565b60006145dd8261462f565b9050919050565b60008115159050919050565b60007fffffffff0000000000000000000000000000000000000000000000000000000082169050919050565b600081905061462a82614cd1565b919050565b600073ffffffffffffffffffffffffffffffffffffffff82169050919050565b6000819050919050565b60006146648261466b565b9050919050565b60006146768261462f565b9050919050565b60006146888261461c565b9050919050565b82818337600083830152505050565b60005b838110156146bc5780820151818401526020810190506146a1565b838111156146cb576000848401525b50505050565b600060028204905060018216806146e957607f821691505b602082108114156146fd576146fc6147db565b5b50919050565b61470c82614839565b810181811067ffffffffffffffff8211171561472b5761472a61480a565b5b80604052505050565b600061473f8261464f565b91507fffffffffffffffffffffffffffffffffffffffffffffffffffffffffffffffff8214156147725761477161477d565b5b600182019050919050565b7f4e487b7100000000000000000000000000000000000000000000000000000000600052601160045260246000fd5b7f4e487b7100000000000000000000000000000000000000000000000000000000600052602160045260246000fd5b7f4e487b7100000000000000000000000000000000000000000000000000000000600052602260045260246000fd5b7f4e487b7100000000000000000000000000000000000000000000000000000000600052604160045260246000fd5b6000601f19601f8301169050919050565b7f4552433732313a2063616c6c6572206973206e6f7420746f6b656e206f776e6560008201527f72206f7220617070726f76656400000000000000000000000000000000000000602082015250565b7f4e616d652063616e6e6f7420626520656d707479000000000000000000000000600082015250565b7f4552433732313a207472616e7366657220746f206e6f6e20455243373231526560008201527f63656976657220696d706c656d656e7465720000000000000000000000000000602082015250565b7f4f776e61626c653a206e6577206f776e657220697320746865207a65726f206160008201527f6464726573730000000000000000000000000000000000000000000000000000602082015250565b7f4552433732313a207472616e736665722066726f6d20696e636f72726563742060008201527f6f776e6572000000000000000000000000000000000000000000000000000000602082015250565b7f4552433732313a20746f6b656e20616c7265616479206d696e74656400000000600082015250565b7f4552433732313a207472616e7366657220746f20746865207a65726f2061646460008201527f7265737300000000000000000000000000000000000000000000000000000000602082015250565b7f4552433732313a20617070726f766520746f2063616c6c657200000000000000600082015250565b7f4465736372697074696f6e2063616e6e6f7420626520656d7074790000000000600082015250565b7f53686172657320616d6f756e74206d757374206265206772656174657220746860008201527f616e203000000000000000000000000000000000000000000000000000000000602082015250565b7f4552433732313a2061646472657373207a65726f206973206e6f74206120766160008201527f6c6964206f776e65720000000000000000000000000000000000000000000000602082015250565b7f4552433732313a206d696e7420746f20746865207a65726f2061646472657373600082015250565b7f4f776e61626c653a2063616c6c6572206973206e6f7420746865206f776e6572600082015250565b7f50726f70657274792056616c7565206d7573742062652067726561746572207460008201527f68616e2030000000000000000000000000000000000000000000000000000000602082015250565b7f4552433732313a20696e76616c696420746f6b656e2049440000000000000000600082015250565b7f4552433732313a20617070726f76616c20746f2063757272656e74206f776e6560008201527f7200000000000000000000000000000000000000000000000000000000000000602082015250565b7f4552433732313a20617070726f76652063616c6c6572206973206e6f7420746f60008201527f6b656e206f776e6572206f7220617070726f76656420666f7220616c6c000000602082015250565b7f4c6f636174696f6e2063616e6e6f7420626520656d7074790000000000000000600082015250565b7f52657175657374206973206e6f742070656e64696e6720617070726f76616c00600082015250565b60048110614ce257614ce16147ac565b5b50565b614cee816145d2565b8114614cf957600080fd5b50565b614d05816145e4565b8114614d1057600080fd5b50565b614d1c816145f0565b8114614d2757600080fd5b50565b60048110614d3757600080fd5b50565b614d438161464f565b8114614d4e57600080fd5b5056fea26469706673582212204e35bb5407a7a9b884b6b03e74bbf3c0a6f74003c03b924a87e30a0bdee2f9e064736f6c63430008030033",
  "linkReferences": {},
  "deployedLinkReferences": {}
}