{
  "_format": "hh-sol-artifact-1",
  "contractName": "PropertyTokenFactory",
  "sourceName": "contracts/PropertyTokenFactory.sol",
  "abi": [
    {
      "inputs": [
        {
          "internalType": "address",
          "name": "_sharesTokenAddress",
          "type": "address"
        }
      ],
      "stateMutability": "nonpayable",
      "type": "constructor"
    },
    {
      "anonymous": false,
      "inputs": [
        {
          "indexed": true,
          "internalType": "address",
          "name": "previousOwner",
          "type": "address"
        },
        {
          "indexed": true,
          "internalType": "address",
          "name": "newOwner",
          "type": "address"
        }
      ],
      "name": "OwnershipTransferred",
      "type": "event"
    },
    {
      "anonymous": false,
      "inputs": [
        {
          "indexed": false,
          "internalType": "uint256",
          "name": "propertyId",
          "type": "uint256"
        },
        {
          "indexed": true,
          "internalType": "address",
          "name": "tokenAddress",
          "type": "address"
        }
      ],
      "name": "PropertyTokenCreated",
      "type": "event"
    },
    {
      "inputs": [
        {
          "internalType": "uint256",
          "name": "_requestId",
          "type": "uint256"
        }
      ],
      "name": "approvePropertyRequest",
      "outputs": [],
      "stateMutability": "nonpayable",
      "type": "function"
    },
    {
      "inputs": [
        {
          "internalType": "string",
          "name": "name",
          "type": "string"
        },
        {
          "internalType": "string",
          "name": "description",
          "type": "string"
        },
        {
          "internalType": "string",
          "name": "location",
          "type": "string"
        },
        {
          "internalType": "uint256",
          "name": "propertyValue",
          "type": "uint256"
        },
        {
          "internalType": "uint256",
          "name": "totalShares",
          "type": "uint256"
        }
      ],
      "name": "createPropertyToken",
      "outputs": [],
      "stateMutability": "nonpayable",
      "type": "function"
    },
    {
      "inputs": [],
      "name": "getAllProperties",
      "outputs": [
        {
          "components": [
            {
              "internalType": "uint256",
              "name": "propertyId",
              "type": "uint256"
            },
            {
              "internalType": "string",
              "name": "name",
              "type": "string"
            },
            {
              "internalType": "string",
              "name": "description",
              "type": "string"
            },
            {
              "internalType": "string",
              "name": "location",
              "type": "string"
            },
            {
              "internalType": "uint256",
              "name": "propertyValue",
              "type": "uint256"
            },
            {
              "internalType": "uint256",
              "name": "totalShares",
              "type": "uint256"
            },
            {
              "internalType": "address",
              "name": "tokenAddress",
              "type": "address"
            },
            {
              "internalType": "bool",
              "name": "isAvailableForTrade",
              "type": "bool"
            }
          ],
          "internalType": "struct PropertyLib.Property[]",
          "name": "",
          "type": "tuple[]"
        }
      ],
      "stateMutability": "view",
      "type": "function"
    },
    {
      "inputs": [],
      "name": "getPropertiesCount",
      "outputs": [
        {
          "internalType": "uint256",
          "name": "",
          "type": "uint256"
        }
      ],
      "stateMutability": "view",
      "type": "function"
    },
    {
      "inputs": [
        {
          "internalType": "uint256",
          "name": "propertyId",
          "type": "uint256"
        }
      ],
      "name": "getProperty",
      "outputs": [
        {
          "components": [
            {
              "internalType": "uint256",
              "name": "propertyId",
              "type": "uint256"
            },
            {
              "internalType": "string",
              "name": "name",
              "type": "string"
            },
            {
              "internalType": "string",
              "name": "description",
              "type": "string"
            },
            {
              "internalType": "string",
              "name": "location",
              "type": "string"
            },
            {
              "internalType": "uint256",
              "name": "propertyValue",
              "type": "uint256"
            },
            {
              "internalType": "uint256",
              "name": "totalShares",
              "type": "uint256"
            },
            {
              "internalType": "address",
              "name": "tokenAddress",
              "type": "address"
            },
            {
              "internalType": "bool",
              "name": "isAvailableForTrade",
              "type": "bool"
            }
          ],
          "internalType": "struct PropertyLib.Property",
          "name": "",
          "type": "tuple"
        }
      ],
      "stateMutability": "view",
      "type": "function"
    },
    {
      "inputs": [
        {
          "internalType": "uint256",
          "name": "propertyId",
          "type": "uint256"
        },
        {
          "internalType": "address",
          "name": "account",
          "type": "address"
        }
      ],
      "name": "getPropertyShares",
      "outputs": [
        {
          "internalType": "uint256",
          "name": "",
          "type": "uint256"
        }
      ],
      "stateMutability": "view",
      "type": "function"
    },
    {
      "inputs": [
        {
          "internalType": "address",
          "name": "user",
          "type": "address"
        }
      ],
      "name": "getUserPropertyRequests",
      "outputs": [
        {
          "components": [
            {
              "internalType": "uint256",
              "name": "requestId",
              "type": "uint256"
            },
            {
              "internalType": "address",
              "name": "requester",
              "type": "address"
            },
            {
              "internalType": "string",
              "name": "name",
              "type": "string"
            },
            {
              "internalType": "string",
              "name": "description",
              "type": "string"
            },
            {
              "internalType": "string",
              "name": "location",
              "type": "string"
            },
            {
              "internalType": "uint256",
              "name": "totalValue",
              "type": "uint256"
            },
            {
              "internalType": "uint256",
              "name": "shares",
              "type": "uint256"
            },
            {
              "internalType": "enum PropertyLib.RequestStatus",
              "name": "status",
              "type": "uint8"
            }
          ],
          "internalType": "struct PropertyLib.PropertyRequest[]",
          "name": "",
          "type": "tuple[]"
        }
      ],
      "stateMutability": "view",
      "type": "function"
    },
    {
      "inputs": [],
      "name": "owner",
      "outputs": [
        {
          "internalType": "address",
          "name": "",
          "type": "address"
        }
      ],
      "stateMutability": "view",
      "type": "function"
    },
    {
      "inputs": [
        {
          "internalType": "uint256",
          "name": "_requestId",
          "type": "uint256"
        }
      ],
      "name": "payForShares",
      "outputs": [],
      "stateMutability": "payable",
      "type": "function"
    },
    {
      "inputs": [],
      "name": "propertyRequestCount",
      "outputs": [
        {
          "internalType": "uint256",
          "name": "",
          "type": "uint256"
        }
      ],
      "stateMutability": "view",
      "type": "function"
    },
    {
      "inputs": [
        {
          "internalType": "uint256",
          "name": "",
          "type": "uint256"
        }
      ],
      "name": "propertyRequests",
      "outputs": [
        {
          "internalType": "uint256",
          "name": "requestId",
          "type": "uint256"
        },
        {
          "internalType": "address",
          "name": "requester",
          "type": "address"
        },
        {
          "internalType": "string",
          "name": "name",
          "type": "string"
        },
        {
          "internalType": "string",
          "name": "description",
          "type": "string"
        },
        {
          "internalType": "string",
          "name": "location",
          "type": "string"
        },
        {
          "internalType": "uint256",
          "name": "totalValue",
          "type": "uint256"
        },
        {
          "internalType": "uint256",
          "name": "shares",
          "type": "uint256"
        },
        {
          "internalType": "enum PropertyLib.RequestStatus",
          "name": "status",
          "type": "uint8"
        }
      ],
      "stateMutability": "view",
      "type": "function"
    },
    {
      "inputs": [],
      "name": "renounceOwnership",
      "outputs": [],
      "stateMutability": "nonpayable",
      "type": "function"
    },
    {
      "inputs": [
        {
          "internalType": "string",
          "name": "_name",
          "type": "string"
        },
        {
          "internalType": "string",
          "name": "_description",
          "type": "string"
        },
        {
          "internalType": "string",
          "name": "_location",
          "type": "string"
        },
        {
          "internalType": "uint256",
          "name": "_totalValue",
          "type": "uint256"
        },
        {
          "internalType": "uint256",
          "name": "_shares",
          "type": "uint256"
        }
      ],
      "name": "requestProperty",
      "outputs": [],
      "stateMutability": "nonpayable",
      "type": "function"
    },
    {
      "inputs": [],
      "name": "sharesToken",
      "outputs": [
        {
          "internalType": "contract RealEstateShareToken",
          "name": "",
          "type": "address"
        }
      ],
      "stateMutability": "view",
      "type": "function"
    },
    {
      "inputs": [
        {
          "internalType": "uint256",
          "name": "propertyId",
          "type": "uint256"
        }
      ],
      "name": "toggleAvailability",
      "outputs": [],
      "stateMutability": "nonpayable",
      "type": "function"
    },
    {
      "inputs": [
        {
          "internalType": "address",
          "name": "newOwner",
          "type": "address"
        }
      ],
      "name": "transferOwnership",
      "outputs": [],
      "stateMutability": "nonpayable",
      "type": "function"
    },
    {
      "inputs": [
        {
          "internalType": "uint256",
          "name": "propertyId",
          "type": "uint256"
        }
      ],
      "name": "untoggleAvailability",
      "outputs": [],
      "stateMutability": "nonpayable",
      "type": "function"
    }
  ],
  "bytecode": "0x60806040523480156200001157600080fd5b506040516200618e3803806200618e833981810160405281019062000037919062000182565b620000576200004b6200009f60201b60201c565b620000a760201b60201c565b80600560006101000a81548173ffffffffffffffffffffffffffffffffffffffff021916908373ffffffffffffffffffffffffffffffffffffffff16021790555050620001fc565b600033905090565b60008060009054906101000a900473ffffffffffffffffffffffffffffffffffffffff169050816000806101000a81548173ffffffffffffffffffffffffffffffffffffffff021916908373ffffffffffffffffffffffffffffffffffffffff1602179055508173ffffffffffffffffffffffffffffffffffffffff168173ffffffffffffffffffffffffffffffffffffffff167f8be0079c531659141344cd1fd0a4f28419497f9722a3daafe3b4186f6b6457e060405160405180910390a35050565b6000815190506200017c81620001e2565b92915050565b6000602082840312156200019557600080fd5b6000620001a5848285016200016b565b91505092915050565b6000620001bb82620001c2565b9050919050565b600073ffffffffffffffffffffffffffffffffffffffff82169050919050565b620001ed81620001ae565b8114620001f957600080fd5b50565b615f82806200020c6000396000f3fe608060405260043610620001165760003560e01c80638a5025a711620000a3578063c7f8d442116200006d578063c7f8d4421462000388578063ca8f621d14620003b6578063f02b421b14620003e6578063f2fde38b1462000414578063f5836c4714620004425762000116565b80638a5025a714620002c65780638da5cb5b146200030a578063a8530add146200033a578063b3374c0e14620003685762000116565b806332665ffb11620000e557806332665ffb14620002085780633d51402c146200024c578063715018a6146200027c5780638009ba1f14620002965762000116565b80630121034e146200011b5780630412d6d4146200015f5780630d65613814620001aa578063174000bc14620001d8575b600080fd5b3480156200012857600080fd5b5062000147600480360381019062000141919062002173565b62000470565b604051620001569190620029af565b60405180910390f35b3480156200016c57600080fd5b506200018b60048036038101906200018591906200226c565b620008e6565b604051620001a198979695949392919062002c43565b60405180910390f35b348015620001b757600080fd5b50620001d66004803603810190620001d091906200219f565b62000b0b565b005b348015620001e557600080fd5b50620001f062000ecc565b604051620001ff919062002bf9565b60405180910390f35b3480156200021557600080fd5b506200023460048036038101906200022e91906200226c565b62000edf565b60405162000243919062002bd5565b60405180910390f35b3480156200025957600080fd5b50620002646200116c565b604051620002739190620029d3565b60405180910390f35b3480156200028957600080fd5b50620002946200142b565b005b348015620002a357600080fd5b50620002ae62001443565b604051620002bd9190620029f7565b60405180910390f35b348015620002d357600080fd5b50620002f26004803603810190620002ec9190620022c4565b62001469565b60405162000301919062002bf9565b60405180910390f35b3480156200031757600080fd5b506200032262001526565b60405162000331919062002992565b60405180910390f35b3480156200034757600080fd5b506200036660048036038101906200036091906200226c565b6200154f565b005b6200038660048036038101906200038091906200226c565b6200158b565b005b3480156200039557600080fd5b50620003b46004803603810190620003ae91906200226c565b620017ca565b005b348015620003c357600080fd5b50620003ce62001806565b604051620003dd919062002bf9565b60405180910390f35b348015620003f357600080fd5b506200041260048036038101906200040c91906200219f565b6200180c565b005b3480156200042157600080fd5b506200044060048036038101906200043a919062002173565b62001a58565b005b3480156200044f57600080fd5b506200046e60048036038101906200046891906200226c565b62001ae3565b005b60606000600360008473ffffffffffffffffffffffffffffffffffffffff1673ffffffffffffffffffffffffffffffffffffffff16815260200190815260200160002090506000818054905067ffffffffffffffff811115620004fc577f4e487b7100000000000000000000000000000000000000000000000000000000600052604160045260246000fd5b6040519080825280602002602001820160405280156200053957816020015b6200052562001f0d565b8152602001906001900390816200051b5790505b50905060005b8280549050811015620008db57600083828154811062000588577f4e487b7100000000000000000000000000000000000000000000000000000000600052603260045260246000fd5b906000526020600020015490506001600082815260200190815260200160002060405180610100016040529081600082015481526020016001820160009054906101000a900473ffffffffffffffffffffffffffffffffffffffff1673ffffffffffffffffffffffffffffffffffffffff1673ffffffffffffffffffffffffffffffffffffffff168152602001600282018054620006269062002ecf565b80601f0160208091040260200160405190810160405280929190818152602001828054620006549062002ecf565b8015620006a55780601f106200067957610100808354040283529160200191620006a5565b820191906000526020600020905b8154815290600101906020018083116200068757829003601f168201915b50505050508152602001600382018054620006c09062002ecf565b80601f0160208091040260200160405190810160405280929190818152602001828054620006ee9062002ecf565b80156200073f5780601f1062000713576101008083540402835291602001916200073f565b820191906000526020600020905b8154815290600101906020018083116200072157829003601f168201915b505050505081526020016004820180546200075a9062002ecf565b80601f0160208091040260200160405190810160405280929190818152602001828054620007889062002ecf565b8015620007d95780601f10620007ad57610100808354040283529160200191620007d9565b820191906000526020600020905b815481529060010190602001808311620007bb57829003601f168201915b5050505050815260200160058201548152602001600682015481526020016007820160009054906101000a900460ff16600381111562000842577f4e487b7100000000000000000000000000000000000000000000000000000000600052602160045260246000fd5b60038111156200087b577f4e487b7100000000000000000000000000000000000000000000000000000000600052602160045260246000fd5b81525050838381518110620008b9577f4e487b7100000000000000000000000000000000000000000000000000000000600052603260045260246000fd5b6020026020010181905250508080620008d29062002f3b565b9150506200053f565b508092505050919050565b60016020528060005260406000206000915090508060000154908060010160009054906101000a900473ffffffffffffffffffffffffffffffffffffffff1690806002018054620009379062002ecf565b80601f0160208091040260200160405190810160405280929190818152602001828054620009659062002ecf565b8015620009b65780601f106200098a57610100808354040283529160200191620009b6565b820191906000526020600020905b8154815290600101906020018083116200099857829003601f168201915b505050505090806003018054620009cd9062002ecf565b80601f0160208091040260200160405190810160405280929190818152602001828054620009fb9062002ecf565b801562000a4c5780601f1062000a205761010080835404028352916020019162000a4c565b820191906000526020600020905b81548152906001019060200180831162000a2e57829003601f168201915b50505050509080600401805462000a639062002ecf565b80601f016020809104026020016040519081016040528092919081815260200182805462000a919062002ecf565b801562000ae25780601f1062000ab65761010080835404028352916020019162000ae2565b820191906000526020600020905b81548152906001019060200180831162000ac457829003601f168201915b5050505050908060050154908060060154908060070160009054906101000a900460ff16905088565b62000b1562001c30565b62000b24858585858562001cb5565b62000b30600462001e1d565b600062000b3e600462001e33565b905060008686600560009054906101000a900473ffffffffffffffffffffffffffffffffffffffff1660405162000b759062001fa1565b62000b839392919062002a14565b604051809103906000f08015801562000ba0573d6000803e3d6000fd5b5090508073ffffffffffffffffffffffffffffffffffffffff16636a627842336040518263ffffffff1660e01b815260040162000bde919062002992565b600060405180830381600087803b15801562000bf957600080fd5b505af115801562000c0e573d6000803e3d6000fd5b5050505060006040518061010001604052808481526020018981526020018881526020018781526020018681526020018581526020018373ffffffffffffffffffffffffffffffffffffffff168152602001600015158152509050806006600085815260200190815260200160002060008201518160000155602082015181600101908051906020019062000ca592919062001faf565b50604082015181600201908051906020019062000cc492919062001faf565b50606082015181600301908051906020019062000ce392919062001faf565b506080820151816004015560a0820151816005015560c08201518160060160006101000a81548173ffffffffffffffffffffffffffffffffffffffff021916908373ffffffffffffffffffffffffffffffffffffffff16021790555060e08201518160060160146101000a81548160ff021916908315150217905550905050600781908060018154018082558091505060019003906000526020600020906007020160009091909190915060008201518160000155602082015181600101908051906020019062000db692919062001faf565b50604082015181600201908051906020019062000dd592919062001faf565b50606082015181600301908051906020019062000df492919062001faf565b506080820151816004015560a0820151816005015560c08201518160060160006101000a81548173ffffffffffffffffffffffffffffffffffffffff021916908373ffffffffffffffffffffffffffffffffffffffff16021790555060e08201518160060160146101000a81548160ff02191690831515021790555050508173ffffffffffffffffffffffffffffffffffffffff167f859691b33a0a8f563029a221c9021d1948ab6013a7e2ff6e0701162385ba24d78460405162000eba919062002bf9565b60405180910390a25050505050505050565b600062000eda600462001e33565b905090565b62000ee962002040565b60066000838152602001908152602001600020604051806101000160405290816000820154815260200160018201805462000f249062002ecf565b80601f016020809104026020016040519081016040528092919081815260200182805462000f529062002ecf565b801562000fa35780601f1062000f775761010080835404028352916020019162000fa3565b820191906000526020600020905b81548152906001019060200180831162000f8557829003601f168201915b5050505050815260200160028201805462000fbe9062002ecf565b80601f016020809104026020016040519081016040528092919081815260200182805462000fec9062002ecf565b80156200103d5780601f1062001011576101008083540402835291602001916200103d565b820191906000526020600020905b8154815290600101906020018083116200101f57829003601f168201915b50505050508152602001600382018054620010589062002ecf565b80601f0160208091040260200160405190810160405280929190818152602001828054620010869062002ecf565b8015620010d75780601f10620010ab57610100808354040283529160200191620010d7565b820191906000526020600020905b815481529060010190602001808311620010b957829003601f168201915b5050505050815260200160048201548152602001600582015481526020016006820160009054906101000a900473ffffffffffffffffffffffffffffffffffffffff1673ffffffffffffffffffffffffffffffffffffffff1673ffffffffffffffffffffffffffffffffffffffff1681526020016006820160149054906101000a900460ff1615151515815250509050919050565b60606007805480602002602001604051908101604052809291908181526020016000905b828210156200142257838290600052602060002090600702016040518061010001604052908160008201548152602001600182018054620011d19062002ecf565b80601f0160208091040260200160405190810160405280929190818152602001828054620011ff9062002ecf565b8015620012505780601f10620012245761010080835404028352916020019162001250565b820191906000526020600020905b8154815290600101906020018083116200123257829003601f168201915b505050505081526020016002820180546200126b9062002ecf565b80601f0160208091040260200160405190810160405280929190818152602001828054620012999062002ecf565b8015620012ea5780601f10620012be57610100808354040283529160200191620012ea565b820191906000526020600020905b815481529060010190602001808311620012cc57829003601f168201915b50505050508152602001600382018054620013059062002ecf565b80601f0160208091040260200160405190810160405280929190818152602001828054620013339062002ecf565b8015620013845780601f10620013585761010080835404028352916020019162001384565b820191906000526020600020905b8154815290600101906020018083116200136657829003601f168201915b5050505050815260200160048201548152602001600582015481526020016006820160009054906101000a900473ffffffffffffffffffffffffffffffffffffffff1673ffffffffffffffffffffffffffffffffffffffff1673ffffffffffffffffffffffffffffffffffffffff1681526020016006820160149054906101000a900460ff1615151515815250508152602001906001019062001190565b50505050905090565b6200143562001c30565b62001441600062001e41565b565b600560009054906101000a900473ffffffffffffffffffffffffffffffffffffffff1681565b6000600560009054906101000a900473ffffffffffffffffffffffffffffffffffffffff1673ffffffffffffffffffffffffffffffffffffffff1663a9378ff384846040518363ffffffff1660e01b8152600401620014ca92919062002c16565b60206040518083038186803b158015620014e357600080fd5b505afa158015620014f8573d6000803e3d6000fd5b505050506040513d601f19601f820116820180604052508101906200151e919062002298565b905092915050565b60008060009054906101000a900473ffffffffffffffffffffffffffffffffffffffff16905090565b6200155962001c30565b60006006600083815260200190815260200160002060060160146101000a81548160ff02191690831515021790555050565b600060016000838152602001908152602001600020905060016003811115620015dd577f4e487b7100000000000000000000000000000000000000000000000000000000600052602160045260246000fd5b8160070160009054906101000a900460ff16600381111562001628577f4e487b7100000000000000000000000000000000000000000000000000000000600052602160045260246000fd5b146200166b576040517f08c379a0000000000000000000000000000000000000000000000000000000008152600401620016629062002b6f565b60405180910390fd5b8060050154341015620016b5576040517f08c379a0000000000000000000000000000000000000000000000000000000008152600401620016ac9062002aa3565b60405180910390fd5b60028160070160006101000a81548160ff0219169083600381111562001704577f4e487b7100000000000000000000000000000000000000000000000000000000600052602160045260246000fd5b021790555060006200171562001526565b73ffffffffffffffffffffffffffffffffffffffff16346040516200173a906200297b565b60006040518083038185875af1925050503d806000811462001779576040519150601f19603f3d011682016040523d82523d6000602084013e6200177e565b606091505b5050905080620017c5576040517f08c379a0000000000000000000000000000000000000000000000000000000008152600401620017bc9062002ac5565b60405180910390fd5b505050565b620017d462001c30565b60016006600083815260200190815260200160002060060160146101000a81548160ff02191690831515021790555050565b60025481565b600060026000815480929190620018239062002f3b565b919050559050600060405180610100016040528060025481526020013373ffffffffffffffffffffffffffffffffffffffff16815260200188815260200187815260200186815260200185815260200184815260200160006003811115620018b4577f4e487b7100000000000000000000000000000000000000000000000000000000600052602160045260246000fd5b815250905080600160008481526020019081526020016000206000820151816000015560208201518160010160006101000a81548173ffffffffffffffffffffffffffffffffffffffff021916908373ffffffffffffffffffffffffffffffffffffffff16021790555060408201518160020190805190602001906200193c92919062001faf565b5060608201518160030190805190602001906200195b92919062001faf565b5060808201518160040190805190602001906200197a92919062001faf565b5060a0820151816005015560c0820151816006015560e08201518160070160006101000a81548160ff02191690836003811115620019e1577f4e487b7100000000000000000000000000000000000000000000000000000000600052602160045260246000fd5b0217905550905050600360003373ffffffffffffffffffffffffffffffffffffffff1673ffffffffffffffffffffffffffffffffffffffff16815260200190815260200160002082908060018154018082558091505060019003906000526020600020016000909190919091505550505050505050565b62001a6262001c30565b600073ffffffffffffffffffffffffffffffffffffffff168173ffffffffffffffffffffffffffffffffffffffff16141562001ad5576040517f08c379a000000000000000000000000000000000000000000000000000000000815260040162001acc9062002a81565b60405180910390fd5b62001ae08162001e41565b50565b62001aed62001c30565b6000600381111562001b28577f4e487b7100000000000000000000000000000000000000000000000000000000600052602160045260246000fd5b6001600083815260200190815260200160002060070160009054906101000a900460ff16600381111562001b85577f4e487b7100000000000000000000000000000000000000000000000000000000600052602160045260246000fd5b1462001bc8576040517f08c379a000000000000000000000000000000000000000000000000000000000815260040162001bbf9062002bb3565b60405180910390fd5b600180600083815260200190815260200160002060070160006101000a81548160ff0219169083600381111562001c28577f4e487b7100000000000000000000000000000000000000000000000000000000600052602160045260246000fd5b021790555050565b62001c3a62001f05565b73ffffffffffffffffffffffffffffffffffffffff1662001c5a62001526565b73ffffffffffffffffffffffffffffffffffffffff161462001cb3576040517f08c379a000000000000000000000000000000000000000000000000000000000815260040162001caa9062002b2b565b60405180910390fd5b565b600085511162001cfc576040517f08c379a000000000000000000000000000000000000000000000000000000000815260040162001cf39062002a5f565b60405180910390fd5b600084511162001d43576040517f08c379a000000000000000000000000000000000000000000000000000000000815260040162001d3a9062002ae7565b60405180910390fd5b600083511162001d8a576040517f08c379a000000000000000000000000000000000000000000000000000000000815260040162001d819062002b91565b60405180910390fd5b6000811162001dd0576040517f08c379a000000000000000000000000000000000000000000000000000000000815260040162001dc79062002b09565b60405180910390fd5b6000821162001e16576040517f08c379a000000000000000000000000000000000000000000000000000000000815260040162001e0d9062002b4d565b60405180910390fd5b5050505050565b6001816000016000828254019250508190555050565b600081600001549050919050565b60008060009054906101000a900473ffffffffffffffffffffffffffffffffffffffff169050816000806101000a81548173ffffffffffffffffffffffffffffffffffffffff021916908373ffffffffffffffffffffffffffffffffffffffff1602179055508173ffffffffffffffffffffffffffffffffffffffff168173ffffffffffffffffffffffffffffffffffffffff167f8be0079c531659141344cd1fd0a4f28419497f9722a3daafe3b4186f6b6457e060405160405180910390a35050565b600033905090565b60405180610100016040528060008152602001600073ffffffffffffffffffffffffffffffffffffffff16815260200160608152602001606081526020016060815260200160008152602001600081526020016000600381111562001f9b577f4e487b7100000000000000000000000000000000000000000000000000000000600052602160045260246000fd5b81525090565b612c4d806200330083390190565b82805462001fbd9062002ecf565b90600052602060002090601f01602090048101928262001fe157600085556200202d565b82601f1062001ffc57805160ff19168380011785556200202d565b828001600101855582156200202d579182015b828111156200202c5782518255916020019190600101906200200f565b5b5090506200203c91906200209d565b5090565b604051806101000160405280600081526020016060815260200160608152602001606081526020016000815260200160008152602001600073ffffffffffffffffffffffffffffffffffffffff1681526020016000151581525090565b5b80821115620020b85760008160009055506001016200209e565b5090565b6000620020d3620020cd8462002d0f565b62002ce6565b905082815260208101848484011115620020ec57600080fd5b620020f984828562002e8a565b509392505050565b6000813590506200211281620032cb565b92915050565b600082601f8301126200212a57600080fd5b81356200213c848260208601620020bc565b91505092915050565b6000813590506200215681620032e5565b92915050565b6000815190506200216d81620032e5565b92915050565b6000602082840312156200218657600080fd5b6000620021968482850162002101565b91505092915050565b600080600080600060a08688031215620021b857600080fd5b600086013567ffffffffffffffff811115620021d357600080fd5b620021e18882890162002118565b955050602086013567ffffffffffffffff811115620021ff57600080fd5b6200220d8882890162002118565b945050604086013567ffffffffffffffff8111156200222b57600080fd5b620022398882890162002118565b93505060606200224c8882890162002145565b92505060806200225f8882890162002145565b9150509295509295909350565b6000602082840312156200227f57600080fd5b60006200228f8482850162002145565b91505092915050565b600060208284031215620022ab57600080fd5b6000620022bb848285016200215c565b91505092915050565b60008060408385031215620022d857600080fd5b6000620022e88582860162002145565b9250506020620022fb8582860162002101565b9150509250929050565b6000620023138383620026ef565b905092915050565b6000620023298383620027bd565b905092915050565b6200233c8162002def565b82525050565b6200234d8162002def565b82525050565b6000620023608262002d65565b6200236c818562002da0565b935083602082028501620023808562002d45565b8060005b85811015620023c25784840389528151620023a0858262002305565b9450620023ad8362002d86565b925060208a0199505060018101905062002384565b50829750879550505050505092915050565b6000620023e18262002d70565b620023ed818562002db1565b935083602082028501620024018562002d55565b8060005b858110156200244357848403895281516200242185826200231b565b94506200242e8362002d93565b925060208a0199505060018101905062002405565b50829750879550505050505092915050565b620024608162002e03565b82525050565b620024718162002e4e565b82525050565b620024828162002e76565b82525050565b620024938162002e76565b82525050565b6000620024a68262002d7b565b620024b2818562002dcd565b9350620024c481856020860162002e99565b620024cf8162003045565b840191505092915050565b6000620024e78262002d7b565b620024f3818562002dde565b93506200250581856020860162002e99565b620025108162003045565b840191505092915050565b60006200252a60148362002dde565b9150620025378262003056565b602082019050919050565b60006200255160268362002dde565b91506200255e826200307f565b604082019050919050565b60006200257860248362002dde565b91506200258582620030ce565b604082019050919050565b60006200259f60148362002dde565b9150620025ac826200311d565b602082019050919050565b6000620025c6601b8362002dde565b9150620025d38262003146565b602082019050919050565b6000620025ed60248362002dde565b9150620025fa826200316f565b604082019050919050565b60006200261460208362002dde565b91506200262182620031be565b602082019050919050565b60006200263b60258362002dde565b91506200264882620031e7565b604082019050919050565b60006200266260188362002dde565b91506200266f8262003236565b602082019050919050565b60006200268960008362002dc2565b915062002696826200325f565b600082019050919050565b6000620026b060188362002dde565b9150620026bd8262003262565b602082019050919050565b6000620026d7601f8362002dde565b9150620026e4826200328b565b602082019050919050565b6000610100830160008301516200270a600086018262002959565b5060208301516200271f602086018262002331565b506040830151848203604086015262002739828262002499565b9150506060830151848203606086015262002755828262002499565b9150506080830151848203608086015262002771828262002499565b91505060a08301516200278860a086018262002959565b5060c08301516200279d60c086018262002959565b5060e0830151620027b260e086018262002477565b508091505092915050565b600061010083016000830151620027d8600086018262002959565b5060208301518482036020860152620027f2828262002499565b915050604083015184820360408601526200280e828262002499565b915050606083015184820360608601526200282a828262002499565b915050608083015162002841608086018262002959565b5060a08301516200285660a086018262002959565b5060c08301516200286b60c086018262002331565b5060e08301516200288060e086018262002455565b508091505092915050565b600061010083016000830151620028a6600086018262002959565b5060208301518482036020860152620028c0828262002499565b91505060408301518482036040860152620028dc828262002499565b91505060608301518482036060860152620028f8828262002499565b91505060808301516200290f608086018262002959565b5060a08301516200292460a086018262002959565b5060c08301516200293960c086018262002331565b5060e08301516200294e60e086018262002455565b508091505092915050565b620029648162002e44565b82525050565b620029758162002e44565b82525050565b600062002988826200267a565b9150819050919050565b6000602082019050620029a9600083018462002342565b92915050565b60006020820190508181036000830152620029cb818462002353565b905092915050565b60006020820190508181036000830152620029ef8184620023d4565b905092915050565b600060208201905062002a0e600083018462002466565b92915050565b6000606082019050818103600083015262002a308186620024da565b9050818103602083015262002a468185620024da565b905062002a57604083018462002342565b949350505050565b6000602082019050818103600083015262002a7a816200251b565b9050919050565b6000602082019050818103600083015262002a9c8162002542565b9050919050565b6000602082019050818103600083015262002abe8162002569565b9050919050565b6000602082019050818103600083015262002ae08162002590565b9050919050565b6000602082019050818103600083015262002b0281620025b7565b9050919050565b6000602082019050818103600083015262002b2481620025de565b9050919050565b6000602082019050818103600083015262002b468162002605565b9050919050565b6000602082019050818103600083015262002b68816200262c565b9050919050565b6000602082019050818103600083015262002b8a8162002653565b9050919050565b6000602082019050818103600083015262002bac81620026a1565b9050919050565b6000602082019050818103600083015262002bce81620026c8565b9050919050565b6000602082019050818103600083015262002bf181846200288b565b905092915050565b600060208201905062002c1060008301846200296a565b92915050565b600060408201905062002c2d60008301856200296a565b62002c3c602083018462002342565b9392505050565b60006101008201905062002c5b600083018b6200296a565b62002c6a602083018a62002342565b818103604083015262002c7e8189620024da565b9050818103606083015262002c948188620024da565b9050818103608083015262002caa8187620024da565b905062002cbb60a08301866200296a565b62002cca60c08301856200296a565b62002cd960e083018462002488565b9998505050505050505050565b600062002cf262002d05565b905062002d00828262002f05565b919050565b6000604051905090565b600067ffffffffffffffff82111562002d2d5762002d2c62003016565b5b62002d388262003045565b9050602081019050919050565b6000819050602082019050919050565b6000819050602082019050919050565b600081519050919050565b600081519050919050565b600081519050919050565b6000602082019050919050565b6000602082019050919050565b600082825260208201905092915050565b600082825260208201905092915050565b600081905092915050565b600082825260208201905092915050565b600082825260208201905092915050565b600062002dfc8262002e24565b9050919050565b60008115159050919050565b600081905062002e1f82620032b4565b919050565b600073ffffffffffffffffffffffffffffffffffffffff82169050919050565b6000819050919050565b600062002e5b8262002e62565b9050919050565b600062002e6f8262002e24565b9050919050565b600062002e838262002e0f565b9050919050565b82818337600083830152505050565b60005b8381101562002eb957808201518184015260208101905062002e9c565b8381111562002ec9576000848401525b50505050565b6000600282049050600182168062002ee857607f821691505b6020821081141562002eff5762002efe62002fe7565b5b50919050565b62002f108262003045565b810181811067ffffffffffffffff8211171562002f325762002f3162003016565b5b80604052505050565b600062002f488262002e44565b91507fffffffffffffffffffffffffffffffffffffffffffffffffffffffffffffffff82141562002f7e5762002f7d62002f89565b5b600182019050919050565b7f4e487b7100000000000000000000000000000000000000000000000000000000600052601160045260246000fd5b7f4e487b7100000000000000000000000000000000000000000000000000000000600052602160045260246000fd5b7f4e487b7100000000000000000000000000000000000000000000000000000000600052602260045260246000fd5b7f4e487b7100000000000000000000000000000000000000000000000000000000600052604160045260246000fd5b6000601f19601f8301169050919050565b7f4e616d652063616e6e6f7420626520656d707479000000000000000000000000600082015250565b7f4f776e61626c653a206e6577206f776e657220697320746865207a65726f206160008201527f6464726573730000000000000000000000000000000000000000000000000000602082015250565b7f496e73756666696369656e742066756e647320746f2070617920666f7220736860008201527f6172657300000000000000000000000000000000000000000000000000000000602082015250565b7f4661696c656420746f2073656e64204574686572000000000000000000000000600082015250565b7f4465736372697074696f6e2063616e6e6f7420626520656d7074790000000000600082015250565b7f53686172657320616d6f756e74206d757374206265206772656174657220746860008201527f616e203000000000000000000000000000000000000000000000000000000000602082015250565b7f4f776e61626c653a2063616c6c6572206973206e6f7420746865206f776e6572600082015250565b7f50726f70657274792056616c7565206d7573742062652067726561746572207460008201527f68616e2030000000000000000000000000000000000000000000000000000000602082015250565b7f52657175657374206d75737420626520617070726f7665640000000000000000600082015250565b50565b7f4c6f636174696f6e2063616e6e6f7420626520656d7074790000000000000000600082015250565b7f52657175657374206973206e6f742070656e64696e6720617070726f76616c00600082015250565b60048110620032c857620032c762002fb8565b5b50565b620032d68162002def565b8114620032e257600080fd5b50565b620032f08162002e44565b8114620032fc57600080fd5b5056fe60806040523480156200001157600080fd5b5060405162002c4d38038062002c4d833981810160405281019062000037919062000209565b8282816000908051906020019062000051929190620000d0565b5080600190805190602001906200006a929190620000d0565b505050816007908051906020019062000085929190620000d0565b5080600860006101000a81548173ffffffffffffffffffffffffffffffffffffffff021916908373ffffffffffffffffffffffffffffffffffffffff1602179055505050506200044f565b828054620000de906200035a565b90600052602060002090601f0160209004810192826200010257600085556200014e565b82601f106200011d57805160ff19168380011785556200014e565b828001600101855582156200014e579182015b828111156200014d57825182559160200191906001019062000130565b5b5090506200015d919062000161565b5090565b5b808211156200017c57600081600090555060010162000162565b5090565b6000620001976200019184620002ba565b62000291565b905082815260208101848484011115620001b057600080fd5b620001bd84828562000324565b509392505050565b600081519050620001d68162000435565b92915050565b600082601f830112620001ee57600080fd5b81516200020084826020860162000180565b91505092915050565b6000806000606084860312156200021f57600080fd5b600084015167ffffffffffffffff8111156200023a57600080fd5b6200024886828701620001dc565b935050602084015167ffffffffffffffff8111156200026657600080fd5b6200027486828701620001dc565b92505060406200028786828701620001c5565b9150509250925092565b60006200029d620002b0565b9050620002ab828262000390565b919050565b6000604051905090565b600067ffffffffffffffff821115620002d857620002d7620003f5565b5b620002e38262000424565b9050602081019050919050565b6000620002fd8262000304565b9050919050565b600073ffffffffffffffffffffffffffffffffffffffff82169050919050565b60005b838110156200034457808201518184015260208101905062000327565b8381111562000354576000848401525b50505050565b600060028204905060018216806200037357607f821691505b602082108114156200038a5762000389620003c6565b5b50919050565b6200039b8262000424565b810181811067ffffffffffffffff82111715620003bd57620003bc620003f5565b5b80604052505050565b7f4e487b7100000000000000000000000000000000000000000000000000000000600052602260045260246000fd5b7f4e487b7100000000000000000000000000000000000000000000000000000000600052604160045260246000fd5b6000601f19601f8301169050919050565b6200044081620002f0565b81146200044c57600080fd5b50565b6127ee806200045f6000396000f3fe608060405234801561001057600080fd5b50600436106101005760003560e01c806370a0823111610097578063b88d4fde11610066578063b88d4fde146102ab578063c87b56dd146102c7578063e985e9c5146102f7578063f576c9381461032757610100565b806370a08231146102235780637284e4161461025357806395d89b4114610271578063a22cb4651461028f57610100565b806323b872dd116100d357806323b872dd1461019f57806342842e0e146101bb5780636352211e146101d75780636a6278421461020757610100565b806301ffc9a71461010557806306fdde0314610135578063081812fc14610153578063095ea7b314610183575b600080fd5b61011f600480360381019061011a9190611cd9565b610343565b60405161012c919061207f565b60405180910390f35b61013d610425565b60405161014a919061209a565b60405180910390f35b61016d60048036038101906101689190611d2b565b6104b7565b60405161017a9190612018565b60405180910390f35b61019d60048036038101906101989190611c9d565b6104fd565b005b6101b960048036038101906101b49190611b97565b610615565b005b6101d560048036038101906101d09190611b97565b610675565b005b6101f160048036038101906101ec9190611d2b565b610695565b6040516101fe9190612018565b60405180910390f35b610221600480360381019061021c9190611b32565b61071c565b005b61023d60048036038101906102389190611b32565b61073c565b60405161024a919061221c565b60405180910390f35b61025b6107f4565b604051610268919061209a565b60405180910390f35b610279610886565b604051610286919061209a565b60405180910390f35b6102a960048036038101906102a49190611c61565b610918565b005b6102c560048036038101906102c09190611be6565b61092e565b005b6102e160048036038101906102dc9190611d2b565b610990565b6040516102ee919061209a565b60405180910390f35b610311600480360381019061030c9190611b5b565b6109f8565b60405161031e919061207f565b60405180910390f35b610341600480360381019061033c9190611d54565b610a8c565b005b60007f80ac58cd000000000000000000000000000000000000000000000000000000007bffffffffffffffffffffffffffffffffffffffffffffffffffffffff1916827bffffffffffffffffffffffffffffffffffffffffffffffffffffffff1916148061040e57507f5b5e139f000000000000000000000000000000000000000000000000000000007bffffffffffffffffffffffffffffffffffffffffffffffffffffffff1916827bffffffffffffffffffffffffffffffffffffffffffffffffffffffff1916145b8061041e575061041d82610b22565b5b9050919050565b606060008054610434906123bd565b80601f0160208091040260200160405190810160405280929190818152602001828054610460906123bd565b80156104ad5780601f10610482576101008083540402835291602001916104ad565b820191906000526020600020905b81548152906001019060200180831161049057829003601f168201915b5050505050905090565b60006104c282610b8c565b6004600083815260200190815260200160002060009054906101000a900473ffffffffffffffffffffffffffffffffffffffff169050919050565b600061050882610695565b90508073ffffffffffffffffffffffffffffffffffffffff168373ffffffffffffffffffffffffffffffffffffffff161415610579576040517f08c379a0000000000000000000000000000000000000000000000000000000008152600401610570906121dc565b60405180910390fd5b8073ffffffffffffffffffffffffffffffffffffffff16610598610bd7565b73ffffffffffffffffffffffffffffffffffffffff1614806105c757506105c6816105c1610bd7565b6109f8565b5b610606576040517f08c379a00000000000000000000000000000000000000000000000000000000081526004016105fd906121fc565b60405180910390fd5b6106108383610bdf565b505050565b610626610620610bd7565b82610c98565b610665576040517f08c379a000000000000000000000000000000000000000000000000000000000815260040161065c906120bc565b60405180910390fd5b610670838383610d2d565b505050565b6106908383836040518060200160405280600081525061092e565b505050565b6000806106a183611027565b9050600073ffffffffffffffffffffffffffffffffffffffff168173ffffffffffffffffffffffffffffffffffffffff161415610713576040517f08c379a000000000000000000000000000000000000000000000000000000000815260040161070a906121bc565b60405180910390fd5b80915050919050565b6107266006611064565b61073981610734600661107a565b611088565b50565b60008073ffffffffffffffffffffffffffffffffffffffff168273ffffffffffffffffffffffffffffffffffffffff1614156107ad576040517f08c379a00000000000000000000000000000000000000000000000000000000081526004016107a49061217c565b60405180910390fd5b600360008373ffffffffffffffffffffffffffffffffffffffff1673ffffffffffffffffffffffffffffffffffffffff168152602001908152602001600020549050919050565b606060078054610803906123bd565b80601f016020809104026020016040519081016040528092919081815260200182805461082f906123bd565b801561087c5780601f106108515761010080835404028352916020019161087c565b820191906000526020600020905b81548152906001019060200180831161085f57829003601f168201915b5050505050905090565b606060018054610895906123bd565b80601f01602080910402602001604051908101604052809291908181526020018280546108c1906123bd565b801561090e5780601f106108e35761010080835404028352916020019161090e565b820191906000526020600020905b8154815290600101906020018083116108f157829003601f168201915b5050505050905090565b61092a610923610bd7565b83836110a6565b5050565b61093f610939610bd7565b83610c98565b61097e576040517f08c379a0000000000000000000000000000000000000000000000000000000008152600401610975906120bc565b60405180910390fd5b61098a84848484611213565b50505050565b606061099b82610b8c565b60006109a561126f565b905060008151116109c557604051806020016040528060008152506109f0565b806109cf84611286565b6040516020016109e0929190611ff4565b6040516020818303038152906040525b915050919050565b6000600560008473ffffffffffffffffffffffffffffffffffffffff1673ffffffffffffffffffffffffffffffffffffffff16815260200190815260200160002060008373ffffffffffffffffffffffffffffffffffffffff1673ffffffffffffffffffffffffffffffffffffffff16815260200190815260200160002060009054906101000a900460ff16905092915050565b600860009054906101000a900473ffffffffffffffffffffffffffffffffffffffff1673ffffffffffffffffffffffffffffffffffffffff1663618ac8518484846040518463ffffffff1660e01b8152600401610aeb93929190612237565b600060405180830381600087803b158015610b0557600080fd5b505af1158015610b19573d6000803e3d6000fd5b50505050505050565b60007f01ffc9a7000000000000000000000000000000000000000000000000000000007bffffffffffffffffffffffffffffffffffffffffffffffffffffffff1916827bffffffffffffffffffffffffffffffffffffffffffffffffffffffff1916149050919050565b610b95816113aa565b610bd4576040517f08c379a0000000000000000000000000000000000000000000000000000000008152600401610bcb906121bc565b60405180910390fd5b50565b600033905090565b816004600083815260200190815260200160002060006101000a81548173ffffffffffffffffffffffffffffffffffffffff021916908373ffffffffffffffffffffffffffffffffffffffff160217905550808273ffffffffffffffffffffffffffffffffffffffff16610c5283610695565b73ffffffffffffffffffffffffffffffffffffffff167f8c5be1e5ebec7d5bd14f71427d1e84f3dd0314c0f7b2291e5b200ac8c7c3b92560405160405180910390a45050565b600080610ca483610695565b90508073ffffffffffffffffffffffffffffffffffffffff168473ffffffffffffffffffffffffffffffffffffffff161480610ce65750610ce581856109f8565b5b80610d2457508373ffffffffffffffffffffffffffffffffffffffff16610d0c846104b7565b73ffffffffffffffffffffffffffffffffffffffff16145b91505092915050565b8273ffffffffffffffffffffffffffffffffffffffff16610d4d82610695565b73ffffffffffffffffffffffffffffffffffffffff1614610da3576040517f08c379a0000000000000000000000000000000000000000000000000000000008152600401610d9a906120fc565b60405180910390fd5b600073ffffffffffffffffffffffffffffffffffffffff168273ffffffffffffffffffffffffffffffffffffffff161415610e13576040517f08c379a0000000000000000000000000000000000000000000000000000000008152600401610e0a9061213c565b60405180910390fd5b610e2083838360016113eb565b8273ffffffffffffffffffffffffffffffffffffffff16610e4082610695565b73ffffffffffffffffffffffffffffffffffffffff1614610e96576040517f08c379a0000000000000000000000000000000000000000000000000000000008152600401610e8d906120fc565b60405180910390fd5b6004600082815260200190815260200160002060006101000a81549073ffffffffffffffffffffffffffffffffffffffff02191690556001600360008573ffffffffffffffffffffffffffffffffffffffff1673ffffffffffffffffffffffffffffffffffffffff168152602001908152602001600020600082825403925050819055506001600360008473ffffffffffffffffffffffffffffffffffffffff1673ffffffffffffffffffffffffffffffffffffffff16815260200190815260200160002060008282540192505081905550816002600083815260200190815260200160002060006101000a81548173ffffffffffffffffffffffffffffffffffffffff021916908373ffffffffffffffffffffffffffffffffffffffff160217905550808273ffffffffffffffffffffffffffffffffffffffff168473ffffffffffffffffffffffffffffffffffffffff167fddf252ad1be2c89b69c2b068fc378daa952ba7f163c4a11628f55a4df523b3ef60405160405180910390a461102283838360016113f1565b505050565b60006002600083815260200190815260200160002060009054906101000a900473ffffffffffffffffffffffffffffffffffffffff169050919050565b6001816000016000828254019250508190555050565b600081600001549050919050565b6110a28282604051806020016040528060008152506113f7565b5050565b8173ffffffffffffffffffffffffffffffffffffffff168373ffffffffffffffffffffffffffffffffffffffff161415611115576040517f08c379a000000000000000000000000000000000000000000000000000000000815260040161110c9061215c565b60405180910390fd5b80600560008573ffffffffffffffffffffffffffffffffffffffff1673ffffffffffffffffffffffffffffffffffffffff16815260200190815260200160002060008473ffffffffffffffffffffffffffffffffffffffff1673ffffffffffffffffffffffffffffffffffffffff16815260200190815260200160002060006101000a81548160ff0219169083151502179055508173ffffffffffffffffffffffffffffffffffffffff168373ffffffffffffffffffffffffffffffffffffffff167f17307eab39ab6107e8899845ad3d59bd9653f200f220920489ca2b5937696c3183604051611206919061207f565b60405180910390a3505050565b61121e848484610d2d565b61122a84848484611452565b611269576040517f08c379a0000000000000000000000000000000000000000000000000000000008152600401611260906120dc565b60405180910390fd5b50505050565b606060405180602001604052806000815250905090565b606060006001611295846115e9565b01905060008167ffffffffffffffff8111156112da577f4e487b7100000000000000000000000000000000000000000000000000000000600052604160045260246000fd5b6040519080825280601f01601f19166020018201604052801561130c5781602001600182028036833780820191505090505b509050600082602001820190505b60011561139f578080600190039150507f3031323334353637383961626364656600000000000000000000000000000000600a86061a8153600a8581611389577f4e487b7100000000000000000000000000000000000000000000000000000000600052601260045260246000fd5b049450600085141561139a5761139f565b61131a565b819350505050919050565b60008073ffffffffffffffffffffffffffffffffffffffff166113cc83611027565b73ffffffffffffffffffffffffffffffffffffffff1614159050919050565b50505050565b50505050565b6114018383611820565b61140e6000848484611452565b61144d576040517f08c379a0000000000000000000000000000000000000000000000000000000008152600401611444906120dc565b60405180910390fd5b505050565b60006114738473ffffffffffffffffffffffffffffffffffffffff16611a3e565b156115dc578373ffffffffffffffffffffffffffffffffffffffff1663150b7a0261149c610bd7565b8786866040518563ffffffff1660e01b81526004016114be9493929190612033565b602060405180830381600087803b1580156114d857600080fd5b505af192505050801561150957506040513d601f19601f820116820180604052508101906115069190611d02565b60015b61158c573d8060008114611539576040519150601f19603f3d011682016040523d82523d6000602084013e61153e565b606091505b50600081511415611584576040517f08c379a000000000000000000000000000000000000000000000000000000000815260040161157b906120dc565b60405180910390fd5b805181602001fd5b63150b7a0260e01b7bffffffffffffffffffffffffffffffffffffffffffffffffffffffff1916817bffffffffffffffffffffffffffffffffffffffffffffffffffffffff1916149150506115e1565b600190505b949350505050565b600080600090507a184f03e93ff9f4daa797ed6e38ed64bf6a1f010000000000000000831061166d577a184f03e93ff9f4daa797ed6e38ed64bf6a1f0100000000000000008381611663577f4e487b7100000000000000000000000000000000000000000000000000000000600052601260045260246000fd5b0492506040810190505b6d04ee2d6d415b85acef810000000083106116d0576d04ee2d6d415b85acef810000000083816116c6577f4e487b7100000000000000000000000000000000000000000000000000000000600052601260045260246000fd5b0492506020810190505b662386f26fc10000831061172557662386f26fc10000838161171b577f4e487b7100000000000000000000000000000000000000000000000000000000600052601260045260246000fd5b0492506010810190505b6305f5e1008310611774576305f5e100838161176a577f4e487b7100000000000000000000000000000000000000000000000000000000600052601260045260246000fd5b0492506008810190505b61271083106117bf5761271083816117b5577f4e487b7100000000000000000000000000000000000000000000000000000000600052601260045260246000fd5b0492506004810190505b6064831061180857606483816117fe577f4e487b7100000000000000000000000000000000000000000000000000000000600052601260045260246000fd5b0492506002810190505b600a8310611817576001810190505b80915050919050565b600073ffffffffffffffffffffffffffffffffffffffff168273ffffffffffffffffffffffffffffffffffffffff161415611890576040517f08c379a00000000000000000000000000000000000000000000000000000000081526004016118879061219c565b60405180910390fd5b611899816113aa565b156118d9576040517f08c379a00000000000000000000000000000000000000000000000000000000081526004016118d09061211c565b60405180910390fd5b6118e76000838360016113eb565b6118f0816113aa565b15611930576040517f08c379a00000000000000000000000000000000000000000000000000000000081526004016119279061211c565b60405180910390fd5b6001600360008473ffffffffffffffffffffffffffffffffffffffff1673ffffffffffffffffffffffffffffffffffffffff16815260200190815260200160002060008282540192505081905550816002600083815260200190815260200160002060006101000a81548173ffffffffffffffffffffffffffffffffffffffff021916908373ffffffffffffffffffffffffffffffffffffffff160217905550808273ffffffffffffffffffffffffffffffffffffffff16600073ffffffffffffffffffffffffffffffffffffffff167fddf252ad1be2c89b69c2b068fc378daa952ba7f163c4a11628f55a4df523b3ef60405160405180910390a4611a3a6000838360016113f1565b5050565b6000808273ffffffffffffffffffffffffffffffffffffffff163b119050919050565b6000611a74611a6f84612293565b61226e565b905082815260208101848484011115611a8c57600080fd5b611a9784828561237b565b509392505050565b600081359050611aae8161275c565b92915050565b600081359050611ac381612773565b92915050565b600081359050611ad88161278a565b92915050565b600081519050611aed8161278a565b92915050565b600082601f830112611b0457600080fd5b8135611b14848260208601611a61565b91505092915050565b600081359050611b2c816127a1565b92915050565b600060208284031215611b4457600080fd5b6000611b5284828501611a9f565b91505092915050565b60008060408385031215611b6e57600080fd5b6000611b7c85828601611a9f565b9250506020611b8d85828601611a9f565b9150509250929050565b600080600060608486031215611bac57600080fd5b6000611bba86828701611a9f565b9350506020611bcb86828701611a9f565b9250506040611bdc86828701611b1d565b9150509250925092565b60008060008060808587031215611bfc57600080fd5b6000611c0a87828801611a9f565b9450506020611c1b87828801611a9f565b9350506040611c2c87828801611b1d565b925050606085013567ffffffffffffffff811115611c4957600080fd5b611c5587828801611af3565b91505092959194509250565b60008060408385031215611c7457600080fd5b6000611c8285828601611a9f565b9250506020611c9385828601611ab4565b9150509250929050565b60008060408385031215611cb057600080fd5b6000611cbe85828601611a9f565b9250506020611ccf85828601611b1d565b9150509250929050565b600060208284031215611ceb57600080fd5b6000611cf984828501611ac9565b91505092915050565b600060208284031215611d1457600080fd5b6000611d2284828501611ade565b91505092915050565b600060208284031215611d3d57600080fd5b6000611d4b84828501611b1d565b91505092915050565b600080600060608486031215611d6957600080fd5b6000611d7786828701611b1d565b9350506020611d8886828701611a9f565b9250506040611d9986828701611b1d565b9150509250925092565b611dac81612307565b82525050565b611dbb81612319565b82525050565b6000611dcc826122c4565b611dd681856122da565b9350611de681856020860161238a565b611def8161247e565b840191505092915050565b6000611e05826122cf565b611e0f81856122eb565b9350611e1f81856020860161238a565b611e288161247e565b840191505092915050565b6000611e3e826122cf565b611e4881856122fc565b9350611e5881856020860161238a565b80840191505092915050565b6000611e71602d836122eb565b9150611e7c8261248f565b604082019050919050565b6000611e946032836122eb565b9150611e9f826124de565b604082019050919050565b6000611eb76025836122eb565b9150611ec28261252d565b604082019050919050565b6000611eda601c836122eb565b9150611ee58261257c565b602082019050919050565b6000611efd6024836122eb565b9150611f08826125a5565b604082019050919050565b6000611f206019836122eb565b9150611f2b826125f4565b602082019050919050565b6000611f436029836122eb565b9150611f4e8261261d565b604082019050919050565b6000611f666020836122eb565b9150611f718261266c565b602082019050919050565b6000611f896018836122eb565b9150611f9482612695565b602082019050919050565b6000611fac6021836122eb565b9150611fb7826126be565b604082019050919050565b6000611fcf603d836122eb565b9150611fda8261270d565b604082019050919050565b611fee81612371565b82525050565b60006120008285611e33565b915061200c8284611e33565b91508190509392505050565b600060208201905061202d6000830184611da3565b92915050565b60006080820190506120486000830187611da3565b6120556020830186611da3565b6120626040830185611fe5565b81810360608301526120748184611dc1565b905095945050505050565b60006020820190506120946000830184611db2565b92915050565b600060208201905081810360008301526120b48184611dfa565b905092915050565b600060208201905081810360008301526120d581611e64565b9050919050565b600060208201905081810360008301526120f581611e87565b9050919050565b6000602082019050818103600083015261211581611eaa565b9050919050565b6000602082019050818103600083015261213581611ecd565b9050919050565b6000602082019050818103600083015261215581611ef0565b9050919050565b6000602082019050818103600083015261217581611f13565b9050919050565b6000602082019050818103600083015261219581611f36565b9050919050565b600060208201905081810360008301526121b581611f59565b9050919050565b600060208201905081810360008301526121d581611f7c565b9050919050565b600060208201905081810360008301526121f581611f9f565b9050919050565b6000602082019050818103600083015261221581611fc2565b9050919050565b60006020820190506122316000830184611fe5565b92915050565b600060608201905061224c6000830186611fe5565b6122596020830185611da3565b6122666040830184611fe5565b949350505050565b6000612278612289565b905061228482826123ef565b919050565b6000604051905090565b600067ffffffffffffffff8211156122ae576122ad61244f565b5b6122b78261247e565b9050602081019050919050565b600081519050919050565b600081519050919050565b600082825260208201905092915050565b600082825260208201905092915050565b600081905092915050565b600061231282612351565b9050919050565b60008115159050919050565b60007fffffffff0000000000000000000000000000000000000000000000000000000082169050919050565b600073ffffffffffffffffffffffffffffffffffffffff82169050919050565b6000819050919050565b82818337600083830152505050565b60005b838110156123a857808201518184015260208101905061238d565b838111156123b7576000848401525b50505050565b600060028204905060018216806123d557607f821691505b602082108114156123e9576123e8612420565b5b50919050565b6123f88261247e565b810181811067ffffffffffffffff821117156124175761241661244f565b5b80604052505050565b7f4e487b7100000000000000000000000000000000000000000000000000000000600052602260045260246000fd5b7f4e487b7100000000000000000000000000000000000000000000000000000000600052604160045260246000fd5b6000601f19601f8301169050919050565b7f4552433732313a2063616c6c6572206973206e6f7420746f6b656e206f776e6560008201527f72206f7220617070726f76656400000000000000000000000000000000000000602082015250565b7f4552433732313a207472616e7366657220746f206e6f6e20455243373231526560008201527f63656976657220696d706c656d656e7465720000000000000000000000000000602082015250565b7f4552433732313a207472616e736665722066726f6d20696e636f72726563742060008201527f6f776e6572000000000000000000000000000000000000000000000000000000602082015250565b7f4552433732313a20746f6b656e20616c7265616479206d696e74656400000000600082015250565b7f4552433732313a207472616e7366657220746f20746865207a65726f2061646460008201527f7265737300000000000000000000000000000000000000000000000000000000602082015250565b7f4552433732313a20617070726f766520746f2063616c6c657200000000000000600082015250565b7f4552433732313a2061646472657373207a65726f206973206e6f74206120766160008201527f6c6964206f776e65720000000000000000000000000000000000000000000000602082015250565b7f4552433732313a206d696e7420746f20746865207a65726f2061646472657373600082015250565b7f4552433732313a20696e76616c696420746f6b656e2049440000000000000000600082015250565b7f4552433732313a20617070726f76616c20746f2063757272656e74206f776e6560008201527f7200000000000000000000000000000000000000000000000000000000000000602082015250565b7f4552433732313a20617070726f76652063616c6c6572206973206e6f7420746f60008201527f6b656e206f776e6572206f7220617070726f76656420666f7220616c6c000000602082015250565b61276581612307565b811461277057600080fd5b50565b61277c81612319565b811461278757600080fd5b50565b61279381612325565b811461279e57600080fd5b50565b6127aa81612371565b81146127b557600080fd5b5056fea2646970667358221220aa279ef704628c5aae209c5e3cdb1a16340bfa2001423c19afe7ca00893607ec64736f6c63430008030033a26469706673582212205393d7ff5f94274db460f7305b9e3927f0fac22e8c5687bcd76a31d42b9a90dc64736f6c63430008030033",
  "linkReferences": {},
  "deployedLinkReferences": {}
}