{
  "_format": "hh-sol-artifact-1",
  "contractName": "RealEstateShareToken",
  "sourceName": "contracts/RealEstateShareToken.sol",
  "abi": [
    {
      "inputs": [
        {
          "internalType": "string",
          "name": "name",
          "type": "string"
        },
        {
          "internalType": "string",
          "name": "symbol",
          "type": "string"
        }
      ],
      "stateMutability": "nonpayable",
      "type": "constructor"
    },
    {
      "anonymous": false,
      "inputs": [
        {
          "indexed": true,
          "internalType": "address",
          "name": "owner",
          "type": "address"
        },
        {
          "indexed": true,
          "internalType": "address",
          "name": "spender",
          "type": "address"
        },
        {
          "indexed": false,
          "internalType": "uint256",
          "name": "value",
          "type": "uint256"
        }
      ],
      "name": "Approval",
      "type": "event"
    },
    {
      "anonymous": false,
      "inputs": [
        {
          "indexed": true,
          "internalType": "address",
          "name": "from",
          "type": "address"
        },
        {
          "indexed": true,
          "internalType": "address",
          "name": "to",
          "type": "address"
        },
        {
          "indexed": false,
          "internalType": "uint256",
          "name": "value",
          "type": "uint256"
        }
      ],
      "name": "Transfer",
      "type": "event"
    },
    {
      "inputs": [
        {
          "internalType": "address",
          "name": "owner",
          "type": "address"
        },
        {
          "internalType": "address",
          "name": "spender",
          "type": "address"
        }
      ],
      "name": "allowance",
      "outputs": [
        {
          "internalType": "uint256",
          "name": "",
          "type": "uint256"
        }
      ],
      "stateMutability": "view",
      "type": "function"
    },
    {
      "inputs": [
        {
          "internalType": "address",
          "name": "spender",
          "type": "address"
        },
        {
          "internalType": "uint256",
          "name": "amount",
          "type": "uint256"
        }
      ],
      "name": "approve",
      "outputs": [
        {
          "internalType": "bool",
          "name": "",
          "type": "bool"
        }
      ],
      "stateMutability": "nonpayable",
      "type": "function"
    },
    {
      "inputs": [
        {
          "internalType": "address",
          "name": "account",
          "type": "address"
        }
      ],
      "name": "balanceOf",
      "outputs": [
        {
          "internalType": "uint256",
          "name": "",
          "type": "uint256"
        }
      ],
      "stateMutability": "view",
      "type": "function"
    },
    {
      "inputs": [],
      "name": "decimals",
      "outputs": [
        {
          "internalType": "uint8",
          "name": "",
          "type": "uint8"
        }
      ],
      "stateMutability": "view",
      "type": "function"
    },
    {
      "inputs": [
        {
          "internalType": "address",
          "name": "spender",
          "type": "address"
        },
        {
          "internalType": "uint256",
          "name": "subtractedValue",
          "type": "uint256"
        }
      ],
      "name": "decreaseAllowance",
      "outputs": [
        {
          "internalType": "bool",
          "name": "",
          "type": "bool"
        }
      ],
      "stateMutability": "nonpayable",
      "type": "function"
    },
    {
      "inputs": [
        {
          "internalType": "uint256",
          "name": "propertyId",
          "type": "uint256"
        }
      ],
      "name": "getPropertyShareholders",
      "outputs": [
        {
          "components": [
            {
              "internalType": "address",
              "name": "shareholder",
              "type": "address"
            },
            {
              "internalType": "uint256",
              "name": "shareAmount",
              "type": "uint256"
            }
          ],
          "internalType": "struct RealEstateShareToken.Shareholder[]",
          "name": "",
          "type": "tuple[]"
        }
      ],
      "stateMutability": "view",
      "type": "function"
    },
    {
      "inputs": [
        {
          "internalType": "address",
          "name": "spender",
          "type": "address"
        },
        {
          "internalType": "uint256",
          "name": "addedValue",
          "type": "uint256"
        }
      ],
      "name": "increaseAllowance",
      "outputs": [
        {
          "internalType": "bool",
          "name": "",
          "type": "bool"
        }
      ],
      "stateMutability": "nonpayable",
      "type": "function"
    },
    {
      "inputs": [
        {
          "internalType": "uint256",
          "name": "propertyId",
          "type": "uint256"
        },
        {
          "internalType": "address",
          "name": "account",
          "type": "address"
        },
        {
          "internalType": "uint256",
          "name": "amount",
          "type": "uint256"
        }
      ],
      "name": "mintPropertyShares",
      "outputs": [],
      "stateMutability": "nonpayable",
      "type": "function"
    },
    {
      "inputs": [],
      "name": "name",
      "outputs": [
        {
          "internalType": "string",
          "name": "",
          "type": "string"
        }
      ],
      "stateMutability": "view",
      "type": "function"
    },
    {
      "inputs": [
        {
          "internalType": "uint256",
          "name": "propertyId",
          "type": "uint256"
        },
        {
          "internalType": "address",
          "name": "account",
          "type": "address"
        }
      ],
      "name": "propertyBalanceOf",
      "outputs": [
        {
          "internalType": "uint256",
          "name": "",
          "type": "uint256"
        }
      ],
      "stateMutability": "view",
      "type": "function"
    },
    {
      "inputs": [
        {
          "internalType": "uint256",
          "name": "propertyId",
          "type": "uint256"
        },
        {
          "internalType": "address",
          "name": "shareholder",
          "type": "address"
        }
      ],
      "name": "removeShareholder",
      "outputs": [],
      "stateMutability": "nonpayable",
      "type": "function"
    },
    {
      "inputs": [],
      "name": "symbol",
      "outputs": [
        {
          "internalType": "string",
          "name": "",
          "type": "string"
        }
      ],
      "stateMutability": "view",
      "type": "function"
    },
    {
      "inputs": [],
      "name": "totalSupply",
      "outputs": [
        {
          "internalType": "uint256",
          "name": "",
          "type": "uint256"
        }
      ],
      "stateMutability": "view",
      "type": "function"
    },
    {
      "inputs": [
        {
          "internalType": "address",
          "name": "to",
          "type": "address"
        },
        {
          "internalType": "uint256",
          "name": "amount",
          "type": "uint256"
        }
      ],
      "name": "transfer",
      "outputs": [
        {
          "internalType": "bool",
          "name": "",
          "type": "bool"
        }
      ],
      "stateMutability": "nonpayable",
      "type": "function"
    },
    {
      "inputs": [
        {
          "internalType": "address",
          "name": "from",
          "type": "address"
        },
        {
          "internalType": "address",
          "name": "to",
          "type": "address"
        },
        {
          "internalType": "uint256",
          "name": "amount",
          "type": "uint256"
        }
      ],
      "name": "transferFrom",
      "outputs": [
        {
          "internalType": "bool",
          "name": "",
          "type": "bool"
        }
      ],
      "stateMutability": "nonpayable",
      "type": "function"
    },
    {
      "inputs": [
        {
          "internalType": "uint256",
          "name": "propertyId",
          "type": "uint256"
        },
        {
          "internalType": "address",
          "name": "sender",
          "type": "address"
        },
        {
          "internalType": "address",
          "name": "recipient",
          "type": "address"
        },
        {
          "internalType": "uint256",
          "name": "amount",
          "type": "uint256"
        }
      ],
      "name": "transferPropertyShares",
      "outputs": [],
      "stateMutability": "nonpayable",
      "type": "function"
    }
  ],
  "bytecode": "0x60806040523480156200001157600080fd5b506040516200260338038062002603833981810160405281019062000037919062000197565b818181600390805190602001906200005192919062000075565b5080600490805190602001906200006a92919062000075565b50505050506200037a565b82805462000083906200029f565b90600052602060002090601f016020900481019282620000a75760008555620000f3565b82601f10620000c257805160ff1916838001178555620000f3565b82800160010185558215620000f3579182015b82811115620000f2578251825591602001919060010190620000d5565b5b50905062000102919062000106565b5090565b5b808211156200012157600081600090555060010162000107565b5090565b60006200013c620001368462000233565b6200020a565b9050828152602081018484840111156200015557600080fd5b6200016284828562000269565b509392505050565b600082601f8301126200017c57600080fd5b81516200018e84826020860162000125565b91505092915050565b60008060408385031215620001ab57600080fd5b600083015167ffffffffffffffff811115620001c657600080fd5b620001d4858286016200016a565b925050602083015167ffffffffffffffff811115620001f257600080fd5b62000200858286016200016a565b9150509250929050565b60006200021662000229565b9050620002248282620002d5565b919050565b6000604051905090565b600067ffffffffffffffff8211156200025157620002506200033a565b5b6200025c8262000369565b9050602081019050919050565b60005b83811015620002895780820151818401526020810190506200026c565b8381111562000299576000848401525b50505050565b60006002820490506001821680620002b857607f821691505b60208210811415620002cf57620002ce6200030b565b5b50919050565b620002e08262000369565b810181811067ffffffffffffffff821117156200030257620003016200033a565b5b80604052505050565b7f4e487b7100000000000000000000000000000000000000000000000000000000600052602260045260246000fd5b7f4e487b7100000000000000000000000000000000000000000000000000000000600052604160045260246000fd5b6000601f19601f8301169050919050565b612279806200038a6000396000f3fe608060405234801561001057600080fd5b50600436106101005760003560e01c8063706d871b11610097578063a457c2d711610066578063a457c2d7146102c1578063a9059cbb146102f1578063a9378ff314610321578063dd62ed3e1461035157610100565b8063706d871b1461023b57806370a08231146102575780638b441aa21461028757806395d89b41146102a357610100565b8063313ce567116100d3578063313ce567146101a157806339509351146101bf57806356a79e91146101ef578063618ac8511461021f57610100565b806306fdde0314610105578063095ea7b31461012357806318160ddd1461015357806323b872dd14610171575b600080fd5b61010d610381565b60405161011a9190611b62565b60405180910390f35b61013d6004803603810190610138919061174b565b610413565b60405161014a9190611b47565b60405180910390f35b61015b610436565b6040516101689190611cc4565b60405180910390f35b61018b600480360381019061018691906116fc565b610440565b6040516101989190611b47565b60405180910390f35b6101a961046f565b6040516101b69190611cdf565b60405180910390f35b6101d960048036038101906101d4919061174b565b610478565b6040516101e69190611b47565b60405180910390f35b61020960048036038101906102049190611787565b6104af565b6040516102169190611b25565b60405180910390f35b6102396004803603810190610234919061184f565b61073b565b005b610255600480360381019061025091906117b0565b6107bb565b005b610271600480360381019061026c9190611697565b610afb565b60405161027e9190611cc4565b60405180910390f35b6102a1600480360381019061029c91906117ec565b610b43565b005b6102ab610c90565b6040516102b89190611b62565b60405180910390f35b6102db60048036038101906102d6919061174b565b610d22565b6040516102e89190611b47565b60405180910390f35b61030b6004803603810190610306919061174b565b610d99565b6040516103189190611b47565b60405180910390f35b61033b600480360381019061033691906117b0565b610dbc565b6040516103489190611cc4565b60405180910390f35b61036b600480360381019061036691906116c0565b610e17565b6040516103789190611cc4565b60405180910390f35b60606003805461039090611e61565b80601f01602080910402602001604051908101604052809291908181526020018280546103bc90611e61565b80156104095780601f106103de57610100808354040283529160200191610409565b820191906000526020600020905b8154815290600101906020018083116103ec57829003601f168201915b5050505050905090565b60008061041e610e9e565b905061042b818585610ea6565b600191505092915050565b6000600254905090565b60008061044b610e9e565b9050610458858285611071565b6104638585856110fd565b60019150509392505050565b60006012905090565b600080610483610e9e565b90506104a48185856104958589610e17565b61049f9190611d4f565b610ea6565b600191505092915050565b606060006005600084815260200190815260200160002080548060200260200160405190810160405280929190818152602001828054801561054657602002820191906000526020600020905b8160009054906101000a900473ffffffffffffffffffffffffffffffffffffffff1673ffffffffffffffffffffffffffffffffffffffff16815260200190600101908083116104fc575b505050505090506000815167ffffffffffffffff811115610590577f4e487b7100000000000000000000000000000000000000000000000000000000600052604160045260246000fd5b6040519080825280602002602001820160405280156105c957816020015b6105b661163d565b8152602001906001900390816105ae5790505b50905060005b8251811015610730576000604051806040016040528085848151811061061e577f4e487b7100000000000000000000000000000000000000000000000000000000600052603260045260246000fd5b602002602001015173ffffffffffffffffffffffffffffffffffffffff16815260200160066000898152602001908152602001600020600087868151811061068f577f4e487b7100000000000000000000000000000000000000000000000000000000600052603260045260246000fd5b602002602001015173ffffffffffffffffffffffffffffffffffffffff1673ffffffffffffffffffffffffffffffffffffffff16815260200190815260200160002054815250905080838381518110610711577f4e487b7100000000000000000000000000000000000000000000000000000000600052603260045260246000fd5b602002602001018190525050808061072890611e93565b9150506105cf565b508092505050919050565b6107458282611375565b806006600085815260200190815260200160002060008473ffffffffffffffffffffffffffffffffffffffff1673ffffffffffffffffffffffffffffffffffffffff16815260200190815260200160002060008282546107a59190611d4f565b925050819055506107b683836114cc565b505050565b60006006600084815260200190815260200160002060008373ffffffffffffffffffffffffffffffffffffffff1673ffffffffffffffffffffffffffffffffffffffff16815260200190815260200160002054905060008114610853576040517f08c379a000000000000000000000000000000000000000000000000000000000815260040161084a90611ba4565b60405180910390fd5b600060056000858152602001908152602001600020905060008180549050905060005b8280549050811015610934578473ffffffffffffffffffffffffffffffffffffffff168382815481106108d2577f4e487b7100000000000000000000000000000000000000000000000000000000600052603260045260246000fd5b9060005260206000200160009054906101000a900473ffffffffffffffffffffffffffffffffffffffff1673ffffffffffffffffffffffffffffffffffffffff16141561092157809150610934565b808061092c90611e93565b915050610876565b508180549050811061097b576040517f08c379a000000000000000000000000000000000000000000000000000000000815260040161097290611c64565b60405180910390fd5b6001828054905061098c9190611da5565b8114610a885781600183805490506109a49190611da5565b815481106109db577f4e487b7100000000000000000000000000000000000000000000000000000000600052603260045260246000fd5b9060005260206000200160009054906101000a900473ffffffffffffffffffffffffffffffffffffffff16828281548110610a3f577f4e487b7100000000000000000000000000000000000000000000000000000000600052603260045260246000fd5b9060005260206000200160006101000a81548173ffffffffffffffffffffffffffffffffffffffff021916908373ffffffffffffffffffffffffffffffffffffffff1602179055505b81805480610abf577f4e487b7100000000000000000000000000000000000000000000000000000000600052603160045260246000fd5b6001900381819060005260206000200160006101000a81549073ffffffffffffffffffffffffffffffffffffffff021916905590555050505050565b60008060008373ffffffffffffffffffffffffffffffffffffffff1673ffffffffffffffffffffffffffffffffffffffff168152602001908152602001600020549050919050565b610b4e8383836110fd565b806006600086815260200190815260200160002060008573ffffffffffffffffffffffffffffffffffffffff1673ffffffffffffffffffffffffffffffffffffffff1681526020019081526020016000206000828254610bae9190611da5565b9250508190555060006006600086815260200190815260200160002060008573ffffffffffffffffffffffffffffffffffffffff1673ffffffffffffffffffffffffffffffffffffffff168152602001908152602001600020541415610c1957610c1884846107bb565b5b806006600086815260200190815260200160002060008473ffffffffffffffffffffffffffffffffffffffff1673ffffffffffffffffffffffffffffffffffffffff1681526020019081526020016000206000828254610c799190611d4f565b92505081905550610c8a84836114cc565b50505050565b606060048054610c9f90611e61565b80601f0160208091040260200160405190810160405280929190818152602001828054610ccb90611e61565b8015610d185780601f10610ced57610100808354040283529160200191610d18565b820191906000526020600020905b815481529060010190602001808311610cfb57829003601f168201915b5050505050905090565b600080610d2d610e9e565b90506000610d3b8286610e17565b905083811015610d80576040517f08c379a0000000000000000000000000000000000000000000000000000000008152600401610d7790611c84565b60405180910390fd5b610d8d8286868403610ea6565b60019250505092915050565b600080610da4610e9e565b9050610db18185856110fd565b600191505092915050565b60006006600084815260200190815260200160002060008373ffffffffffffffffffffffffffffffffffffffff1673ffffffffffffffffffffffffffffffffffffffff16815260200190815260200160002054905092915050565b6000600160008473ffffffffffffffffffffffffffffffffffffffff1673ffffffffffffffffffffffffffffffffffffffff16815260200190815260200160002060008373ffffffffffffffffffffffffffffffffffffffff1673ffffffffffffffffffffffffffffffffffffffff16815260200190815260200160002054905092915050565b600033905090565b600073ffffffffffffffffffffffffffffffffffffffff168373ffffffffffffffffffffffffffffffffffffffff161415610f16576040517f08c379a0000000000000000000000000000000000000000000000000000000008152600401610f0d90611c44565b60405180910390fd5b600073ffffffffffffffffffffffffffffffffffffffff168273ffffffffffffffffffffffffffffffffffffffff161415610f86576040517f08c379a0000000000000000000000000000000000000000000000000000000008152600401610f7d90611bc4565b60405180910390fd5b80600160008573ffffffffffffffffffffffffffffffffffffffff1673ffffffffffffffffffffffffffffffffffffffff16815260200190815260200160002060008473ffffffffffffffffffffffffffffffffffffffff1673ffffffffffffffffffffffffffffffffffffffff168152602001908152602001600020819055508173ffffffffffffffffffffffffffffffffffffffff168373ffffffffffffffffffffffffffffffffffffffff167f8c5be1e5ebec7d5bd14f71427d1e84f3dd0314c0f7b2291e5b200ac8c7c3b925836040516110649190611cc4565b60405180910390a3505050565b600061107d8484610e17565b90507fffffffffffffffffffffffffffffffffffffffffffffffffffffffffffffffff81146110f757818110156110e9576040517f08c379a00000000000000000000000000000000000000000000000000000000081526004016110e090611be4565b60405180910390fd5b6110f68484848403610ea6565b5b50505050565b600073ffffffffffffffffffffffffffffffffffffffff168373ffffffffffffffffffffffffffffffffffffffff16141561116d576040517f08c379a000000000000000000000000000000000000000000000000000000000815260040161116490611c24565b60405180910390fd5b600073ffffffffffffffffffffffffffffffffffffffff168273ffffffffffffffffffffffffffffffffffffffff1614156111dd576040517f08c379a00000000000000000000000000000000000000000000000000000000081526004016111d490611b84565b60405180910390fd5b6111e8838383611633565b60008060008573ffffffffffffffffffffffffffffffffffffffff1673ffffffffffffffffffffffffffffffffffffffff1681526020019081526020016000205490508181101561126e576040517f08c379a000000000000000000000000000000000000000000000000000000000815260040161126590611c04565b60405180910390fd5b8181036000808673ffffffffffffffffffffffffffffffffffffffff1673ffffffffffffffffffffffffffffffffffffffff16815260200190815260200160002081905550816000808573ffffffffffffffffffffffffffffffffffffffff1673ffffffffffffffffffffffffffffffffffffffff168152602001908152602001600020600082825401925050819055508273ffffffffffffffffffffffffffffffffffffffff168473ffffffffffffffffffffffffffffffffffffffff167fddf252ad1be2c89b69c2b068fc378daa952ba7f163c4a11628f55a4df523b3ef8460405161135c9190611cc4565b60405180910390a361136f848484611638565b50505050565b600073ffffffffffffffffffffffffffffffffffffffff168273ffffffffffffffffffffffffffffffffffffffff1614156113e5576040517f08c379a00000000000000000000000000000000000000000000000000000000081526004016113dc90611ca4565b60405180910390fd5b6113f160008383611633565b80600260008282546114039190611d4f565b92505081905550806000808473ffffffffffffffffffffffffffffffffffffffff1673ffffffffffffffffffffffffffffffffffffffff168152602001908152602001600020600082825401925050819055508173ffffffffffffffffffffffffffffffffffffffff16600073ffffffffffffffffffffffffffffffffffffffff167fddf252ad1be2c89b69c2b068fc378daa952ba7f163c4a11628f55a4df523b3ef836040516114b49190611cc4565b60405180910390a36114c860008383611638565b5050565b6000805b60056000858152602001908152602001600020805490508110156115b3578273ffffffffffffffffffffffffffffffffffffffff16600560008681526020019081526020016000208281548110611550577f4e487b7100000000000000000000000000000000000000000000000000000000600052603260045260246000fd5b9060005260206000200160009054906101000a900473ffffffffffffffffffffffffffffffffffffffff1673ffffffffffffffffffffffffffffffffffffffff1614156115a057600191506115b3565b80806115ab90611e93565b9150506114d0565b508061162e5760056000848152602001908152602001600020829080600181540180825580915050600190039060005260206000200160009091909190916101000a81548173ffffffffffffffffffffffffffffffffffffffff021916908373ffffffffffffffffffffffffffffffffffffffff1602179055505b505050565b505050565b505050565b6040518060400160405280600073ffffffffffffffffffffffffffffffffffffffff168152602001600081525090565b60008135905061167c81612215565b92915050565b6000813590506116918161222c565b92915050565b6000602082840312156116a957600080fd5b60006116b78482850161166d565b91505092915050565b600080604083850312156116d357600080fd5b60006116e18582860161166d565b92505060206116f28582860161166d565b9150509250929050565b60008060006060848603121561171157600080fd5b600061171f8682870161166d565b93505060206117308682870161166d565b925050604061174186828701611682565b9150509250925092565b6000806040838503121561175e57600080fd5b600061176c8582860161166d565b925050602061177d85828601611682565b9150509250929050565b60006020828403121561179957600080fd5b60006117a784828501611682565b91505092915050565b600080604083850312156117c357600080fd5b60006117d185828601611682565b92505060206117e28582860161166d565b9150509250929050565b6000806000806080858703121561180257600080fd5b600061181087828801611682565b94505060206118218782880161166d565b93505060406118328782880161166d565b925050606061184387828801611682565b91505092959194509250565b60008060006060848603121561186457600080fd5b600061187286828701611682565b93505060206118838682870161166d565b925050604061189486828701611682565b9150509250925092565b60006118aa8383611ac9565b60408301905092915050565b6118bf81611dd9565b82525050565b60006118d082611d0a565b6118da8185611d2d565b93506118e583611cfa565b8060005b838110156119165781516118fd888261189e565b975061190883611d20565b9250506001810190506118e9565b5085935050505092915050565b61192c81611deb565b82525050565b600061193d82611d15565b6119478185611d3e565b9350611957818560208601611e2e565b61196081611f3a565b840191505092915050565b6000611978602383611d3e565b915061198382611f4b565b604082019050919050565b600061199b603683611d3e565b91506119a682611f9a565b604082019050919050565b60006119be602283611d3e565b91506119c982611fe9565b604082019050919050565b60006119e1601d83611d3e565b91506119ec82612038565b602082019050919050565b6000611a04602683611d3e565b9150611a0f82612061565b604082019050919050565b6000611a27602583611d3e565b9150611a32826120b0565b604082019050919050565b6000611a4a602483611d3e565b9150611a55826120ff565b604082019050919050565b6000611a6d603783611d3e565b9150611a788261214e565b604082019050919050565b6000611a90602583611d3e565b9150611a9b8261219d565b604082019050919050565b6000611ab3601f83611d3e565b9150611abe826121ec565b602082019050919050565b604082016000820151611adf60008501826118b6565b506020820151611af26020850182611af8565b50505050565b611b0181611e17565b82525050565b611b1081611e17565b82525050565b611b1f81611e21565b82525050565b60006020820190508181036000830152611b3f81846118c5565b905092915050565b6000602082019050611b5c6000830184611923565b92915050565b60006020820190508181036000830152611b7c8184611932565b905092915050565b60006020820190508181036000830152611b9d8161196b565b9050919050565b60006020820190508181036000830152611bbd8161198e565b9050919050565b60006020820190508181036000830152611bdd816119b1565b9050919050565b60006020820190508181036000830152611bfd816119d4565b9050919050565b60006020820190508181036000830152611c1d816119f7565b9050919050565b60006020820190508181036000830152611c3d81611a1a565b9050919050565b60006020820190508181036000830152611c5d81611a3d565b9050919050565b60006020820190508181036000830152611c7d81611a60565b9050919050565b60006020820190508181036000830152611c9d81611a83565b9050919050565b60006020820190508181036000830152611cbd81611aa6565b9050919050565b6000602082019050611cd96000830184611b07565b92915050565b6000602082019050611cf46000830184611b16565b92915050565b6000819050602082019050919050565b600081519050919050565b600081519050919050565b6000602082019050919050565b600082825260208201905092915050565b600082825260208201905092915050565b6000611d5a82611e17565b9150611d6583611e17565b9250827fffffffffffffffffffffffffffffffffffffffffffffffffffffffffffffffff03821115611d9a57611d99611edc565b5b828201905092915050565b6000611db082611e17565b9150611dbb83611e17565b925082821015611dce57611dcd611edc565b5b828203905092915050565b6000611de482611df7565b9050919050565b60008115159050919050565b600073ffffffffffffffffffffffffffffffffffffffff82169050919050565b6000819050919050565b600060ff82169050919050565b60005b83811015611e4c578082015181840152602081019050611e31565b83811115611e5b576000848401525b50505050565b60006002820490506001821680611e7957607f821691505b60208210811415611e8d57611e8c611f0b565b5b50919050565b6000611e9e82611e17565b91507fffffffffffffffffffffffffffffffffffffffffffffffffffffffffffffffff821415611ed157611ed0611edc565b5b600182019050919050565b7f4e487b7100000000000000000000000000000000000000000000000000000000600052601160045260246000fd5b7f4e487b7100000000000000000000000000000000000000000000000000000000600052602260045260246000fd5b6000601f19601f8301169050919050565b7f45524332303a207472616e7366657220746f20746865207a65726f206164647260008201527f6573730000000000000000000000000000000000000000000000000000000000602082015250565b7f5368617265686f6c646572206d75737420686176652061207a65726f2062616c60008201527f616e636520666f7220746869732070726f706572747900000000000000000000602082015250565b7f45524332303a20617070726f766520746f20746865207a65726f20616464726560008201527f7373000000000000000000000000000000000000000000000000000000000000602082015250565b7f45524332303a20696e73756666696369656e7420616c6c6f77616e6365000000600082015250565b7f45524332303a207472616e7366657220616d6f756e742065786365656473206260008201527f616c616e63650000000000000000000000000000000000000000000000000000602082015250565b7f45524332303a207472616e736665722066726f6d20746865207a65726f20616460008201527f6472657373000000000000000000000000000000000000000000000000000000602082015250565b7f45524332303a20617070726f76652066726f6d20746865207a65726f2061646460008201527f7265737300000000000000000000000000000000000000000000000000000000602082015250565b7f5368617265686f6c646572206e6f7420666f756e6420696e207468652070726f60008201527f7065727479207368617265686f6c64657273206c697374000000000000000000602082015250565b7f45524332303a2064656372656173656420616c6c6f77616e63652062656c6f7760008201527f207a65726f000000000000000000000000000000000000000000000000000000602082015250565b7f45524332303a206d696e7420746f20746865207a65726f206164647265737300600082015250565b61221e81611dd9565b811461222957600080fd5b50565b61223581611e17565b811461224057600080fd5b5056fea2646970667358221220c42e4b15c89e24cf119e050c718360457da83b333dc820a299aa7b33ae19e65864736f6c63430008030033",
  "linkReferences": {},
  "deployedLinkReferences": {}
}