{
  "_format": "hh-sol-artifact-1",
  "contractName": "RealEstateShareToken",
  "sourceName": "contracts/RealEstateShareToken.sol",
  "abi": [
    {
      "inputs": [
        {
          "internalType": "string",
          "name": "name",
          "type": "string"
        },
        {
          "internalType": "string",
          "name": "symbol",
          "type": "string"
        }
      ],
      "stateMutability": "nonpayable",
      "type": "constructor"
    },
    {
      "anonymous": false,
      "inputs": [
        {
          "indexed": true,
          "internalType": "address",
          "name": "owner",
          "type": "address"
        },
        {
          "indexed": true,
          "internalType": "address",
          "name": "spender",
          "type": "address"
        },
        {
          "indexed": false,
          "internalType": "uint256",
          "name": "value",
          "type": "uint256"
        }
      ],
      "name": "Approval",
      "type": "event"
    },
    {
      "anonymous": false,
      "inputs": [
        {
          "indexed": true,
          "internalType": "address",
          "name": "from",
          "type": "address"
        },
        {
          "indexed": true,
          "internalType": "address",
          "name": "to",
          "type": "address"
        },
        {
          "indexed": false,
          "internalType": "uint256",
          "name": "value",
          "type": "uint256"
        }
      ],
      "name": "Transfer",
      "type": "event"
    },
    {
      "inputs": [
        {
          "internalType": "address",
          "name": "owner",
          "type": "address"
        },
        {
          "internalType": "address",
          "name": "spender",
          "type": "address"
        }
      ],
      "name": "allowance",
      "outputs": [
        {
          "internalType": "uint256",
          "name": "",
          "type": "uint256"
        }
      ],
      "stateMutability": "view",
      "type": "function"
    },
    {
      "inputs": [
        {
          "internalType": "address",
          "name": "spender",
          "type": "address"
        },
        {
          "internalType": "uint256",
          "name": "amount",
          "type": "uint256"
        }
      ],
      "name": "approve",
      "outputs": [
        {
          "internalType": "bool",
          "name": "",
          "type": "bool"
        }
      ],
      "stateMutability": "nonpayable",
      "type": "function"
    },
    {
      "inputs": [
        {
          "internalType": "address",
          "name": "account",
          "type": "address"
        }
      ],
      "name": "balanceOf",
      "outputs": [
        {
          "internalType": "uint256",
          "name": "",
          "type": "uint256"
        }
      ],
      "stateMutability": "view",
      "type": "function"
    },
    {
      "inputs": [],
      "name": "decimals",
      "outputs": [
        {
          "internalType": "uint8",
          "name": "",
          "type": "uint8"
        }
      ],
      "stateMutability": "view",
      "type": "function"
    },
    {
      "inputs": [
        {
          "internalType": "address",
          "name": "spender",
          "type": "address"
        },
        {
          "internalType": "uint256",
          "name": "subtractedValue",
          "type": "uint256"
        }
      ],
      "name": "decreaseAllowance",
      "outputs": [
        {
          "internalType": "bool",
          "name": "",
          "type": "bool"
        }
      ],
      "stateMutability": "nonpayable",
      "type": "function"
    },
    {
      "inputs": [
        {
          "internalType": "address",
          "name": "shareholder",
          "type": "address"
        }
      ],
      "name": "getPropertiesForShareholder",
      "outputs": [
        {
          "internalType": "uint256[]",
          "name": "",
          "type": "uint256[]"
        }
      ],
      "stateMutability": "view",
      "type": "function"
    },
    {
      "inputs": [
        {
          "internalType": "uint256",
          "name": "propertyId",
          "type": "uint256"
        }
      ],
      "name": "getPropertyShareholders",
      "outputs": [
        {
          "components": [
            {
              "internalType": "address",
              "name": "shareholder",
              "type": "address"
            },
            {
              "internalType": "uint256",
              "name": "shareAmount",
              "type": "uint256"
            },
            {
              "internalType": "uint256",
              "name": "propertyId",
              "type": "uint256"
            }
          ],
          "internalType": "struct RealEstateShareToken.Shareholder[]",
          "name": "",
          "type": "tuple[]"
        }
      ],
      "stateMutability": "view",
      "type": "function"
    },
    {
      "inputs": [
        {
          "internalType": "address",
          "name": "shareholder",
          "type": "address"
        }
      ],
      "name": "getUserShares",
      "outputs": [
        {
          "components": [
            {
              "internalType": "address",
              "name": "shareholder",
              "type": "address"
            },
            {
              "internalType": "uint256",
              "name": "shareAmount",
              "type": "uint256"
            },
            {
              "internalType": "uint256",
              "name": "propertyId",
              "type": "uint256"
            }
          ],
          "internalType": "struct RealEstateShareToken.Shareholder[]",
          "name": "",
          "type": "tuple[]"
        }
      ],
      "stateMutability": "view",
      "type": "function"
    },
    {
      "inputs": [
        {
          "internalType": "address",
          "name": "spender",
          "type": "address"
        },
        {
          "internalType": "uint256",
          "name": "addedValue",
          "type": "uint256"
        }
      ],
      "name": "increaseAllowance",
      "outputs": [
        {
          "internalType": "bool",
          "name": "",
          "type": "bool"
        }
      ],
      "stateMutability": "nonpayable",
      "type": "function"
    },
    {
      "inputs": [
        {
          "internalType": "uint256",
          "name": "propertyId",
          "type": "uint256"
        },
        {
          "internalType": "address",
          "name": "account",
          "type": "address"
        },
        {
          "internalType": "uint256",
          "name": "amount",
          "type": "uint256"
        }
      ],
      "name": "mintPropertyShares",
      "outputs": [],
      "stateMutability": "nonpayable",
      "type": "function"
    },
    {
      "inputs": [],
      "name": "name",
      "outputs": [
        {
          "internalType": "string",
          "name": "",
          "type": "string"
        }
      ],
      "stateMutability": "view",
      "type": "function"
    },
    {
      "inputs": [
        {
          "internalType": "uint256",
          "name": "propertyId",
          "type": "uint256"
        },
        {
          "internalType": "address",
          "name": "account",
          "type": "address"
        }
      ],
      "name": "propertyBalanceOf",
      "outputs": [
        {
          "internalType": "uint256",
          "name": "",
          "type": "uint256"
        }
      ],
      "stateMutability": "view",
      "type": "function"
    },
    {
      "inputs": [
        {
          "internalType": "uint256",
          "name": "propertyId",
          "type": "uint256"
        },
        {
          "internalType": "address",
          "name": "shareholder",
          "type": "address"
        }
      ],
      "name": "removeShareholder",
      "outputs": [],
      "stateMutability": "nonpayable",
      "type": "function"
    },
    {
      "inputs": [],
      "name": "symbol",
      "outputs": [
        {
          "internalType": "string",
          "name": "",
          "type": "string"
        }
      ],
      "stateMutability": "view",
      "type": "function"
    },
    {
      "inputs": [],
      "name": "totalSupply",
      "outputs": [
        {
          "internalType": "uint256",
          "name": "",
          "type": "uint256"
        }
      ],
      "stateMutability": "view",
      "type": "function"
    },
    {
      "inputs": [
        {
          "internalType": "address",
          "name": "to",
          "type": "address"
        },
        {
          "internalType": "uint256",
          "name": "amount",
          "type": "uint256"
        }
      ],
      "name": "transfer",
      "outputs": [
        {
          "internalType": "bool",
          "name": "",
          "type": "bool"
        }
      ],
      "stateMutability": "nonpayable",
      "type": "function"
    },
    {
      "inputs": [
        {
          "internalType": "address",
          "name": "from",
          "type": "address"
        },
        {
          "internalType": "address",
          "name": "to",
          "type": "address"
        },
        {
          "internalType": "uint256",
          "name": "amount",
          "type": "uint256"
        }
      ],
      "name": "transferFrom",
      "outputs": [
        {
          "internalType": "bool",
          "name": "",
          "type": "bool"
        }
      ],
      "stateMutability": "nonpayable",
      "type": "function"
    },
    {
      "inputs": [
        {
          "internalType": "uint256",
          "name": "propertyId",
          "type": "uint256"
        },
        {
          "internalType": "address",
          "name": "sender",
          "type": "address"
        },
        {
          "internalType": "address",
          "name": "recipient",
          "type": "address"
        },
        {
          "internalType": "uint256",
          "name": "amount",
          "type": "uint256"
        }
      ],
      "name": "transferPropertyShares",
      "outputs": [],
      "stateMutability": "nonpayable",
      "type": "function"
    }
  ],
  "bytecode": "0x60806040523480156200001157600080fd5b5060405162002d4e38038062002d4e833981810160405281019062000037919062000197565b818181600390805190602001906200005192919062000075565b5080600490805190602001906200006a92919062000075565b50505050506200037a565b82805462000083906200029f565b90600052602060002090601f016020900481019282620000a75760008555620000f3565b82601f10620000c257805160ff1916838001178555620000f3565b82800160010185558215620000f3579182015b82811115620000f2578251825591602001919060010190620000d5565b5b50905062000102919062000106565b5090565b5b808211156200012157600081600090555060010162000107565b5090565b60006200013c620001368462000233565b6200020a565b9050828152602081018484840111156200015557600080fd5b6200016284828562000269565b509392505050565b600082601f8301126200017c57600080fd5b81516200018e84826020860162000125565b91505092915050565b60008060408385031215620001ab57600080fd5b600083015167ffffffffffffffff811115620001c657600080fd5b620001d4858286016200016a565b925050602083015167ffffffffffffffff811115620001f257600080fd5b62000200858286016200016a565b9150509250929050565b60006200021662000229565b9050620002248282620002d5565b919050565b6000604051905090565b600067ffffffffffffffff8211156200025157620002506200033a565b5b6200025c8262000369565b9050602081019050919050565b60005b83811015620002895780820151818401526020810190506200026c565b8381111562000299576000848401525b50505050565b60006002820490506001821680620002b857607f821691505b60208210811415620002cf57620002ce6200030b565b5b50919050565b620002e08262000369565b810181811067ffffffffffffffff821117156200030257620003016200033a565b5b80604052505050565b7f4e487b7100000000000000000000000000000000000000000000000000000000600052602260045260246000fd5b7f4e487b7100000000000000000000000000000000000000000000000000000000600052604160045260246000fd5b6000601f19601f8301169050919050565b6129c4806200038a6000396000f3fe608060405234801561001057600080fd5b50600436106101165760003560e01c806370a08231116100a2578063a457c2d711610071578063a457c2d714610307578063a9059cbb14610337578063a9378ff314610367578063ba0cb22b14610397578063dd62ed3e146103c757610116565b806370a082311461026d5780638b441aa21461029d5780638ddfc9b4146102b957806395d89b41146102e957610116565b8063313ce567116100e9578063313ce567146101b757806339509351146101d557806356a79e9114610205578063618ac85114610235578063706d871b1461025157610116565b806306fdde031461011b578063095ea7b31461013957806318160ddd1461016957806323b872dd14610187575b600080fd5b6101236103f7565b6040516101309190612205565b60405180910390f35b610153600480360381019061014e9190611d20565b610489565b60405161016091906121ea565b60405180910390f35b6101716104ac565b60405161017e9190612387565b60405180910390f35b6101a1600480360381019061019c9190611cd1565b6104b6565b6040516101ae91906121ea565b60405180910390f35b6101bf6104e5565b6040516101cc91906123a2565b60405180910390f35b6101ef60048036038101906101ea9190611d20565b6104ee565b6040516101fc91906121ea565b60405180910390f35b61021f600480360381019061021a9190611d5c565b610525565b60405161022c91906121a6565b60405180910390f35b61024f600480360381019061024a9190611e24565b6107b7565b005b61026b60048036038101906102669190611d85565b610837565b005b61028760048036038101906102829190611c6c565b610d7e565b6040516102949190612387565b60405180910390f35b6102b760048036038101906102b29190611dc1565b610dc6565b005b6102d360048036038101906102ce9190611c6c565b610f13565b6040516102e091906121c8565b60405180910390f35b6102f1610faa565b6040516102fe9190612205565b60405180910390f35b610321600480360381019061031c9190611d20565b61103c565b60405161032e91906121ea565b60405180910390f35b610351600480360381019061034c9190611d20565b6110b3565b60405161035e91906121ea565b60405180910390f35b610381600480360381019061037c9190611d85565b6110d6565b60405161038e9190612387565b60405180910390f35b6103b160048036038101906103ac9190611c6c565b611131565b6040516103be91906121a6565b60405180910390f35b6103e160048036038101906103dc9190611c95565b61137f565b6040516103ee9190612387565b60405180910390f35b6060600380546104069061255d565b80601f01602080910402602001604051908101604052809291908181526020018280546104329061255d565b801561047f5780601f106104545761010080835404028352916020019161047f565b820191906000526020600020905b81548152906001019060200180831161046257829003601f168201915b5050505050905090565b600080610494611406565b90506104a181858561140e565b600191505092915050565b6000600254905090565b6000806104c1611406565b90506104ce8582856115d9565b6104d9858585611665565b60019150509392505050565b60006012905090565b6000806104f9611406565b905061051a81858561050b858961137f565b610515919061244b565b61140e565b600191505092915050565b60606000600560008481526020019081526020016000208054806020026020016040519081016040528092919081815260200182805480156105bc57602002820191906000526020600020905b8160009054906101000a900473ffffffffffffffffffffffffffffffffffffffff1673ffffffffffffffffffffffffffffffffffffffff1681526020019060010190808311610572575b505050505090506000815167ffffffffffffffff811115610606577f4e487b7100000000000000000000000000000000000000000000000000000000600052604160045260246000fd5b60405190808252806020026020018201604052801561063f57816020015b61062c611c0b565b8152602001906001900390816106245790505b50905060005b82518110156107ac5760006040518060600160405280858481518110610694577f4e487b7100000000000000000000000000000000000000000000000000000000600052603260045260246000fd5b602002602001015173ffffffffffffffffffffffffffffffffffffffff168152602001600660008981526020019081526020016000206000878681518110610705577f4e487b7100000000000000000000000000000000000000000000000000000000600052603260045260246000fd5b602002602001015173ffffffffffffffffffffffffffffffffffffffff1673ffffffffffffffffffffffffffffffffffffffff1681526020019081526020016000205481526020018781525090508083838151811061078d577f4e487b7100000000000000000000000000000000000000000000000000000000600052603260045260246000fd5b60200260200101819052505080806107a49061258f565b915050610645565b508092505050919050565b6107c182826118dd565b806006600085815260200190815260200160002060008473ffffffffffffffffffffffffffffffffffffffff1673ffffffffffffffffffffffffffffffffffffffff1681526020019081526020016000206000828254610821919061244b565b925050819055506108328383611a34565b505050565b60006006600084815260200190815260200160002060008373ffffffffffffffffffffffffffffffffffffffff1673ffffffffffffffffffffffffffffffffffffffff168152602001908152602001600020549050600081146108cf576040517f08c379a00000000000000000000000000000000000000000000000000000000081526004016108c690612247565b60405180910390fd5b600060056000858152602001908152602001600020905060008180549050905060005b82805490508110156109b0578473ffffffffffffffffffffffffffffffffffffffff1683828154811061094e577f4e487b7100000000000000000000000000000000000000000000000000000000600052603260045260246000fd5b9060005260206000200160009054906101000a900473ffffffffffffffffffffffffffffffffffffffff1673ffffffffffffffffffffffffffffffffffffffff16141561099d578091506109b0565b80806109a89061258f565b9150506108f2565b50818054905081106109f7576040517f08c379a00000000000000000000000000000000000000000000000000000000081526004016109ee90612327565b60405180910390fd5b60018280549050610a0891906124a1565b8114610b04578160018380549050610a2091906124a1565b81548110610a57577f4e487b7100000000000000000000000000000000000000000000000000000000600052603260045260246000fd5b9060005260206000200160009054906101000a900473ffffffffffffffffffffffffffffffffffffffff16828281548110610abb577f4e487b7100000000000000000000000000000000000000000000000000000000600052603260045260246000fd5b9060005260206000200160006101000a81548173ffffffffffffffffffffffffffffffffffffffff021916908373ffffffffffffffffffffffffffffffffffffffff1602179055505b81805480610b3b577f4e487b7100000000000000000000000000000000000000000000000000000000600052603160045260246000fd5b6001900381819060005260206000200160006101000a81549073ffffffffffffffffffffffffffffffffffffffff021916905590556000600760008673ffffffffffffffffffffffffffffffffffffffff1673ffffffffffffffffffffffffffffffffffffffff16815260200190815260200160002090508080549050915060005b8180549050811015610c2f5786828281548110610c03577f4e487b7100000000000000000000000000000000000000000000000000000000600052603260045260246000fd5b90600052602060002001541415610c1c57809250610c2f565b8080610c279061258f565b915050610bbd565b5080805490508210610c76576040517f08c379a0000000000000000000000000000000000000000000000000000000008152600401610c6d90612267565b60405180910390fd5b60018180549050610c8791906124a1565b8214610d29578060018280549050610c9f91906124a1565b81548110610cd6577f4e487b7100000000000000000000000000000000000000000000000000000000600052603260045260246000fd5b9060005260206000200154818381548110610d1a577f4e487b7100000000000000000000000000000000000000000000000000000000600052603260045260246000fd5b90600052602060002001819055505b80805480610d60577f4e487b7100000000000000000000000000000000000000000000000000000000600052603160045260246000fd5b60019003818190600052602060002001600090559055505050505050565b60008060008373ffffffffffffffffffffffffffffffffffffffff1673ffffffffffffffffffffffffffffffffffffffff168152602001908152602001600020549050919050565b610dd1838383611665565b806006600086815260200190815260200160002060008573ffffffffffffffffffffffffffffffffffffffff1673ffffffffffffffffffffffffffffffffffffffff1681526020019081526020016000206000828254610e3191906124a1565b9250508190555060006006600086815260200190815260200160002060008573ffffffffffffffffffffffffffffffffffffffff1673ffffffffffffffffffffffffffffffffffffffff168152602001908152602001600020541415610e9c57610e9b8484610837565b5b806006600086815260200190815260200160002060008473ffffffffffffffffffffffffffffffffffffffff1673ffffffffffffffffffffffffffffffffffffffff1681526020019081526020016000206000828254610efc919061244b565b92505081905550610f0d8483611a34565b50505050565b6060600760008373ffffffffffffffffffffffffffffffffffffffff1673ffffffffffffffffffffffffffffffffffffffff168152602001908152602001600020805480602002602001604051908101604052809291908181526020018280548015610f9e57602002820191906000526020600020905b815481526020019060010190808311610f8a575b50505050509050919050565b606060048054610fb99061255d565b80601f0160208091040260200160405190810160405280929190818152602001828054610fe59061255d565b80156110325780601f1061100757610100808354040283529160200191611032565b820191906000526020600020905b81548152906001019060200180831161101557829003601f168201915b5050505050905090565b600080611047611406565b90506000611055828661137f565b90508381101561109a576040517f08c379a000000000000000000000000000000000000000000000000000000000815260040161109190612347565b60405180910390fd5b6110a7828686840361140e565b60019250505092915050565b6000806110be611406565b90506110cb818585611665565b600191505092915050565b60006006600084815260200190815260200160002060008373ffffffffffffffffffffffffffffffffffffffff1673ffffffffffffffffffffffffffffffffffffffff16815260200190815260200160002054905092915050565b60606000600760008473ffffffffffffffffffffffffffffffffffffffff1673ffffffffffffffffffffffffffffffffffffffff1681526020019081526020016000208054806020026020016040519081016040528092919081815260200182805480156111be57602002820191906000526020600020905b8154815260200190600101908083116111aa575b505050505090506000815167ffffffffffffffff811115611208577f4e487b7100000000000000000000000000000000000000000000000000000000600052604160045260246000fd5b60405190808252806020026020018201604052801561124157816020015b61122e611c0b565b8152602001906001900390816112265790505b50905060005b825181101561137457600083828151811061128b577f4e487b7100000000000000000000000000000000000000000000000000000000600052603260045260246000fd5b6020026020010151905060006006600083815260200190815260200160002060008873ffffffffffffffffffffffffffffffffffffffff1673ffffffffffffffffffffffffffffffffffffffff16815260200190815260200160002054905060405180606001604052808873ffffffffffffffffffffffffffffffffffffffff16815260200182815260200183815250848481518110611354577f4e487b7100000000000000000000000000000000000000000000000000000000600052603260045260246000fd5b60200260200101819052505050808061136c9061258f565b915050611247565b508092505050919050565b6000600160008473ffffffffffffffffffffffffffffffffffffffff1673ffffffffffffffffffffffffffffffffffffffff16815260200190815260200160002060008373ffffffffffffffffffffffffffffffffffffffff1673ffffffffffffffffffffffffffffffffffffffff16815260200190815260200160002054905092915050565b600033905090565b600073ffffffffffffffffffffffffffffffffffffffff168373ffffffffffffffffffffffffffffffffffffffff16141561147e576040517f08c379a000000000000000000000000000000000000000000000000000000000815260040161147590612307565b60405180910390fd5b600073ffffffffffffffffffffffffffffffffffffffff168273ffffffffffffffffffffffffffffffffffffffff1614156114ee576040517f08c379a00000000000000000000000000000000000000000000000000000000081526004016114e590612287565b60405180910390fd5b80600160008573ffffffffffffffffffffffffffffffffffffffff1673ffffffffffffffffffffffffffffffffffffffff16815260200190815260200160002060008473ffffffffffffffffffffffffffffffffffffffff1673ffffffffffffffffffffffffffffffffffffffff168152602001908152602001600020819055508173ffffffffffffffffffffffffffffffffffffffff168373ffffffffffffffffffffffffffffffffffffffff167f8c5be1e5ebec7d5bd14f71427d1e84f3dd0314c0f7b2291e5b200ac8c7c3b925836040516115cc9190612387565b60405180910390a3505050565b60006115e5848461137f565b90507fffffffffffffffffffffffffffffffffffffffffffffffffffffffffffffffff811461165f5781811015611651576040517f08c379a0000000000000000000000000000000000000000000000000000000008152600401611648906122a7565b60405180910390fd5b61165e848484840361140e565b5b50505050565b600073ffffffffffffffffffffffffffffffffffffffff168373ffffffffffffffffffffffffffffffffffffffff1614156116d5576040517f08c379a00000000000000000000000000000000000000000000000000000000081526004016116cc906122e7565b60405180910390fd5b600073ffffffffffffffffffffffffffffffffffffffff168273ffffffffffffffffffffffffffffffffffffffff161415611745576040517f08c379a000000000000000000000000000000000000000000000000000000000815260040161173c90612227565b60405180910390fd5b611750838383611c01565b60008060008573ffffffffffffffffffffffffffffffffffffffff1673ffffffffffffffffffffffffffffffffffffffff168152602001908152602001600020549050818110156117d6576040517f08c379a00000000000000000000000000000000000000000000000000000000081526004016117cd906122c7565b60405180910390fd5b8181036000808673ffffffffffffffffffffffffffffffffffffffff1673ffffffffffffffffffffffffffffffffffffffff16815260200190815260200160002081905550816000808573ffffffffffffffffffffffffffffffffffffffff1673ffffffffffffffffffffffffffffffffffffffff168152602001908152602001600020600082825401925050819055508273ffffffffffffffffffffffffffffffffffffffff168473ffffffffffffffffffffffffffffffffffffffff167fddf252ad1be2c89b69c2b068fc378daa952ba7f163c4a11628f55a4df523b3ef846040516118c49190612387565b60405180910390a36118d7848484611c06565b50505050565b600073ffffffffffffffffffffffffffffffffffffffff168273ffffffffffffffffffffffffffffffffffffffff16141561194d576040517f08c379a000000000000000000000000000000000000000000000000000000000815260040161194490612367565b60405180910390fd5b61195960008383611c01565b806002600082825461196b919061244b565b92505081905550806000808473ffffffffffffffffffffffffffffffffffffffff1673ffffffffffffffffffffffffffffffffffffffff168152602001908152602001600020600082825401925050819055508173ffffffffffffffffffffffffffffffffffffffff16600073ffffffffffffffffffffffffffffffffffffffff167fddf252ad1be2c89b69c2b068fc378daa952ba7f163c4a11628f55a4df523b3ef83604051611a1c9190612387565b60405180910390a3611a3060008383611c06565b5050565b6000805b6005600085815260200190815260200160002080549050811015611b1b578273ffffffffffffffffffffffffffffffffffffffff16600560008681526020019081526020016000208281548110611ab8577f4e487b7100000000000000000000000000000000000000000000000000000000600052603260045260246000fd5b9060005260206000200160009054906101000a900473ffffffffffffffffffffffffffffffffffffffff1673ffffffffffffffffffffffffffffffffffffffff161415611b085760019150611b1b565b8080611b139061258f565b915050611a38565b5080611bfc5760056000848152602001908152602001600020829080600181540180825580915050600190039060005260206000200160009091909190916101000a81548173ffffffffffffffffffffffffffffffffffffffff021916908373ffffffffffffffffffffffffffffffffffffffff160217905550600760008373ffffffffffffffffffffffffffffffffffffffff1673ffffffffffffffffffffffffffffffffffffffff1681526020019081526020016000208390806001815401808255809150506001900390600052602060002001600090919091909150555b505050565b505050565b505050565b6040518060600160405280600073ffffffffffffffffffffffffffffffffffffffff16815260200160008152602001600081525090565b600081359050611c5181612960565b92915050565b600081359050611c6681612977565b92915050565b600060208284031215611c7e57600080fd5b6000611c8c84828501611c42565b91505092915050565b60008060408385031215611ca857600080fd5b6000611cb685828601611c42565b9250506020611cc785828601611c42565b9150509250929050565b600080600060608486031215611ce657600080fd5b6000611cf486828701611c42565b9350506020611d0586828701611c42565b9250506040611d1686828701611c57565b9150509250925092565b60008060408385031215611d3357600080fd5b6000611d4185828601611c42565b9250506020611d5285828601611c57565b9150509250929050565b600060208284031215611d6e57600080fd5b6000611d7c84828501611c57565b91505092915050565b60008060408385031215611d9857600080fd5b6000611da685828601611c57565b9250506020611db785828601611c42565b9150509250929050565b60008060008060808587031215611dd757600080fd5b6000611de587828801611c57565b9450506020611df687828801611c42565b9350506040611e0787828801611c42565b9250506060611e1887828801611c57565b91505092959194509250565b600080600060608486031215611e3957600080fd5b6000611e4786828701611c57565b9350506020611e5886828701611c42565b9250506040611e6986828701611c57565b9150509250925092565b6000611e7f8383612137565b60608301905092915050565b6000611e978383612179565b60208301905092915050565b611eac816124d5565b82525050565b6000611ebd826123dd565b611ec78185612418565b9350611ed2836123bd565b8060005b83811015611f03578151611eea8882611e73565b9750611ef5836123fe565b925050600181019050611ed6565b5085935050505092915050565b6000611f1b826123e8565b611f258185612429565b9350611f30836123cd565b8060005b83811015611f61578151611f488882611e8b565b9750611f538361240b565b925050600181019050611f34565b5085935050505092915050565b611f77816124e7565b82525050565b6000611f88826123f3565b611f92818561243a565b9350611fa281856020860161252a565b611fab81612636565b840191505092915050565b6000611fc360238361243a565b9150611fce82612647565b604082019050919050565b6000611fe660368361243a565b9150611ff182612696565b604082019050919050565b6000612009603b8361243a565b9150612014826126e5565b604082019050919050565b600061202c60228361243a565b915061203782612734565b604082019050919050565b600061204f601d8361243a565b915061205a82612783565b602082019050919050565b600061207260268361243a565b915061207d826127ac565b604082019050919050565b600061209560258361243a565b91506120a0826127fb565b604082019050919050565b60006120b860248361243a565b91506120c38261284a565b604082019050919050565b60006120db60378361243a565b91506120e682612899565b604082019050919050565b60006120fe60258361243a565b9150612109826128e8565b604082019050919050565b6000612121601f8361243a565b915061212c82612937565b602082019050919050565b60608201600082015161214d6000850182611ea3565b5060208201516121606020850182612179565b5060408201516121736040850182612179565b50505050565b61218281612513565b82525050565b61219181612513565b82525050565b6121a08161251d565b82525050565b600060208201905081810360008301526121c08184611eb2565b905092915050565b600060208201905081810360008301526121e28184611f10565b905092915050565b60006020820190506121ff6000830184611f6e565b92915050565b6000602082019050818103600083015261221f8184611f7d565b905092915050565b6000602082019050818103600083015261224081611fb6565b9050919050565b6000602082019050818103600083015261226081611fd9565b9050919050565b6000602082019050818103600083015261228081611ffc565b9050919050565b600060208201905081810360008301526122a08161201f565b9050919050565b600060208201905081810360008301526122c081612042565b9050919050565b600060208201905081810360008301526122e081612065565b9050919050565b6000602082019050818103600083015261230081612088565b9050919050565b60006020820190508181036000830152612320816120ab565b9050919050565b60006020820190508181036000830152612340816120ce565b9050919050565b60006020820190508181036000830152612360816120f1565b9050919050565b6000602082019050818103600083015261238081612114565b9050919050565b600060208201905061239c6000830184612188565b92915050565b60006020820190506123b76000830184612197565b92915050565b6000819050602082019050919050565b6000819050602082019050919050565b600081519050919050565b600081519050919050565b600081519050919050565b6000602082019050919050565b6000602082019050919050565b600082825260208201905092915050565b600082825260208201905092915050565b600082825260208201905092915050565b600061245682612513565b915061246183612513565b9250827fffffffffffffffffffffffffffffffffffffffffffffffffffffffffffffffff03821115612496576124956125d8565b5b828201905092915050565b60006124ac82612513565b91506124b783612513565b9250828210156124ca576124c96125d8565b5b828203905092915050565b60006124e0826124f3565b9050919050565b60008115159050919050565b600073ffffffffffffffffffffffffffffffffffffffff82169050919050565b6000819050919050565b600060ff82169050919050565b60005b8381101561254857808201518184015260208101905061252d565b83811115612557576000848401525b50505050565b6000600282049050600182168061257557607f821691505b6020821081141561258957612588612607565b5b50919050565b600061259a82612513565b91507fffffffffffffffffffffffffffffffffffffffffffffffffffffffffffffffff8214156125cd576125cc6125d8565b5b600182019050919050565b7f4e487b7100000000000000000000000000000000000000000000000000000000600052601160045260246000fd5b7f4e487b7100000000000000000000000000000000000000000000000000000000600052602260045260246000fd5b6000601f19601f8301169050919050565b7f45524332303a207472616e7366657220746f20746865207a65726f206164647260008201527f6573730000000000000000000000000000000000000000000000000000000000602082015250565b7f5368617265686f6c646572206d75737420686176652061207a65726f2062616c60008201527f616e636520666f7220746869732070726f706572747900000000000000000000602082015250565b7f50726f7065727479204944206e6f7420666f756e6420696e207468652073686160008201527f7265686f6c64657227732070726f7065727479204944206c6973740000000000602082015250565b7f45524332303a20617070726f766520746f20746865207a65726f20616464726560008201527f7373000000000000000000000000000000000000000000000000000000000000602082015250565b7f45524332303a20696e73756666696369656e7420616c6c6f77616e6365000000600082015250565b7f45524332303a207472616e7366657220616d6f756e742065786365656473206260008201527f616c616e63650000000000000000000000000000000000000000000000000000602082015250565b7f45524332303a207472616e736665722066726f6d20746865207a65726f20616460008201527f6472657373000000000000000000000000000000000000000000000000000000602082015250565b7f45524332303a20617070726f76652066726f6d20746865207a65726f2061646460008201527f7265737300000000000000000000000000000000000000000000000000000000602082015250565b7f5368617265686f6c646572206e6f7420666f756e6420696e207468652070726f60008201527f7065727479207368617265686f6c64657273206c697374000000000000000000602082015250565b7f45524332303a2064656372656173656420616c6c6f77616e63652062656c6f7760008201527f207a65726f000000000000000000000000000000000000000000000000000000602082015250565b7f45524332303a206d696e7420746f20746865207a65726f206164647265737300600082015250565b612969816124d5565b811461297457600080fd5b50565b61298081612513565b811461298b57600080fd5b5056fea2646970667358221220c94dc8b6916edce051f9be64efecb54d878ab99cf161fe9aad1def5d41361a7264736f6c63430008030033",
  "linkReferences": {},
  "deployedLinkReferences": {}
}