{
  "_format": "hh-sol-artifact-1",
  "contractName": "SharesTokenManager",
  "sourceName": "contracts/SharesTokenManager.sol",
  "abi": [
    {
      "inputs": [
        {
          "internalType": "address",
          "name": "_propertyTokenFactory",
          "type": "address"
        },
        {
          "internalType": "address",
          "name": "_sharesTokenAddress",
          "type": "address"
        }
      ],
      "stateMutability": "nonpayable",
      "type": "constructor"
    },
    {
      "anonymous": false,
      "inputs": [
        {
          "indexed": true,
          "internalType": "address",
          "name": "previousOwner",
          "type": "address"
        },
        {
          "indexed": true,
          "internalType": "address",
          "name": "newOwner",
          "type": "address"
        }
      ],
      "name": "OwnershipTransferred",
      "type": "event"
    },
    {
      "inputs": [
        {
          "internalType": "uint256",
          "name": "index",
          "type": "uint256"
        }
      ],
      "name": "buySharesFromSaleOrder",
      "outputs": [],
      "stateMutability": "payable",
      "type": "function"
    },
    {
      "inputs": [
        {
          "internalType": "uint256",
          "name": "index",
          "type": "uint256"
        }
      ],
      "name": "cancelSaleOrder",
      "outputs": [],
      "stateMutability": "nonpayable",
      "type": "function"
    },
    {
      "inputs": [
        {
          "internalType": "uint256",
          "name": "propertyId",
          "type": "uint256"
        },
        {
          "internalType": "uint256",
          "name": "shareAmount",
          "type": "uint256"
        }
      ],
      "name": "createSaleOrder",
      "outputs": [],
      "stateMutability": "nonpayable",
      "type": "function"
    },
    {
      "inputs": [],
      "name": "getAllSaleOrders",
      "outputs": [
        {
          "components": [
            {
              "internalType": "uint256",
              "name": "index",
              "type": "uint256"
            },
            {
              "internalType": "address",
              "name": "seller",
              "type": "address"
            },
            {
              "internalType": "uint256",
              "name": "propertyId",
              "type": "uint256"
            },
            {
              "internalType": "uint256",
              "name": "shareAmount",
              "type": "uint256"
            },
            {
              "internalType": "uint256",
              "name": "pricePerShare",
              "type": "uint256"
            }
          ],
          "internalType": "struct PropertyLib.SaleOrder[]",
          "name": "",
          "type": "tuple[]"
        }
      ],
      "stateMutability": "view",
      "type": "function"
    },
    {
      "inputs": [
        {
          "internalType": "address",
          "name": "user",
          "type": "address"
        }
      ],
      "name": "getSaleOrdersByUser",
      "outputs": [
        {
          "components": [
            {
              "internalType": "uint256",
              "name": "index",
              "type": "uint256"
            },
            {
              "internalType": "address",
              "name": "seller",
              "type": "address"
            },
            {
              "internalType": "uint256",
              "name": "propertyId",
              "type": "uint256"
            },
            {
              "internalType": "uint256",
              "name": "shareAmount",
              "type": "uint256"
            },
            {
              "internalType": "uint256",
              "name": "pricePerShare",
              "type": "uint256"
            }
          ],
          "internalType": "struct PropertyLib.SaleOrder[]",
          "name": "",
          "type": "tuple[]"
        }
      ],
      "stateMutability": "view",
      "type": "function"
    },
    {
      "inputs": [
        {
          "internalType": "uint256",
          "name": "propertyTokenId",
          "type": "uint256"
        }
      ],
      "name": "getSharePrice",
      "outputs": [
        {
          "internalType": "uint256",
          "name": "",
          "type": "uint256"
        }
      ],
      "stateMutability": "view",
      "type": "function"
    },
    {
      "inputs": [],
      "name": "owner",
      "outputs": [
        {
          "internalType": "address",
          "name": "",
          "type": "address"
        }
      ],
      "stateMutability": "view",
      "type": "function"
    },
    {
      "inputs": [],
      "name": "propertyTokenFactory",
      "outputs": [
        {
          "internalType": "contract PropertyTokenFactory",
          "name": "",
          "type": "address"
        }
      ],
      "stateMutability": "view",
      "type": "function"
    },
    {
      "inputs": [],
      "name": "renounceOwnership",
      "outputs": [],
      "stateMutability": "nonpayable",
      "type": "function"
    },
    {
      "inputs": [
        {
          "internalType": "uint256",
          "name": "",
          "type": "uint256"
        }
      ],
      "name": "saleOrders",
      "outputs": [
        {
          "internalType": "uint256",
          "name": "index",
          "type": "uint256"
        },
        {
          "internalType": "address",
          "name": "seller",
          "type": "address"
        },
        {
          "internalType": "uint256",
          "name": "propertyId",
          "type": "uint256"
        },
        {
          "internalType": "uint256",
          "name": "shareAmount",
          "type": "uint256"
        },
        {
          "internalType": "uint256",
          "name": "pricePerShare",
          "type": "uint256"
        }
      ],
      "stateMutability": "view",
      "type": "function"
    },
    {
      "inputs": [],
      "name": "sharesToken",
      "outputs": [
        {
          "internalType": "contract RealEstateShareToken",
          "name": "",
          "type": "address"
        }
      ],
      "stateMutability": "view",
      "type": "function"
    },
    {
      "inputs": [
        {
          "internalType": "address",
          "name": "newOwner",
          "type": "address"
        }
      ],
      "name": "transferOwnership",
      "outputs": [],
      "stateMutability": "nonpayable",
      "type": "function"
    },
    {
      "inputs": [
        {
          "internalType": "uint256",
          "name": "propertyId",
          "type": "uint256"
        },
        {
          "internalType": "address",
          "name": "sender",
          "type": "address"
        },
        {
          "internalType": "address",
          "name": "recipient",
          "type": "address"
        },
        {
          "internalType": "uint256",
          "name": "amount",
          "type": "uint256"
        }
      ],
      "name": "transferShares",
      "outputs": [],
      "stateMutability": "nonpayable",
      "type": "function"
    }
  ],
  "bytecode": "0x60806040523480156200001157600080fd5b50604051620024aa380380620024aa8339818101604052810190620000379190620001c4565b620000576200004b620000e160201b60201c565b620000e960201b60201c565b81600160006101000a81548173ffffffffffffffffffffffffffffffffffffffff021916908373ffffffffffffffffffffffffffffffffffffffff16021790555080600260006101000a81548173ffffffffffffffffffffffffffffffffffffffff021916908373ffffffffffffffffffffffffffffffffffffffff160217905550505062000253565b600033905090565b60008060009054906101000a900473ffffffffffffffffffffffffffffffffffffffff169050816000806101000a81548173ffffffffffffffffffffffffffffffffffffffff021916908373ffffffffffffffffffffffffffffffffffffffff1602179055508173ffffffffffffffffffffffffffffffffffffffff168173ffffffffffffffffffffffffffffffffffffffff167f8be0079c531659141344cd1fd0a4f28419497f9722a3daafe3b4186f6b6457e060405160405180910390a35050565b600081519050620001be8162000239565b92915050565b60008060408385031215620001d857600080fd5b6000620001e885828601620001ad565b9250506020620001fb85828601620001ad565b9150509250929050565b6000620002128262000219565b9050919050565b600073ffffffffffffffffffffffffffffffffffffffff82169050919050565b620002448162000205565b81146200025057600080fd5b50565b61224780620002636000396000f3fe6080604052600436106100c25760003560e01c80638009ba1f1161007f578063b17c6ab811610059578063b17c6ab81461024d578063bca7d4e114610276578063bf7ffd85146102b3578063f2fde38b146102dc576100c2565b80638009ba1f146101ce5780638d271bd4146101f95780638da5cb5b14610222576100c2565b806307970389146100c75780632fffabff146100e35780634fc47f061461010e578063715018a61461014b578063740a03d9146101625780637cce684b1461018d575b600080fd5b6100e160048036038101906100dc919061173e565b610305565b005b3480156100ef57600080fd5b506100f861071b565b6040516101059190611ad2565b60405180910390f35b34801561011a57600080fd5b50610135600480360381019061013091906116d4565b6107f8565b6040516101429190611ad2565b60405180910390f35b34801561015757600080fd5b50610160610b3e565b005b34801561016e57600080fd5b50610177610b52565b6040516101849190611af4565b60405180910390f35b34801561019957600080fd5b506101b460048036038101906101af919061173e565b610b78565b6040516101c5959493929190611cb3565b60405180910390f35b3480156101da57600080fd5b506101e3610bde565b6040516101f09190611b0f565b60405180910390f35b34801561020557600080fd5b50610220600480360381019061021b91906117f3565b610c04565b005b34801561022e57600080fd5b50610237610de9565b6040516102449190611ab7565b60405180910390f35b34801561025957600080fd5b50610274600480360381019061026f919061173e565b610e12565b005b34801561028257600080fd5b5061029d6004803603810190610298919061173e565b611106565b6040516102aa9190611c2a565b60405180910390f35b3480156102bf57600080fd5b506102da60048036038101906102d59190611790565b61121e565b005b3480156102e857600080fd5b5061030360048036038101906102fe91906116d4565b6112b7565b005b600380549050811061034c576040517f08c379a000000000000000000000000000000000000000000000000000000000815260040161034390611b4a565b60405180910390fd5b600060038281548110610388577f4e487b7100000000000000000000000000000000000000000000000000000000600052603260045260246000fd5b90600052602060002090600502016040518060a0016040529081600082015481526020016001820160009054906101000a900473ffffffffffffffffffffffffffffffffffffffff1673ffffffffffffffffffffffffffffffffffffffff1673ffffffffffffffffffffffffffffffffffffffff168152602001600282015481526020016003820154815260200160048201548152505090506000816080015182606001516104379190611de2565b90508034101561047c576040517f08c379a000000000000000000000000000000000000000000000000000000000815260040161047390611b8a565b60405180910390fd5b6104948260400151836020015133856060015161121e565b6000826020015173ffffffffffffffffffffffffffffffffffffffff16826040516104be90611aa2565b60006040518083038185875af1925050503d80600081146104fb576040519150601f19603f3d011682016040523d82523d6000602084013e610500565b606091505b5050905080610544576040517f08c379a000000000000000000000000000000000000000000000000000000000815260040161053b90611b6a565b60405180910390fd5b600060016003805490506105589190611e3c565b905060038181548110610594577f4e487b7100000000000000000000000000000000000000000000000000000000600052603260045260246000fd5b9060005260206000209060050201600386815481106105dc577f4e487b7100000000000000000000000000000000000000000000000000000000600052603260045260246000fd5b9060005260206000209060050201600082015481600001556001820160009054906101000a900473ffffffffffffffffffffffffffffffffffffffff168160010160006101000a81548173ffffffffffffffffffffffffffffffffffffffff021916908373ffffffffffffffffffffffffffffffffffffffff16021790555060028201548160020155600382015481600301556004820154816004015590505060038054806106b4577f4e487b7100000000000000000000000000000000000000000000000000000000600052603160045260246000fd5b60019003818190600052602060002090600502016000808201600090556001820160006101000a81549073ffffffffffffffffffffffffffffffffffffffff0219169055600282016000905560038201600090556004820160009055505090555050505050565b60606003805480602002602001604051908101604052809291908181526020016000905b828210156107ef57838290600052602060002090600502016040518060a0016040529081600082015481526020016001820160009054906101000a900473ffffffffffffffffffffffffffffffffffffffff1673ffffffffffffffffffffffffffffffffffffffff1673ffffffffffffffffffffffffffffffffffffffff16815260200160028201548152602001600382015481526020016004820154815250508152602001906001019061073f565b50505050905090565b60606000805b6003805490508110156108cc578373ffffffffffffffffffffffffffffffffffffffff166003828154811061085c577f4e487b7100000000000000000000000000000000000000000000000000000000600052603260045260246000fd5b906000526020600020906005020160010160009054906101000a900473ffffffffffffffffffffffffffffffffffffffff1673ffffffffffffffffffffffffffffffffffffffff1614156108b95781806108b590611f64565b9250505b80806108c490611f64565b9150506107fe565b5060008167ffffffffffffffff81111561090f577f4e487b7100000000000000000000000000000000000000000000000000000000600052604160045260246000fd5b60405190808252806020026020018201604052801561094857816020015b610935611485565b81526020019060019003908161092d5790505b5090506000805b600380549050811015610b32578573ffffffffffffffffffffffffffffffffffffffff16600382815481106109ad577f4e487b7100000000000000000000000000000000000000000000000000000000600052603260045260246000fd5b906000526020600020906005020160010160009054906101000a900473ffffffffffffffffffffffffffffffffffffffff1673ffffffffffffffffffffffffffffffffffffffff161415610b1f5760038181548110610a35577f4e487b7100000000000000000000000000000000000000000000000000000000600052603260045260246000fd5b90600052602060002090600502016040518060a0016040529081600082015481526020016001820160009054906101000a900473ffffffffffffffffffffffffffffffffffffffff1673ffffffffffffffffffffffffffffffffffffffff1673ffffffffffffffffffffffffffffffffffffffff1681526020016002820154815260200160038201548152602001600482015481525050838381518110610b05577f4e487b7100000000000000000000000000000000000000000000000000000000600052603260045260246000fd5b60200260200101819052508180610b1b90611f64565b9250505b8080610b2a90611f64565b91505061094f565b50819350505050919050565b610b4661133b565b610b5060006113b9565b565b600160009054906101000a900473ffffffffffffffffffffffffffffffffffffffff1681565b60038181548110610b8857600080fd5b90600052602060002090600502016000915090508060000154908060010160009054906101000a900473ffffffffffffffffffffffffffffffffffffffff16908060020154908060030154908060040154905085565b600260009054906101000a900473ffffffffffffffffffffffffffffffffffffffff1681565b80600260009054906101000a900473ffffffffffffffffffffffffffffffffffffffff1673ffffffffffffffffffffffffffffffffffffffff1663a9378ff384336040518363ffffffff1660e01b8152600401610c62929190611c45565b60206040518083038186803b158015610c7a57600080fd5b505afa158015610c8e573d6000803e3d6000fd5b505050506040513d601f19601f82011682018060405250810190610cb29190611767565b1015610cf3576040517f08c379a0000000000000000000000000000000000000000000000000000000008152600401610cea90611baa565b60405180910390fd5b6000610cfe83611106565b905060006040518060a0016040528060038054905081526020013373ffffffffffffffffffffffffffffffffffffffff16815260200185815260200184815260200183815250905060038190806001815401808255809150506001900390600052602060002090600502016000909190919091506000820151816000015560208201518160010160006101000a81548173ffffffffffffffffffffffffffffffffffffffff021916908373ffffffffffffffffffffffffffffffffffffffff160217905550604082015181600201556060820151816003015560808201518160040155505050505050565b60008060009054906101000a900473ffffffffffffffffffffffffffffffffffffffff16905090565b6003805490508110610e59576040517f08c379a0000000000000000000000000000000000000000000000000000000008152600401610e5090611b4a565b60405180910390fd5b3373ffffffffffffffffffffffffffffffffffffffff1660038281548110610eaa577f4e487b7100000000000000000000000000000000000000000000000000000000600052603260045260246000fd5b906000526020600020906005020160010160009054906101000a900473ffffffffffffffffffffffffffffffffffffffff1673ffffffffffffffffffffffffffffffffffffffff1614610f32576040517f08c379a0000000000000000000000000000000000000000000000000000000008152600401610f2990611c0a565b60405180910390fd5b60006001600380549050610f469190611e3c565b905060038181548110610f82577f4e487b7100000000000000000000000000000000000000000000000000000000600052603260045260246000fd5b906000526020600020906005020160038381548110610fca577f4e487b7100000000000000000000000000000000000000000000000000000000600052603260045260246000fd5b9060005260206000209060050201600082015481600001556001820160009054906101000a900473ffffffffffffffffffffffffffffffffffffffff168160010160006101000a81548173ffffffffffffffffffffffffffffffffffffffff021916908373ffffffffffffffffffffffffffffffffffffffff16021790555060028201548160020155600382015481600301556004820154816004015590505060038054806110a2577f4e487b7100000000000000000000000000000000000000000000000000000000600052603160045260246000fd5b60019003818190600052602060002090600502016000808201600090556001820160006101000a81549073ffffffffffffffffffffffffffffffffffffffff0219169055600282016000905560038201600090556004820160009055505090555050565b600080600160009054906101000a900473ffffffffffffffffffffffffffffffffffffffff1673ffffffffffffffffffffffffffffffffffffffff166332665ffb846040518263ffffffff1660e01b81526004016111649190611c2a565b60006040518083038186803b15801561117c57600080fd5b505afa158015611190573d6000803e3d6000fd5b505050506040513d6000823e3d601f19601f820116820180604052508101906111b991906116fd565b905060008160a0015111611202576040517f08c379a00000000000000000000000000000000000000000000000000000000081526004016111f990611bea565b60405180910390fd5b8060a0015181608001516112169190611db1565b915050919050565b600260009054906101000a900473ffffffffffffffffffffffffffffffffffffffff1673ffffffffffffffffffffffffffffffffffffffff16638b441aa2858585856040518563ffffffff1660e01b815260040161127f9493929190611c6e565b600060405180830381600087803b15801561129957600080fd5b505af11580156112ad573d6000803e3d6000fd5b5050505050505050565b6112bf61133b565b600073ffffffffffffffffffffffffffffffffffffffff168173ffffffffffffffffffffffffffffffffffffffff16141561132f576040517f08c379a000000000000000000000000000000000000000000000000000000000815260040161132690611b2a565b60405180910390fd5b611338816113b9565b50565b61134361147d565b73ffffffffffffffffffffffffffffffffffffffff16611361610de9565b73ffffffffffffffffffffffffffffffffffffffff16146113b7576040517f08c379a00000000000000000000000000000000000000000000000000000000081526004016113ae90611bca565b60405180910390fd5b565b60008060009054906101000a900473ffffffffffffffffffffffffffffffffffffffff169050816000806101000a81548173ffffffffffffffffffffffffffffffffffffffff021916908373ffffffffffffffffffffffffffffffffffffffff1602179055508173ffffffffffffffffffffffffffffffffffffffff168173ffffffffffffffffffffffffffffffffffffffff167f8be0079c531659141344cd1fd0a4f28419497f9722a3daafe3b4186f6b6457e060405160405180910390a35050565b600033905090565b6040518060a0016040528060008152602001600073ffffffffffffffffffffffffffffffffffffffff1681526020016000815260200160008152602001600081525090565b60006114dd6114d884611d2b565b611d06565b9050828152602081018484840111156114f557600080fd5b611500848285611f00565b509392505050565b600081359050611517816121bc565b92915050565b60008151905061152c816121bc565b92915050565b600081519050611541816121d3565b92915050565b600081519050611556816121ea565b92915050565b600082601f83011261156d57600080fd5b815161157d8482602086016114ca565b91505092915050565b6000610120828403121561159957600080fd5b6115a4610120611d06565b905060006115b4848285016116bf565b600083015250602082015167ffffffffffffffff8111156115d457600080fd5b6115e08482850161155c565b602083015250604082015167ffffffffffffffff81111561160057600080fd5b61160c8482850161155c565b604083015250606082015167ffffffffffffffff81111561162c57600080fd5b6116388482850161155c565b606083015250608061164c848285016116bf565b60808301525060a0611660848285016116bf565b60a08301525060c061167484828501611547565b60c08301525060e061168884828501611532565b60e08301525061010061169d8482850161151d565b6101008301525092915050565b6000813590506116b9816121fa565b92915050565b6000815190506116ce816121fa565b92915050565b6000602082840312156116e657600080fd5b60006116f484828501611508565b91505092915050565b60006020828403121561170f57600080fd5b600082015167ffffffffffffffff81111561172957600080fd5b61173584828501611586565b91505092915050565b60006020828403121561175057600080fd5b600061175e848285016116aa565b91505092915050565b60006020828403121561177957600080fd5b6000611787848285016116bf565b91505092915050565b600080600080608085870312156117a657600080fd5b60006117b4878288016116aa565b94505060206117c587828801611508565b93505060406117d687828801611508565b92505060606117e7878288016116aa565b91505092959194509250565b6000806040838503121561180657600080fd5b6000611814858286016116aa565b9250506020611825858286016116aa565b9150509250929050565b600061183b8383611a1c565b60a08301905092915050565b61185081611e70565b82525050565b61185f81611e70565b82525050565b600061187082611d6c565b61187a8185611d84565b935061188583611d5c565b8060005b838110156118b657815161189d888261182f565b97506118a883611d77565b925050600181019050611889565b5085935050505092915050565b6118cc81611eb8565b82525050565b6118db81611edc565b82525050565b60006118ee602683611da0565b91506118f98261204b565b604082019050919050565b6000611911600d83611da0565b915061191c8261209a565b602082019050919050565b6000611934601483611da0565b915061193f826120c3565b602082019050919050565b6000611957601283611da0565b9150611962826120ec565b602082019050919050565b600061197a601183611da0565b915061198582612115565b602082019050919050565b600061199d602083611da0565b91506119a88261213e565b602082019050919050565b60006119c0600083611d95565b91506119cb82612167565b600082019050919050565b60006119e3601283611da0565b91506119ee8261216a565b602082019050919050565b6000611a06600e83611da0565b9150611a1182612193565b602082019050919050565b60a082016000820151611a326000850182611a84565b506020820151611a456020850182611847565b506040820151611a586040850182611a84565b506060820151611a6b6060850182611a84565b506080820151611a7e6080850182611a84565b50505050565b611a8d81611eae565b82525050565b611a9c81611eae565b82525050565b6000611aad826119b3565b9150819050919050565b6000602082019050611acc6000830184611856565b92915050565b60006020820190508181036000830152611aec8184611865565b905092915050565b6000602082019050611b0960008301846118c3565b92915050565b6000602082019050611b2460008301846118d2565b92915050565b60006020820190508181036000830152611b43816118e1565b9050919050565b60006020820190508181036000830152611b6381611904565b9050919050565b60006020820190508181036000830152611b8381611927565b9050919050565b60006020820190508181036000830152611ba38161194a565b9050919050565b60006020820190508181036000830152611bc38161196d565b9050919050565b60006020820190508181036000830152611be381611990565b9050919050565b60006020820190508181036000830152611c03816119d6565b9050919050565b60006020820190508181036000830152611c23816119f9565b9050919050565b6000602082019050611c3f6000830184611a93565b92915050565b6000604082019050611c5a6000830185611a93565b611c676020830184611856565b9392505050565b6000608082019050611c836000830187611a93565b611c906020830186611856565b611c9d6040830185611856565b611caa6060830184611a93565b95945050505050565b600060a082019050611cc86000830188611a93565b611cd56020830187611856565b611ce26040830186611a93565b611cef6060830185611a93565b611cfc6080830184611a93565b9695505050505050565b6000611d10611d21565b9050611d1c8282611f33565b919050565b6000604051905090565b600067ffffffffffffffff821115611d4657611d4561200b565b5b611d4f8261203a565b9050602081019050919050565b6000819050602082019050919050565b600081519050919050565b6000602082019050919050565b600082825260208201905092915050565b600081905092915050565b600082825260208201905092915050565b6000611dbc82611eae565b9150611dc783611eae565b925082611dd757611dd6611fdc565b5b828204905092915050565b6000611ded82611eae565b9150611df883611eae565b9250817fffffffffffffffffffffffffffffffffffffffffffffffffffffffffffffffff0483118215151615611e3157611e30611fad565b5b828202905092915050565b6000611e4782611eae565b9150611e5283611eae565b925082821015611e6557611e64611fad565b5b828203905092915050565b6000611e7b82611e8e565b9050919050565b60008115159050919050565b600073ffffffffffffffffffffffffffffffffffffffff82169050919050565b6000819050919050565b6000611ec382611eca565b9050919050565b6000611ed582611e8e565b9050919050565b6000611ee782611eee565b9050919050565b6000611ef982611e8e565b9050919050565b60005b83811015611f1e578082015181840152602081019050611f03565b83811115611f2d576000848401525b50505050565b611f3c8261203a565b810181811067ffffffffffffffff82111715611f5b57611f5a61200b565b5b80604052505050565b6000611f6f82611eae565b91507fffffffffffffffffffffffffffffffffffffffffffffffffffffffffffffffff821415611fa257611fa1611fad565b5b600182019050919050565b7f4e487b7100000000000000000000000000000000000000000000000000000000600052601160045260246000fd5b7f4e487b7100000000000000000000000000000000000000000000000000000000600052601260045260246000fd5b7f4e487b7100000000000000000000000000000000000000000000000000000000600052604160045260246000fd5b6000601f19601f8301169050919050565b7f4f776e61626c653a206e6577206f776e657220697320746865207a65726f206160008201527f6464726573730000000000000000000000000000000000000000000000000000602082015250565b7f496e76616c696420696e64657800000000000000000000000000000000000000600082015250565b7f4661696c656420746f2073656e64204574686572000000000000000000000000600082015250565b7f496e73756666696369656e742066756e64730000000000000000000000000000600082015250565b7f4e6f7420656e6f75676820736861726573000000000000000000000000000000600082015250565b7f4f776e61626c653a2063616c6c6572206973206e6f7420746865206f776e6572600082015250565b50565b7f50726f7065727479206e6f7420666f756e640000000000000000000000000000600082015250565b7f4e6f74207468652073656c6c6572000000000000000000000000000000000000600082015250565b6121c581611e70565b81146121d057600080fd5b50565b6121dc81611e82565b81146121e757600080fd5b50565b600481106121f757600080fd5b50565b61220381611eae565b811461220e57600080fd5b5056fea2646970667358221220e4f4f238a70245beb63134f7fb915faa6883c9c04b19599281ee1d7c7cc3303564736f6c63430008030033",
  "linkReferences": {},
  "deployedLinkReferences": {}
}