{
  "_format": "hh-sol-artifact-1",
  "contractName": "PropertyRequestFactory",
  "sourceName": "contracts/PropertyRequestFactory.sol",
  "abi": [
    {
      "anonymous": false,
      "inputs": [
        {
          "indexed": true,
          "internalType": "address",
          "name": "previousOwner",
          "type": "address"
        },
        {
          "indexed": true,
          "internalType": "address",
          "name": "newOwner",
          "type": "address"
        }
      ],
      "name": "OwnershipTransferred",
      "type": "event"
    },
    {
      "inputs": [
        {
          "internalType": "uint256",
          "name": "_requestId",
          "type": "uint256"
        }
      ],
      "name": "approveRequest",
      "outputs": [],
      "stateMutability": "nonpayable",
      "type": "function"
    },
    {
      "inputs": [
        {
          "internalType": "uint256",
          "name": "_requestId",
          "type": "uint256"
        }
      ],
      "name": "getPropertyRequest",
      "outputs": [
        {
          "components": [
            {
              "internalType": "uint256",
              "name": "id",
              "type": "uint256"
            },
            {
              "internalType": "string",
              "name": "name",
              "type": "string"
            },
            {
              "internalType": "string",
              "name": "description",
              "type": "string"
            },
            {
              "internalType": "string",
              "name": "location",
              "type": "string"
            },
            {
              "internalType": "uint256",
              "name": "totalValue",
              "type": "uint256"
            },
            {
              "internalType": "uint256",
              "name": "shares",
              "type": "uint256"
            },
            {
              "internalType": "enum PropertyLib.RequestStatus",
              "name": "status",
              "type": "uint8"
            },
            {
              "internalType": "bool",
              "name": "isAvailableForTrade",
              "type": "bool"
            },
            {
              "internalType": "address",
              "name": "requestOwner",
              "type": "address"
            }
          ],
          "internalType": "struct PropertyLib.Property",
          "name": "",
          "type": "tuple"
        }
      ],
      "stateMutability": "view",
      "type": "function"
    },
    {
      "inputs": [
        {
          "internalType": "address",
          "name": "user",
          "type": "address"
        }
      ],
      "name": "getUserPropertys",
      "outputs": [
        {
          "components": [
            {
              "internalType": "uint256",
              "name": "id",
              "type": "uint256"
            },
            {
              "internalType": "string",
              "name": "name",
              "type": "string"
            },
            {
              "internalType": "string",
              "name": "description",
              "type": "string"
            },
            {
              "internalType": "string",
              "name": "location",
              "type": "string"
            },
            {
              "internalType": "uint256",
              "name": "totalValue",
              "type": "uint256"
            },
            {
              "internalType": "uint256",
              "name": "shares",
              "type": "uint256"
            },
            {
              "internalType": "enum PropertyLib.RequestStatus",
              "name": "status",
              "type": "uint8"
            },
            {
              "internalType": "bool",
              "name": "isAvailableForTrade",
              "type": "bool"
            },
            {
              "internalType": "address",
              "name": "requestOwner",
              "type": "address"
            }
          ],
          "internalType": "struct PropertyLib.Property[]",
          "name": "",
          "type": "tuple[]"
        }
      ],
      "stateMutability": "view",
      "type": "function"
    },
    {
      "inputs": [],
      "name": "owner",
      "outputs": [
        {
          "internalType": "address",
          "name": "",
          "type": "address"
        }
      ],
      "stateMutability": "view",
      "type": "function"
    },
    {
      "inputs": [],
      "name": "propertyRequestCount",
      "outputs": [
        {
          "internalType": "uint256",
          "name": "",
          "type": "uint256"
        }
      ],
      "stateMutability": "view",
      "type": "function"
    },
    {
      "inputs": [
        {
          "internalType": "uint256",
          "name": "",
          "type": "uint256"
        }
      ],
      "name": "propertyRequests",
      "outputs": [
        {
          "internalType": "uint256",
          "name": "id",
          "type": "uint256"
        },
        {
          "internalType": "string",
          "name": "name",
          "type": "string"
        },
        {
          "internalType": "string",
          "name": "description",
          "type": "string"
        },
        {
          "internalType": "string",
          "name": "location",
          "type": "string"
        },
        {
          "internalType": "uint256",
          "name": "totalValue",
          "type": "uint256"
        },
        {
          "internalType": "uint256",
          "name": "shares",
          "type": "uint256"
        },
        {
          "internalType": "enum PropertyLib.RequestStatus",
          "name": "status",
          "type": "uint8"
        },
        {
          "internalType": "bool",
          "name": "isAvailableForTrade",
          "type": "bool"
        },
        {
          "internalType": "address",
          "name": "requestOwner",
          "type": "address"
        }
      ],
      "stateMutability": "view",
      "type": "function"
    },
    {
      "inputs": [],
      "name": "renounceOwnership",
      "outputs": [],
      "stateMutability": "nonpayable",
      "type": "function"
    },
    {
      "inputs": [
        {
          "internalType": "string",
          "name": "_name",
          "type": "string"
        },
        {
          "internalType": "string",
          "name": "_description",
          "type": "string"
        },
        {
          "internalType": "string",
          "name": "_location",
          "type": "string"
        },
        {
          "internalType": "uint256",
          "name": "_totalValue",
          "type": "uint256"
        },
        {
          "internalType": "uint256",
          "name": "_shares",
          "type": "uint256"
        }
      ],
      "name": "requestProperty",
      "outputs": [],
      "stateMutability": "nonpayable",
      "type": "function"
    },
    {
      "inputs": [
        {
          "internalType": "address",
          "name": "newOwner",
          "type": "address"
        }
      ],
      "name": "transferOwnership",
      "outputs": [],
      "stateMutability": "nonpayable",
      "type": "function"
    }
  ],
  "bytecode": "0x608060405234801561001057600080fd5b5061002d61002261003260201b60201c565b61003a60201b60201c565b6100fe565b600033905090565b60008060009054906101000a900473ffffffffffffffffffffffffffffffffffffffff169050816000806101000a81548173ffffffffffffffffffffffffffffffffffffffff021916908373ffffffffffffffffffffffffffffffffffffffff1602179055508173ffffffffffffffffffffffffffffffffffffffff168173ffffffffffffffffffffffffffffffffffffffff167f8be0079c531659141344cd1fd0a4f28419497f9722a3daafe3b4186f6b6457e060405160405180910390a35050565b611cf18061010d6000396000f3fe608060405234801561001057600080fd5b50600436106100935760003560e01c80638da5cb5b116100665780638da5cb5b1461013a578063ca8f621d14610158578063d7d1bbdb14610176578063f02b421b14610192578063f2fde38b146101ae57610093565b80630412d6d4146100985780631aa84782146100d0578063715018a61461010057806385e046041461010a575b600080fd5b6100b260048036038101906100ad91906113cd565b6101ca565b6040516100c799989796959493929190611852565b60405180910390f35b6100ea60048036038101906100e591906112e5565b6103ea565b6040516100f79190611793565b60405180910390f35b610108610856565b005b610124600480360381019061011f91906113cd565b61086a565b6040516101319190611815565b60405180910390f35b610142610b64565b60405161014f9190611778565b60405180910390f35b610160610b8d565b60405161016d9190611837565b60405180910390f35b610190600480360381019061018b91906113cd565b610b93565b005b6101ac60048036038101906101a7919061130e565b610cd8565b005b6101c860048036038101906101c391906112e5565b610f46565b005b60016020528060005260406000206000915090508060000154908060010180546101f390611a5f565b80601f016020809104026020016040519081016040528092919081815260200182805461021f90611a5f565b801561026c5780601f106102415761010080835404028352916020019161026c565b820191906000526020600020905b81548152906001019060200180831161024f57829003601f168201915b50505050509080600201805461028190611a5f565b80601f01602080910402602001604051908101604052809291908181526020018280546102ad90611a5f565b80156102fa5780601f106102cf576101008083540402835291602001916102fa565b820191906000526020600020905b8154815290600101906020018083116102dd57829003601f168201915b50505050509080600301805461030f90611a5f565b80601f016020809104026020016040519081016040528092919081815260200182805461033b90611a5f565b80156103885780601f1061035d57610100808354040283529160200191610388565b820191906000526020600020905b81548152906001019060200180831161036b57829003601f168201915b5050505050908060040154908060050154908060060160009054906101000a900460ff16908060060160019054906101000a900460ff16908060060160029054906101000a900473ffffffffffffffffffffffffffffffffffffffff16905089565b60606000600360008473ffffffffffffffffffffffffffffffffffffffff1673ffffffffffffffffffffffffffffffffffffffff16815260200190815260200160002090506000818054905067ffffffffffffffff811115610475577f4e487b7100000000000000000000000000000000000000000000000000000000600052604160045260246000fd5b6040519080825280602002602001820160405280156104ae57816020015b61049b611114565b8152602001906001900390816104935790505b50905060005b828054905081101561084b5760008382815481106104fb577f4e487b7100000000000000000000000000000000000000000000000000000000600052603260045260246000fd5b9060005260206000200154905060016000828152602001908152602001600020604051806101200160405290816000820154815260200160018201805461054190611a5f565b80601f016020809104026020016040519081016040528092919081815260200182805461056d90611a5f565b80156105ba5780601f1061058f576101008083540402835291602001916105ba565b820191906000526020600020905b81548152906001019060200180831161059d57829003601f168201915b505050505081526020016002820180546105d390611a5f565b80601f01602080910402602001604051908101604052809291908181526020018280546105ff90611a5f565b801561064c5780601f106106215761010080835404028352916020019161064c565b820191906000526020600020905b81548152906001019060200180831161062f57829003601f168201915b5050505050815260200160038201805461066590611a5f565b80601f016020809104026020016040519081016040528092919081815260200182805461069190611a5f565b80156106de5780601f106106b3576101008083540402835291602001916106de565b820191906000526020600020905b8154815290600101906020018083116106c157829003601f168201915b5050505050815260200160048201548152602001600582015481526020016006820160009054906101000a900460ff166003811115610746577f4e487b7100000000000000000000000000000000000000000000000000000000600052602160045260246000fd5b600381111561077e577f4e487b7100000000000000000000000000000000000000000000000000000000600052602160045260246000fd5b81526020016006820160019054906101000a900460ff161515151581526020016006820160029054906101000a900473ffffffffffffffffffffffffffffffffffffffff1673ffffffffffffffffffffffffffffffffffffffff1673ffffffffffffffffffffffffffffffffffffffff168152505083838151811061082c577f4e487b7100000000000000000000000000000000000000000000000000000000600052603260045260246000fd5b602002602001018190525050808061084390611ac2565b9150506104b4565b508092505050919050565b61085e610fca565b6108686000611048565b565b610872611114565b6001600083815260200190815260200160002060405180610120016040529081600082015481526020016001820180546108ab90611a5f565b80601f01602080910402602001604051908101604052809291908181526020018280546108d790611a5f565b80156109245780601f106108f957610100808354040283529160200191610924565b820191906000526020600020905b81548152906001019060200180831161090757829003601f168201915b5050505050815260200160028201805461093d90611a5f565b80601f016020809104026020016040519081016040528092919081815260200182805461096990611a5f565b80156109b65780601f1061098b576101008083540402835291602001916109b6565b820191906000526020600020905b81548152906001019060200180831161099957829003601f168201915b505050505081526020016003820180546109cf90611a5f565b80601f01602080910402602001604051908101604052809291908181526020018280546109fb90611a5f565b8015610a485780601f10610a1d57610100808354040283529160200191610a48565b820191906000526020600020905b815481529060010190602001808311610a2b57829003601f168201915b5050505050815260200160048201548152602001600582015481526020016006820160009054906101000a900460ff166003811115610ab0577f4e487b7100000000000000000000000000000000000000000000000000000000600052602160045260246000fd5b6003811115610ae8577f4e487b7100000000000000000000000000000000000000000000000000000000600052602160045260246000fd5b81526020016006820160019054906101000a900460ff161515151581526020016006820160029054906101000a900473ffffffffffffffffffffffffffffffffffffffff1673ffffffffffffffffffffffffffffffffffffffff1673ffffffffffffffffffffffffffffffffffffffff16815250509050919050565b60008060009054906101000a900473ffffffffffffffffffffffffffffffffffffffff16905090565b60025481565b610b9b610fca565b60006003811115610bd5577f4e487b7100000000000000000000000000000000000000000000000000000000600052602160045260246000fd5b6001600083815260200190815260200160002060060160009054906101000a900460ff166003811115610c31577f4e487b7100000000000000000000000000000000000000000000000000000000600052602160045260246000fd5b14610c71576040517f08c379a0000000000000000000000000000000000000000000000000000000008152600401610c68906117f5565b60405180910390fd5b600180600083815260200190815260200160002060060160006101000a81548160ff02191690836003811115610cd0577f4e487b7100000000000000000000000000000000000000000000000000000000600052602160045260246000fd5b021790555050565b60026000815480929190610ceb90611ac2565b919050555060006002549050600060405180610120016040528083815260200188815260200187815260200186815260200185815260200184815260200160006003811115610d63577f4e487b7100000000000000000000000000000000000000000000000000000000600052602160045260246000fd5b81526020016000151581526020013373ffffffffffffffffffffffffffffffffffffffff1681525090508060016000848152602001908152602001600020600082015181600001556020820151816001019080519060200190610dc79291906111b0565b506040820151816002019080519060200190610de49291906111b0565b506060820151816003019080519060200190610e019291906111b0565b506080820151816004015560a0820151816005015560c08201518160060160006101000a81548160ff02191690836003811115610e67577f4e487b7100000000000000000000000000000000000000000000000000000000600052602160045260246000fd5b021790555060e08201518160060160016101000a81548160ff0219169083151502179055506101008201518160060160026101000a81548173ffffffffffffffffffffffffffffffffffffffff021916908373ffffffffffffffffffffffffffffffffffffffff160217905550905050600360003373ffffffffffffffffffffffffffffffffffffffff1673ffffffffffffffffffffffffffffffffffffffff16815260200190815260200160002082908060018154018082558091505060019003906000526020600020016000909190919091505550505050505050565b610f4e610fca565b600073ffffffffffffffffffffffffffffffffffffffff168173ffffffffffffffffffffffffffffffffffffffff161415610fbe576040517f08c379a0000000000000000000000000000000000000000000000000000000008152600401610fb5906117b5565b60405180910390fd5b610fc781611048565b50565b610fd261110c565b73ffffffffffffffffffffffffffffffffffffffff16610ff0610b64565b73ffffffffffffffffffffffffffffffffffffffff1614611046576040517f08c379a000000000000000000000000000000000000000000000000000000000815260040161103d906117d5565b60405180910390fd5b565b60008060009054906101000a900473ffffffffffffffffffffffffffffffffffffffff169050816000806101000a81548173ffffffffffffffffffffffffffffffffffffffff021916908373ffffffffffffffffffffffffffffffffffffffff1602179055508173ffffffffffffffffffffffffffffffffffffffff168173ffffffffffffffffffffffffffffffffffffffff167f8be0079c531659141344cd1fd0a4f28419497f9722a3daafe3b4186f6b6457e060405160405180910390a35050565b600033905090565b60405180610120016040528060008152602001606081526020016060815260200160608152602001600081526020016000815260200160006003811115611184577f4e487b7100000000000000000000000000000000000000000000000000000000600052602160045260246000fd5b8152602001600015158152602001600073ffffffffffffffffffffffffffffffffffffffff1681525090565b8280546111bc90611a5f565b90600052602060002090601f0160209004810192826111de5760008555611225565b82601f106111f757805160ff1916838001178555611225565b82800160010185558215611225579182015b82811115611224578251825591602001919060010190611209565b5b5090506112329190611236565b5090565b5b8082111561124f576000816000905550600101611237565b5090565b600061126661126184611919565b6118f4565b90508281526020810184848401111561127e57600080fd5b611289848285611a1d565b509392505050565b6000813590506112a081611c8d565b92915050565b600082601f8301126112b757600080fd5b81356112c7848260208601611253565b91505092915050565b6000813590506112df81611ca4565b92915050565b6000602082840312156112f757600080fd5b600061130584828501611291565b91505092915050565b600080600080600060a0868803121561132657600080fd5b600086013567ffffffffffffffff81111561134057600080fd5b61134c888289016112a6565b955050602086013567ffffffffffffffff81111561136957600080fd5b611375888289016112a6565b945050604086013567ffffffffffffffff81111561139257600080fd5b61139e888289016112a6565b93505060606113af888289016112d0565b92505060806113c0888289016112d0565b9150509295509295909350565b6000602082840312156113df57600080fd5b60006113ed848285016112d0565b91505092915050565b600061140283836115b4565b905092915050565b611413816119b0565b82525050565b611422816119b0565b82525050565b60006114338261195a565b61143d818561197d565b93508360208202850161144f8561194a565b8060005b8581101561148b578484038952815161146c85826113f6565b945061147783611970565b925060208a01995050600181019050611453565b50829750879550505050505092915050565b6114a6816119c2565b82525050565b6114b5816119c2565b82525050565b6114c481611a0b565b82525050565b6114d381611a0b565b82525050565b60006114e482611965565b6114ee818561198e565b93506114fe818560208601611a2c565b61150781611bc7565b840191505092915050565b600061151d82611965565b611527818561199f565b9350611537818560208601611a2c565b61154081611bc7565b840191505092915050565b600061155860268361199f565b915061156382611bd8565b604082019050919050565b600061157b60208361199f565b915061158682611c27565b602082019050919050565b600061159e601f8361199f565b91506115a982611c50565b602082019050919050565b6000610120830160008301516115cd600086018261175a565b50602083015184820360208601526115e582826114d9565b915050604083015184820360408601526115ff82826114d9565b9150506060830151848203606086015261161982826114d9565b915050608083015161162e608086018261175a565b5060a083015161164160a086018261175a565b5060c083015161165460c08601826114bb565b5060e083015161166760e086018261149d565b5061010083015161167c61010086018261140a565b508091505092915050565b6000610120830160008301516116a0600086018261175a565b50602083015184820360208601526116b882826114d9565b915050604083015184820360408601526116d282826114d9565b915050606083015184820360608601526116ec82826114d9565b9150506080830151611701608086018261175a565b5060a083015161171460a086018261175a565b5060c083015161172760c08601826114bb565b5060e083015161173a60e086018261149d565b5061010083015161174f61010086018261140a565b508091505092915050565b61176381611a01565b82525050565b61177281611a01565b82525050565b600060208201905061178d6000830184611419565b92915050565b600060208201905081810360008301526117ad8184611428565b905092915050565b600060208201905081810360008301526117ce8161154b565b9050919050565b600060208201905081810360008301526117ee8161156e565b9050919050565b6000602082019050818103600083015261180e81611591565b9050919050565b6000602082019050818103600083015261182f8184611687565b905092915050565b600060208201905061184c6000830184611769565b92915050565b600061012082019050611868600083018c611769565b818103602083015261187a818b611512565b9050818103604083015261188e818a611512565b905081810360608301526118a28189611512565b90506118b16080830188611769565b6118be60a0830187611769565b6118cb60c08301866114ca565b6118d860e08301856114ac565b6118e6610100830184611419565b9a9950505050505050505050565b60006118fe61190f565b905061190a8282611a91565b919050565b6000604051905090565b600067ffffffffffffffff82111561193457611933611b98565b5b61193d82611bc7565b9050602081019050919050565b6000819050602082019050919050565b600081519050919050565b600081519050919050565b6000602082019050919050565b600082825260208201905092915050565b600082825260208201905092915050565b600082825260208201905092915050565b60006119bb826119e1565b9050919050565b60008115159050919050565b60008190506119dc82611c79565b919050565b600073ffffffffffffffffffffffffffffffffffffffff82169050919050565b6000819050919050565b6000611a16826119ce565b9050919050565b82818337600083830152505050565b60005b83811015611a4a578082015181840152602081019050611a2f565b83811115611a59576000848401525b50505050565b60006002820490506001821680611a7757607f821691505b60208210811415611a8b57611a8a611b69565b5b50919050565b611a9a82611bc7565b810181811067ffffffffffffffff82111715611ab957611ab8611b98565b5b80604052505050565b6000611acd82611a01565b91507fffffffffffffffffffffffffffffffffffffffffffffffffffffffffffffffff821415611b0057611aff611b0b565b5b600182019050919050565b7f4e487b7100000000000000000000000000000000000000000000000000000000600052601160045260246000fd5b7f4e487b7100000000000000000000000000000000000000000000000000000000600052602160045260246000fd5b7f4e487b7100000000000000000000000000000000000000000000000000000000600052602260045260246000fd5b7f4e487b7100000000000000000000000000000000000000000000000000000000600052604160045260246000fd5b6000601f19601f8301169050919050565b7f4f776e61626c653a206e6577206f776e657220697320746865207a65726f206160008201527f6464726573730000000000000000000000000000000000000000000000000000602082015250565b7f4f776e61626c653a2063616c6c6572206973206e6f7420746865206f776e6572600082015250565b7f52657175657374206973206e6f742070656e64696e6720617070726f76616c00600082015250565b60048110611c8a57611c89611b3a565b5b50565b611c96816119b0565b8114611ca157600080fd5b50565b611cad81611a01565b8114611cb857600080fd5b5056fea264697066735822122001615a2de14226fff318525aab34c7488861a94bdc78679bc147d4e8898f40fc64736f6c63430008030033",
  "linkReferences": {},
  "deployedLinkReferences": {}
}